:04000000B6EF12F055
:08000800046ED8CF05F0E0CF33
:1000100006F00001E9CF0CF0EACF07F0E1CF08F0DD
:10002000E2CF09F0D9CF0AF0DACF0BF0F3CF12F01C
:10003000F4CF13F0FACF14F0F5CF15F0F6CF16F099
:10004000F7CF17F000C00EF001C00FF002C010F0A3
:1000500003C011F0F2AA30EF00F0F2B4B0EF02F0FA
:100060009DA036EF00F09EB071EF01F09DAA3CEF2D
:1000700000F09EBAE1EF03F00EC000F00FC001F0F7
:1000800010C002F011C003F00CC0E9FF07C0EAFF86
:10009000078E08C0E1FF09C0E2FF0AC0D9FF0BC00C
:1000A000DAFF12C0F3FF13C0F4FF14C0FAFF15C04B
:1000B000F5FF16C0F6FF17C0F7FF045006C0E0FFBB
:1000C00005C0D8FF1000F76AD60FF66E000EF722B3
:1000D0000900F5501200280C0106323020202020A3
:1000E0002020000020202020202000002020202090
:1000F0002020000053657475702074696D652020A0
:10010000202020202020202000002020202020202F
:10011000202020202020202020202020202000001F
:1001200020202020202020202020202020202020CF
:100130002020202000003A003A002020202020200B
:1001400020202020202020202020202020200000EF
:100150003E53746F72656420202020202020000010
:100160005365747570206461746520202020202000
:1001700020202020000020202020202020202020BF
:1001800020202020202020202020000020202020AF
:10019000202020202020202020202020202020205F
:1001A000000020202020202020202020202020208F
:1001B0002020202000003E53746F726564202020B0
:1001C00020202020000054686F69206769616E203C
:1001D000626F6D2020202020202000002020202081
:1001E00020202020202020204F4E3A202068202050
:1001F0000000202020202020202020202020494EE8
:100200003A20202020700000456E61626C6520005D
:1002100044697361626C650020202020202020004A
:10022000456E61626C65200044697361626C6500B3
:10023000456E61626C65200044697361626C6500A3
:10024000456E61626C65000044697361626C652093
:10025000000044697361626C6500456E61626C65A3
:10026000200044697361626C6500456E61626C6573
:1002700020003E53746F72656400534554555020FE
:100280004D4F4445203A20202020202020200000EF
:10029000202020202020202020202020202020205E
:1002A000202020200000202020202020202020208E
:1002B000202020202020202020200000202020207E
:1002C000202020003E53746F726564002020434854
:1002D0004520444F203A204D4F444520257520208D
:1002E00020009E903CEF00F0080E016E00008B96FF
:1002F0009496000067378B98D8B09488D8A09498CB
:10030000948682A6FED7012EF1D700008B96949694
:100310000000948800000000948682A6FED7016A3F
:10032000000082B801808B9694968B989498120066
:10033000080E686F00C069F094880000948682A659
:10034000FED782B8D88082A8D89001360000949653
:100350008B96682FF1D7948800008B986951D8A4A8
:1003600094980000948682A6FED700008B969496FF
:1003700000008B98949812009488000094860000E6
:1003800082A6FED78B98949800008B969496D00EF8
:10039000676FAADF65C067F0A7DF948800009486C6
:1003A000000082A6FED78B98949800008B969496B6
:1003B000D10E676F99DF006ABBDF01C066F09498C9
:1003C0000000948682A6FED7000000D0000094882A
:1003D000000066C001F012006639006E0F0E0016B4
:1003E00000500A0DF3CF67F066510F0B6725016EC1
:1003F0001200656BC1DF01C065F001C066F0ECDF83
:1004000001C01CF0010E656FB7DF01C065F001C0CF
:1004100066F0E2DF01C01DF0020E656FADDF01C0C6
:1004200065F001C066F0D8DF01C01EF0030E656FF5
:10043000A3DF01C065F001C066F0CEDF01C01FF090
:10044000040E656F99DF01C065F001C066F0C4DF7E
:1004500001C020F0050E656F8FDF01C065F001C09F
:1004600066F0BADF01C021F0060E656F85DF01C0BE
:1004700065F001C066F0B0DF01C022F012006851E3
:10048000016A675D03E267C000F00CD0006A080EE5
:10049000696F673700366851005CD8B0006E01366E
:1004A000692FF7D71200696B6951070810E368C01C
:1004B0006AF0800E6A176A51800802E1898601D0CD
:1004C0008996D890683789948984692BEDD7120072
:1004D00066C067F00A0E686FD2DF036A0150490FE9
:1004E000E96E000E0320EA6EEFCF67F067C068F098
:1004F000DADF66C067F00A0E686FC1DF036A00507A
:10050000490FE96E000E0320EA6EEFCF67F067C077
:1005100068F0C9DF65C067F00A0E686FB0DF036A74
:100520000150490FE96E000E0320EA6EEFCF67F02D
:1005300067C068F0B8DF65C067F00A0E686F9FDFBC
:10054000036A0050490FE96E000E0320EA6EEFCFF8
:1005500067F067C068F0A7DF89828992BBEF02F07D
:100560002D5203E02D50030801E143DF1EC065F06A
:100570001DC066F0ADD789B002D0898001D08990C6
:10058000F2943CEF00F0ACA2FED76BC0ADFF1200BE
:100590008B8A8B848C888C8A8C8C8C8612008C96AF
:1005A0008B9A8B948C988C9A8C9C1200AECF1AF0FC
:1005B0001A50810A21E0030A26E0010A2BE0070A0B
:1005C00030E0010A35E0030A3AE0090A3FE08E0A0A
:1005D00042E0030AD8B45CD0010AD8B476D0070A46
:1005E000D8B490D0010AD8B4AAD0030AD8B4C4D0E1
:1005F000090AD8B4DED0E1D08B8A810E6B6FC3DFDD
:100600008CA68C86DBD08B84820E6B6FBCDF8CA6B5
:100610008C86D4D08C88830E6B6FB5DF8CA68C86CD
:10062000CDD08C8A840E6B6FAEDF8CA68C86C6D044
:100630008C8C850E6B6FA7DF8CA68C86BFD08C8EC2
:10064000860E6B6FA0DF8CA68C86B8D08F0E6B6F7A
:100650009ADF9EDFB3D0010E6B6F95DF8BB416D09F
:100660008CB814D08CBA12D08CBC10D08CBE0ED0EA
:100670008C966A6B696B6A51030808E303E1695160
:10068000E70804E3692BD8B46A2BF5D78B9A96D088
:10069000020E6B6F78DF8BBA16D08CB814D08CBA80
:1006A00012D08CBC10D08CBE0ED08C966A6B696B4D
:1006B0006A51030808E303E16951E70804E3692B81
:1006C000D8B46A2BF5D78B9479D0030E6B6F5BDFB0
:1006D0008BBA16D08BB414D08CBA12D08CBC10D07C
:1006E0008CBE0ED08C966A6B696B6A51030808E366
:1006F00003E16951E70804E3692BD8B46A2BF5D705
:100700008C985CD0040E6B6F3EDF8BBA16D08BB426
:1007100014D08CB812D08CBC10D08CBE0ED08C965D
:100720006A6B696B6A51030808E303E16951E708E2
:1007300004E3692BD8B46A2BF5D78C9A3FD0050E09
:100740006B6F21DF8BBA16D08BB414D08CB812D05B
:100750008CBA10D08CBE0ED08C966A6B696B6A51C5
:10076000030808E303E16951E70804E3692BD8B4FF
:100770006A2BF5D78C9C22D0060E6B6F04DF8BBAE8
:1007800017D08BB415D08CB813D08CBA11D08CBCC8
:100790000FD08C966A6B696B6A51030808E303E11A
:1007A0006951E70804E3692BD8B46A2BF5D78C9E0E
:1007B00005D00F0E6B6FE7DEF2DE00D01A6AE4EFB1
:1007C00003F02C2C01D0F2D62C50030812E1685112
:1007D000682B036A650FE96E000E0320EA6EAECF48
:1007E000EFFF6851010805E265C025F066C026F0FC
:1007F000686B9E9A3CEF00F02020202020202020D3
:100800002020202020202020202020200000202028
:1008100043484520444F203A204D4F444520312045
:1008200020200000202043484520444F203A204DFE
:100830004F4445203220202000002020202020206E
:1008400020202020202020202020202020200000E8
:10085000949A94949598959A959C9596F2EF12F0A7
:10086000EA6A5C0EE96EEF500EE0010E016E006A5E
:10087000002EFED7012EFBD74A0E006E002EFED7AB
:1008800000D0EF2EF2D7120063B102D08D9401D0C8
:100890008D84969463B302D08D9201D08D8296920E
:1008A00063B502D08D9001D08D80969063B702D051
:1008B000899A01D0898A929A000095908C8000D004
:1008C00095908C901200646B95908C8000009684BB
:1008D000649184B464819682649384B264839680C4
:1008E000649584B06485928A649780BA6487959091
:1008F0008C90000064C001F0120095928C82000080
:10090000E2DF01C063F0DFDF01C062F06339006E37
:10091000F00E001600506211016E92EF04F09594F3
:100920008C94EBD701C062F001BEFBD7605303E0AB
:1009300095948C8402D095948C94000095928C921E
:10094000000095908C906139626F0F0E621762C043
:1009500063F09ADF61510F0B626F636F95DF1200D6
:10096000010E1B6E95948C9495928C9295908C9020
:10097000230E5C6E75DF546A5450020808E3030EC0
:10098000636F82DF050E5C6E6BDF542AF5D7020EB3
:10099000636F7ADF546A545003080AE3036A5450C1
:1009A00063EC00F0556E606B616FB9DF542AF3D7CA
:1009B00012009486948800EF13F0080E016E000078
:1009C0008B96949600005D368B98D8B09488D8A00A
:1009D0009498948682A6FED7012EF1D700008B96BC
:1009E00094960000948800000000948682A6FED7AA
:1009F000016A000082B801808B9694968B98949837
:100A000012009486948800D000D0536A5350020894
:100A100028E394880000948600008B989498000046
:100A20008B969496A00E5D6EC8DF5D68C6DF5D682C
:100A3000C4DF5350020804E1020E5D6EBEDF05D034
:100A4000020E5324546E5D6EB8DF949800009486B5
:100A500082A6FED7000000D0000094880000532A30
:100A6000D5D706EF13F09292929492960EEF13F070
:100A7000080E5D6E00C05EF094880000948682A629
:100A8000FED782B8D88082A8D8900136000094960C
:100A90008B965D2EF1D7948800008B985E50D8A479
:100AA00094980000948682A6FED700008B969496B8
:100AB00000008B989498B4EF05F094880000948619
:100AC00000008B98949800008B9694965D6A590E5E
:100AD0005C6E010E5C24016E000E5D20036E01C091
:100AE000E9FFEA6EEF38006E0032070E0016005084
:100AF000A009FE0B5C6E5D6E60DF5D6A590E5C6E78
:100B0000010E5C24016E000E5D20036E01C0E9FF42
:100B1000EA6EEF503F0B5C6E5D6E4FDF59C05DF0CB
:100B20004CDF948800009486000082A6FED78B9844
:100B3000949800008B9694965D6A590E5C6E010E37
:100B40005C24016E000E5D20036E01C0E9FFEA6EB9
:100B5000EF38006E0032070E00160050A1095C6EDF
:100B60005D6E2BDF006A84D701C05BF094980000B3
:100B7000948682A6FED7000000D000009488000072
:100B80005BC001F01200010E536E53500408D8A050
:100B900087D05350040DF350556A546E2F0E5424D1
:100BA000016E000E5520036E01C056F0576E535073
:100BB000040DF3500A0F586E5A6A596E7EDF57C003
:100BC000EAFF56C0E9FF01C0EFFF5350040DF35098
:100BD000556A546E010E5424016E000E5520036EAA
:100BE00001502F0F016E000E032201C054F003C00C
:100BF00055F05350040DF3500A0F010F566E5A6A08
:100C0000596E5BDF55C0EAFF54C0E9FF01C0EFFF3A
:100C10005350040DF350556A546E020E5424016E65
:100C2000000E5520036E01502F0F016E000E03229F
:100C300001C054F003C055F05350040DF3500A0F97
:100C4000020F566E5A6A596E38DF55C0EAFF54C01B
:100C5000E9FF01C0EFFF5350040DF350556A546E85
:100C6000030E5424016E000E5520036E01502F0F09
:100C7000016E000E032201C054F003C055F0535022
:100C8000040DF3500A0F030F566E5A6A596E15DFA2
:100C900055C0EAFF54C0E9FF01C0EFFF532A75D7E2
:100CA0005A6A070E596E09DF01C023F05A6A080E0E
:100CB000596E03DF01C024F05A6A090E596EFDDE39
:100CC00001C02CF011EF13F05D50010A07E0030A98
:100CD00007E0010A08E0070A09E00BD05E6A0BD0C2
:100CE000400E5E6E08D0140E5E6E05D0540E5E6E21
:100CF00002D05E6A00D0010E5C5C5E265E50800908
:100D00005F6E606B616F0BDE12005B500C0A05E0DA
:100D1000060A0DE0020A12E016D0606B010E616F48
:100D2000FEDD010E1B6E020E5C6E9ADD12D01B2AD8
:100D3000010E5C6E1BC05DF0C7DF0BD0606B100E48
:100D4000616FEDDD06D0010E606F5BC061F0E7DD25
:100D500000D012000900F5520CE0F6CF53F0F7CFA7
:100D600054F0F5CF5BF0D1DF53C0F6FF54C0F7FF6E
:100D7000F1D71200196AF2BE198EF29E56C067F0C2
:100D80000A0E686F3FEC02F019BEF28E300E01249D
:100D90005A6E196AF2BE198EF29E56C067F00A0E9C
:100DA000686F3FEC02F019BEF28E300E0024596ECF
:100DB00057C05CF058C05DF087DF5AC05BF0A5DF1C
:100DC00059C05BF0A2DF1200010E5C6E020E5D6E78
:100DD0007BDFE40EF66E000EF76EBCDF1EC056F031
:100DE000070E576E020E586EC5DF3A0E5B6E8DDF32
:100DF0001DC056F00A0E576E020E586EBBDF3A0E3B
:100E00005B6E83DF1CC056F00D0E576E020E586EDF
:100E1000B1DF0F0E5C6E020E5D6E56DFEC0EF66EED
:100E2000000EF76E97DF1200010E5C6E030E5D6E12
:100E30004BDF200E5B6E69DF200E5B6E66DF200EDF
:100E40005B6E63DF1F50010A0DE0030A15E0010A23
:100E50001DE0070A25E0010A2DE0030A35E0010A3A
:100E60003DE046D0430E5B6E50DF4E0E5B6E4DDFB5
:100E7000200E5B6E4ADF3DD0540E5B6E46DF320EB5
:100E80005B6E43DF200E5B6E40DF33D0540E5B6E33
:100E90003CDF330E5B6E39DF200E5B6E36DF29D010
:100EA000540E5B6E32DF340E5B6E2FDF200E5B6EF6
:100EB0002CDF1FD0540E5B6E28DF350E5B6E25DFF6
:100EC000200E5B6E22DF15D0540E5B6E1EDF360ED9
:100ED0005B6E1BDF200E5B6E18DF0BD0540E5B6E5B
:100EE00014DF370E5B6E11DF200E5B6E0EDF01D05C
:100EF00000D020C056F0070E576E030E586E3ADF32
:100F00002D0E5B6E02DF21C056F00A0E576E030EE7
:100F1000586E30DF2D0E5B6EF8DE0D0E5C6E030E2C
:100F20005D6ED2DEDA0EF66E000EF76E13DF22C0B3
:100F300056F00F0E576E030E586E1CDF1200010E96
:100F4000536E53500308D8A09CD02A525EE15350F0
:100F5000040DF350556A546E2F0E5424E96E000EA2
:100F60005520EA6EEF503C0DF3CF56F05350040D70
:100F7000F350586A576E010E5724016E000E582028
:100F8000036E01502F0FE96E000E0320EA6EEF5042
:100F900056265350040DF350586A576E020E5724CC
:100FA000016E000E5820036E01502F0FE96E000EE7
:100FB0000320EA6EEF505624456E466A5350040DE6
:100FC000F350556A546E2F0E5424E96E000E5520CE
:100FD000EA6EEF503C0DF3CF56F05350040DF35032
:100FE000586A576E010E5724016E000E5820036E8A
:100FF00001502F0FE96E000E0320EA6EEF505624C9
:10100000FF0F436E446A53C02BF01E503C0DF3504B
:101010001D24476E486A4850465C2EE303E1455064
:10102000475C2AE24450485C27E303E14750435CB5
:1010300023E22B50040DF350556A546E030E5424D2
:10104000016E000E5520036E01502F0FE96E000E49
:101050000320EA6EEF2C10D0C8EC02F0020E546EA2
:10106000FA0E5C6E30EC04F0542EFAD72A5201E1ED
:1010700077DC010E2A6E03D0CFEC02F02A6A532AE5
:1010800060D79DEF12F0200E5B6E3FDE200E5B6E90
:101090003CDE640E5C6E30EC04F01200196AF2BEA5
:1010A000198EF29E53C067F00A0E686F3FEC02F093
:1010B00019BEF28E0150100DF3CF54F0196AF2BE32
:1010C000198EF29E53C067F00A0E686F3FEC02F073
:1010D00019BEF28E00505424016E12009488000054
:1010E000948600008B98949800008B969496196AC9
:1010F000F2BE198EF29ED00E676F74EC01F019BE2D
:10110000F28E196AF2BE198EF29E54C067F074EC2A
:1011100001F019BEF28E196AF2BE198EF29E55C008
:1011200067F074EC01F019BEF28E9498000094867A
:1011300082A6FED7000000D00000948800009488AA
:101140000000948600008B98949800008B969496EB
:10115000196AF2BE198EF29ED00E676F74EC01F020
:1011600019BEF28E0150569001B0568056A01AD08A
:10117000948800009486000082A6FED78B989498ED
:1011800000008B969496196AF2BE198EF29ED00ECC
:10119000676F74EC01F019BEF28E0150569001B0E9
:1011A0005680E4D7120027523FE0010E5C6E020E1B
:1011B0005D6E8ADDF40EF66E000EF76ECBDD010E6D
:1011C0005C6E030E5D6E80DD0A0EF66E010EF76E2C
:1011D000C1DD010E5C6E040E5D6E76DD200EF66ED6
:1011E000010EF76EB7DD1EC056F0050E576E030EEA
:1011F000586EC0DD360EF66E010EF76EABDD1DC00B
:1012000056F0080E576E030E586EB4DD380EF66EAB
:10121000010EF76E9FDD1CC056F00B0E576E030ECD
:10122000586EA8DD276A286A81B01BD08B80960E85
:101230005C6E30EC04F08B90960E5C6E30EC04F03B
:1012400081A0FED7282A285005080BE1286A010E44
:101250005C6E040E5D6E38DD3A0EF66E010EF76EB2
:1012600079DD285008E0010A3AE0030A6CE0010A3F
:10127000D8B49DD0C6D00B0E5C6E030E5D6E24DD1F
:1012800002DF1CC056F00B0E576E030E586E72DD57
:10129000640E5C6E30EC04F081B40FD08B80960E3F
:1012A0005C6E30EC04F08B90960E5C6E30EC04F0CB
:1012B0001C2A1C503C08D8B41C6A81B20FD08B8009
:1012C000960E5C6E30EC04F08B90960E5C6E30ECFB
:1012D00004F01C061C3C02D03B0E1C6E93D0080E82
:1012E0005C6E030E5D6EF0DCCEDE1DC056F0080EA7
:1012F000576E030E586E3EDD640E5C6E30EC04F0EB
:1013000081B40FD08B80960E5C6E30EC04F08B9025
:10131000960E5C6E30EC04F01D2A1D503C08D8B4CB
:101320001D6A81B20FD08B80960E5C6E30EC04F09B
:101330008B90960E5C6E30EC04F01D061D3C02D0C6
:101340003B0E1D6E5FD0050E5C6E030E5D6EBCDC49
:101350009ADE1EC056F0050E576E030E586E0ADD5B
:10136000640E5C6E30EC04F081B40FD08B80960E6E
:101370005C6E30EC04F08B90960E5C6E30EC04F0FA
:101380001E2A1E501808D8B41E6A81B20FD08B8056
:10139000960E5C6E30EC04F08B90960E5C6E30EC2A
:1013A00004F01E061E3C02D0170E1E6E2BD0010E3E
:1013B0005C6E040E5D6E88DC500EF66E010EF76EEC
:1013C000C9DC040E286E1CC053F068DE01C053F067
:1013D000546A01C055F082DE1DC053F05FDE01C0CB
:1013E00053F0010E546E01C055F078DE1EC053F06C
:1013F00055DE01C053F0020E546E01C055F06EDE92
:1014000001D000D0A3EF12F0275221E0010E5C6E54
:10141000020E5D6E59DC600EF66E010EF76E9ADC00
:10142000010E5C6E030E5D6E4FDC760EF66E010EE5
:10143000F76E90DC010E5C6E040E5D6E45DC8C0E6A
:10144000F66E010EF76E86DCEFDC276A286A81B043
:101450001BD08B80960E5C6E30EC04F08B90960E59
:101460005C6E30EC04F081A0FED7282A28500608D4
:101470000BE1286A010E5C6E040E5D6E25DCA20E87
:10148000F66E010EF76E66DC28500CE0010A3FE0B4
:10149000030AD8B472D0010AD8B4A5D0070AD8B4C8
:1014A000D2D008D10A0E5C6E030E5D6E0DDCEBDD52
:1014B00021C056F00A0E576E030E586E5BDC640EA8
:1014C0005C6E30EC04F081B410D08B80960E5C6EB4
:1014D00030EC04F08B90960E5C6E30EC04F0212A18
:1014E00021500D0802E1010E216E81B20FD08B80D8
:1014F000960E5C6E30EC04F08B90960E5C6E30ECC9
:1015000004F02106215202E10C0E216ED4D0070E08
:101510005C6E030E5D6E64EC06F0B5DD20C056F027
:10152000070E576E030E586E25DC640E5C6E30ECB1
:1015300004F081B410D08B80960E5C6E30EC04F019
:101540008B90960E5C6E30EC04F0202A2050200820
:1015500002E1010E206E81B20FD08B80960E5C6E80
:1015600030EC04F08B90960E5C6E30EC04F02006AC
:10157000205202E11F0E206E9ED00F0E5C6E030EF5
:101580005D6E64EC06F07FDD22C056F00F0E576EE4
:10159000030E586EBAEC06F0640E5C6E30EC04F08C
:1015A00081B40FD08B80960E5C6E30EC04F08B9083
:1015B000960E5C6E30EC04F0222A22506408D8B4F7
:1015C000226A81B20FD08B80960E5C6E30EC04F0F4
:1015D0008B90960E5C6E30EC04F02206223C02D01A
:1015E000630E226E68D0040E5C6E030E5D6E64ECBA
:1015F00006F049DD19DC640E5C6E30EC04F081B459
:1016000010D08B80960E5C6E30EC04F08B90960EB2
:101610005C6E30EC04F01F2A1F50080802E1010E36
:101620001F6E81B20FD08B80960E5C6E30EC04F092
:101630008B90960E5C6E30EC04F01F061F5202E198
:10164000070E1F6E38D0010E5C6E040E5D6E64ECEA
:1016500006F0B60EF66E010EF76EAAEC06F01FC08D
:1016600053F01CDD01C053F0030E546E01C055F061
:1016700035DD20C053F012DD01C053F0040E546E6E
:1016800001C055F02BDD21C053F008DD01C053F03F
:10169000050E546E01C055F021DD22C053F0FEDC72
:1016A00001C053F0060E546E01C055F017DD050E53
:1016B000286E01D000D0A6EF12F00150196AF2BED8
:1016C000198EF29E53C067F0640E686F3FEC02F013
:1016D00019BEF28E00C053F00150300E07E154A243
:1016E0000DD054B60BD054B8200E03D05496549855
:1016F0005480012601C05BF085EC06F0196AF2BE49
:10170000198EF29E53C067F00A0E686F3FEC02F02C
:1017100019BEF28E00C053F00150300E06E154B6EF
:1017200009D054A007D054B8200E012601C05BF0A8
:1017300085EC06F0300E532653C05BF085EC06F0C6
:1017400012000900F6CF54F0F7CF55F0F5CF5BF05B
:1017500085EC06F054C0F6FF55C0F7FF532EF1D7C5
:10176000B0EF0CF094880000948600008B98949859
:1017700000008B9694965B6A570E5A6E010E5A249F
:10178000016E000E5B20036E01C0E9FFEA6EEF38C8
:10179000006E0032070E00160050A009FE0B5A6EB4
:1017A0005D6EDDEC04F05B6A570E5A6E010E5A2432
:1017B000016E000E5B20036E01C0E9FFEA6EEF5080
:1017C0003F0B5A6E5D6EDDEC04F057C05DF0DDEC52
:1017D00004F059C05DF0DDEC04F0949800009486AC
:1017E00082A6FED7000000D00000948800000A0EF8
:1017F0005C6E30EC04F01200275233E0010E5C6E98
:10180000020E5D6E64EC06F07A0EF66E020EF76E56
:10181000AAEC06F0010E5C6E030E5D6E64EC06F041
:10182000900EF66E020EF76EAAEC06F0010E5C6EDC
:10183000040E5D6E64EC06F0A60EF66E020EF76EF8
:10184000AAEC06F02CC02EF00C0E5C6E020E5D6E43
:1018500064EC06F02EC053F01B0E546E2EDF276A88
:10186000286A81B01DD08B80960E5C6E30EC04F03F
:101870008B90960E5C6E30EC04F081A0FED7282A87
:10188000285003080DE1286A010E5C6E030E5D6EA0
:1018900064EC06F0BC0EF66E020EF76EAAEC06F0D3
:1018A000285003E0010A42E082D00C0E5C6E020E6A
:1018B0005D6E64EC06F0200E5B6E85EC06F0640E47
:1018C0005C6E30EC04F00C0E5C6E020E5D6E64EC2F
:1018D00006F02EC053F01B0E546EEFDE640E5C6EED
:1018E00030EC04F081B410D08B80960E5C6E30EC3E
:1018F00004F08B90960E5C6E30EC04F02E2A2E5085
:10190000040802E1010E2E6E81B20FD08B80960E7C
:101910005C6E30EC04F08B90960E5C6E30EC04F054
:101920002E062E5202E1030E2E6E42D0010E5C6E88
:10193000030E5D6E64EC06F0C40EF66E020EF76EDA
:10194000AAEC06F02EC02CF0010E5C6E5D6E64EC0D
:1019500006F0CC0EF66E020EF76E100E536EF1D638
:101960002CC053F01B0E546EA8DE200E5B6E85EC6F
:1019700006F0200E5B6E85EC06F0200E5B6E85ECAB
:1019800006F02C50020801E19D9A2C50020801E05B
:101990009D8A2A2C01D02A6A586A090E576E2CC0DB
:1019A00059F0E0DECFEC02F0020E286E01D000D03C
:1019B000A9EF12F02752D8B4A4D0010E5C6E020E2B
:1019C0005D6E64EC06F0C60EF66E010EF76EAAECC4
:1019D00006F0010E5C6E030E5D6E64EC06F0DC0E2C
:1019E000F66E010EF76EAAEC06F0010E5C6E040EA8
:1019F0005D6E64EC06F0F20EF66E010EF76EAAEC68
:101A000006F0010E296E0F0E5C6E020E5D6E64EC28
:101A100006F029C053F01B0E546E4FDE2950040D02
:101A2000F350546A536E2F0E5324E96E000E542067
:101A3000EA6EEFCF55F055C056F0100E576E030EFC
:101A4000586EBAEC06F02950040DF350546A536EE8
:101A5000010E5324016E000E5420036E01502F0F0F
:101A6000E96E000E0320EA6EEFCF53F053C056F03C
:101A7000130E576E030E586EBAEC06F02950040D83
:101A8000F350546A536E020E5324016E000E54201C
:101A9000036E01502F0FE96E000E0320EA6EEFCFA8
:101AA00053F053C056F0110E576E040E586EBAEC38
:101AB00006F0010E5C6E030E5D6E64EC06F02950BC
:101AC000040DF350546A536E030E5324016E000E3E
:101AD0005420036E01502F0FE96E000E0320EA6EB2
:101AE000EF2C07D0080EF66E020EF76EAAEC06F089
:101AF00006D0100EF66E020EF76EAAEC06F0276AFC
:101B0000286A81B01DD08B80960E5C6E30EC04F09C
:101B10008B90960E5C6E30EC04F081A0FED7282AE4
:101B2000285007080DE1286A010E5C6E040E5D6EF8
:101B300064EC06F0180EF66E020EF76EAAEC06F0D4
:101B4000285012E0010AD8B432D1030AD8B410D216
:101B5000010AD8B493D2070AD8B445D3010AD8B43D
:101B6000A8EF11F030EF12F00F0E5C6E020E5D6EFA
:101B700064EC06F0200E5B6E85EC06F0640E5C6E85
:101B800030EC04F00F0E5C6E020E5D6E64EC06F03D
:101B900029C053F01B0E546E90DD640E5C6E30EC69
:101BA00004F081B481D08B80960E5C6E30EC04F032
:101BB0008B90960E5C6E30EC04F0292A29500408B4
:101BC00002E1010E296E2950040DF350546A536E40
:101BD0002F0E5324E96E000E5420EA6EEFCF55F01D
:101BE00055C056F0100E576E030E586EBAEC06F044
:101BF0002950040DF350546A536E010E5324016EA4
:101C0000000E5420036E01502F0FE96E000E0320CA
:101C1000EA6EEFCF53F053C056F0130E576E030E1B
:101C2000586EBAEC06F02950040DF350546A536E06
:101C3000020E5324016E000E5420036E01502F0F2C
:101C4000E96E000E0320EA6EEFCF53F053C056F05A
:101C5000110E576E040E586EBAEC06F0010E5C6E53
:101C6000030E5D6E64EC06F02950040DF350546AC7
:101C7000536E030E5324016E000E5420036E015068
:101C80002F0FE96E000E0320EA6EEF2C07D0200E16
:101C9000F66E020EF76EAAEC06F006D0280EF66E6F
:101CA000020EF76EAAEC06F081B280D08B80960E01
:101CB0005C6E30EC04F08B90960E5C6E30EC04F0B1
:101CC0002906295202E1030E296E2950040DF35012
:101CD000546A536E2F0E5324E96E000E5420EA6EA0
:101CE000EFCF55F055C056F0100E576E030E586EDC
:101CF000BAEC06F02950040DF350546A536E010EED
:101D00005324016E000E5420036E01502F0FE96E14
:101D1000000E0320EA6EEFCF53F053C056F0130EBF
:101D2000576E030E586EBAEC06F02950040DF350AE
:101D3000546A536E020E5324016E000E5420036E3B
:101D400001502F0FE96E000E0320EA6EEFCF53F023
:101D500053C056F0110E576E040E586EBAEC06F0D2
:101D6000010E5C6E030E5D6E64EC06F02950040DEE
:101D7000F350546A536E030E5324016E000E542028
:101D8000036E01502F0FE96E000E0320EA6EEF2C58
:101D900007D0300EF66E020EF76EAAEC06F006D0F3
:101DA000380EF66E020EF76EAAEC06F05AD3010E4C
:101DB0005C6E030E5D6E64EC06F043EC08F0010E01
:101DC0005C6E030E5D6E64EC06F02950040DF3505A
:101DD000546A536E030E5324016E000E5420036E9A
:101DE00001502F0FE96E000E0320EA6EEF2C07D092
:101DF000400EF66E020EF76EAAEC06F006D0480E04
:101E0000F66E020EF76EAAEC06F0640E5C6E30EC15
:101E100004F081B455D08B80960E5C6E30EC04F0EB
:101E20008B90960E5C6E30EC04F0010E5C6E030E2F
:101E30005D6E64EC06F02950040DF350546A536E45
:101E4000030E5324016E000E5420036E01502F0F19
:101E5000E96E000E0320EA6EEF2C19D0520EF66EDA
:101E6000020EF76EAAEC06F02950040DF350546AE6
:101E7000536E030E5324016E000E5420036E015066
:101E80002F0FE96E000E0320EA6EEF6A19D05A0E8A
:101E9000F66E020EF76EAAEC06F02950040DF35010
:101EA000546A536E030E5324016E000E5420036EC9
:101EB00001502F0FE96E000E0320EA6E010EEF6E47
:101EC00081B255D08B80960E5C6E30EC04F08B9016
:101ED000960E5C6E30EC04F0010E5C6E030E5D6ECF
:101EE00064EC06F02950040DF350546A536E030E4F
:101EF0005324016E000E5420036E01502F0FE96E23
:101F0000000E0320EA6EEF2C19D0620EF66E020E60
:101F1000F76EAAEC06F02950040DF350546A536E84
:101F2000030E5324016E000E5420036E01502F0F38
:101F3000E96E000E0320EA6EEF6A19D06A0EF66EA3
:101F4000020EF76EAAEC06F02950040DF350546A05
:101F5000536E030E5324016E000E5420036E015085
:101F60002F0FE96E000E0320EA6E010EEF6E79D29C
:101F7000100E5C6E030E5D6E64EC06F043EC08F030
:101F80002950040DF350546A536E2F0E5324E96EFA
:101F9000000E5420EA6EEFCF55F055C056F0100EEB
:101FA000576E030E586EBAEC06F0640E5C6E30ECA1
:101FB00004F081B430D08B80960E5C6E30EC04F06F
:101FC0008B90960E5C6E30EC04F02950040DF350AB
:101FD000546A536E2F0E5324E96E000E5420EA6E9D
:101FE000EF2A2950040DF350546A536E2F0E5324D8
:101FF000E96E000E5420EA6EEF5018080CE12950EB
:10200000040DF350546A536E2F0E5324E96E000EE4
:102010005420EA6EEF6A81B230D08B80960E5C6EEF
:1020200030EC04F08B90960E5C6E30EC04F029508E
:10203000040DF350546A536E2F0E5324E96E000EB4
:102040005420EA6EEF062950040DF350546A536E83
:102050002F0E5324E96E000E5420EA6EEF3C0DD093
:102060002950040DF350546A536E2F0E5324E96E19
:10207000000E5420EA6E170EEF6EF3D1130E5C6E55
:10208000030E5D6E64EC06F043EC08F02950040D7D
:10209000F350546A536E010E5324016E000E542007
:1020A000036E01502F0FE96E000E0320EA6EEFCF92
:1020B00053F053C056F0130E576E030E586EBAEC21
:1020C00006F0640E5C6E30EC04F081B444D08B807A
:1020D000960E5C6E30EC04F08B90960E5C6E30ECDD
:1020E00004F02950040DF350546A536E010E53242A
:1020F000016E000E5420036E01502F0FE96E000E8A
:102100000320EA6E050EEF24EF6E2950040DF35004
:10211000546A536E010E5324016E000E5420036E58
:1021200001502F0FE96E000E0320EA6EEF503C08BD
:1021300012E12950040DF350546A536E010E5324DA
:10214000016E000E5420036E01502F0FE96E000E39
:102150000320EA6EEF6A81B245D08B80960E5C6EEA
:1021600030EC04F08B90960E5C6E30EC04F029504D
:10217000040DF350546A536E010E5324016E000E89
:102180005420036E01502F0FE96E000E0320EA6EFB
:10219000050EEF5CEF6E2950040DF350546A536E38
:1021A000010E5324016E000E5420036E01502F0FB8
:1021B000E96E000E0320EA6EEF50FA0813E2295090
:1021C000040DF350546A536E010E5324016E000E39
:1021D0005420036E01502F0FE96E000E0320EA6EAB
:1021E000370EEF6E3ED1110E5C6E040E5D6E64EC28
:1021F00006F043EC08F02950040DF350546A536E76
:10220000020E5324016E000E5420036E01502F0F56
:10221000E96E000E0320EA6EEFCF53F053C056F084
:10222000110E576E040E586EBAEC06F0640E5C6E1A
:1022300030EC04F081B444D08B80960E5C6E30ECB0
:1022400004F08B90960E5C6E30EC04F02950040D77
:10225000F350546A536E020E5324016E000E542044
:10226000036E01502F0FE96E000E0320EA6E050E7B
:10227000EF24EF6E2950040DF350546A536E020E92
:102280005324016E000E5420036E01502F0FE96E8F
:10229000000E0320EA6EEF50410812E12950040DB0
:1022A000F350546A536E020E5324016E000E5420F4
:1022B000036E01502F0FE96E000E0320EA6EEF6AE5
:1022C00081B245D08B80960E5C6E30EC04F08B9022
:1022D000960E5C6E30EC04F02950040DF350546AF5
:1022E000536E020E5324016E000E5420036E0150F3
:1022F0002F0FE96E000E0320EA6E050EEF5CEF6E05
:102300002950040DF350546A536E020E5324016E8B
:10231000000E5420036E01502F0FE96E000E0320B3
:10232000EA6EEF50FA0813E22950040DF350546A94
:10233000536E020E5324016E000E5420036E0150A2
:102340002F0FE96E000E0320EA6E3C0EEF6E89D06F
:102350002950040DF3500A0F536E2950040DF35009
:10236000556A546E2F0E5424E96E000E5520EA6E05
:10237000EFCF56F0586A53C057F056C059F0B2EC40
:102380000BF02950040DF3500A0F010F536E295022
:10239000040DF350556A546E010E5424016E000E64
:1023A0005520036E01502F0FE96E000E0320EA6ED8
:1023B000EFCF54F0586A53C057F054C059F0B2EC04
:1023C0000BF02950040DF3500A0F020F536E2950E1
:1023D000040DF350556A546E020E5424016E000E23
:1023E0005520036E01502F0FE96E000E0320EA6E98
:1023F000EFCF54F0586A53C057F054C059F0B2ECC4
:102400000BF02950040DF3500A0F030F536E29509F
:10241000040DF350556A546E030E5424016E000EE1
:102420005520036E01502F0FE96E000E0320EA6E57
:10243000EFCF54F0586A53C057F054C059F0B2EC83
:102440000BF0010E5C6E040E5D6E64EC06F0720E15
:10245000F66E020EF76EAAEC06F0060E286E01D09C
:1024600000D0AFEF12F081B61CD08B80960E5C6E60
:1024700030EC04F08B90960E5C6E30EC04F0010EA4
:10248000276E5C6E040E5D6E64EC06F0F80EF66E60
:10249000070EF76EAAEC06F02D2A2D500508D8B4C9
:1024A0002D6A2D5009E0010A4CE0030A4DE0010AB3
:1024B0004EE0070A4FE057D02C2C13D0010E5C6E73
:1024C0005D6E64EC06F00E0EF66E080EF76EAAEC6A
:1024D00006F0E4EC06F014EC07F0640E5C6E30ECF1
:1024E00004F02C50020829E1196AF2BE198EF29EFE
:1024F000F9EC01F019BEF28E010E5C6E5D6E64ECBB
:1025000006F0240EF66E080EF76EAAEC06F0E4EC68
:1025100006F014EC07F0010E5C6E040E5D6E64ECC8
:1025200006F03A0EF66E080EF76EAAEC06F0640E90
:102530005C6E30EC04F09FEF07F02C50030800E1D4
:1025400013D0D3EF08F010D004EF0AF00DD0FCEF59
:102550000BF00AD02C50020802E1DAEF0CF02C2C20
:1025600001D02D6A01D000D014EF13F0F86AD09E8C
:10257000078EEA6AE96AB8960C0EAF6EA60EAC6ECC
:10258000900EAB6E010E1F6E276E2A6A2B6A2C6AA4
:102590002E6E000E7E6EC198C19A7F50E00B7F6E4A
:1025A000799A79987A6A7B6A800E496EF30E4A6E40
:1025B000490E4B6E600E4C6E320E4D6E240E4E6EFA
:1025C000040E4F6EF00E506E516A200E526E830E46
:1025D000D56ED76AD66A9290F28A9D8AC00EF212A0
:1025E00028EF04F09490799A7998040E7A6E7B6EB5
:1025F000B0EC04F00A0E5C6E30EC04F0D9EF04F09D
:102600000A0E5C6E30EC04F001EF05F00A0E5C6E11
:1026100030EC04F09298898833EF05F02D6AC3EF0F
:0C26200005F0CFEC02F01FD7FED703003E
:020000040030CA
:0E00000000C2180E008F81000FC00FE00F40ED
:00000001FF
;PIC18F46K20
;CRC=4B25  CREATED="29-Apr-13 01:29"
