:020000040000fa
:080000000002040000000000f2
:020000040000fa
:100400008fd121000e7f22000e0188000000000025
:100410000c00070080612900010020000f00070088
:10042000000020000000e000020032000000020096
:10043000000000008e940200000000000040da007e
:100440000000fe00e06120000000e0000200320039
:10045000002020009001880000000600a102880012
:10046000800078000000eb001a003700e2804000b6
:1004700054a0b4009101ba00e280400054a0b4003e
:100480009102ba00e280400054a0b4000002eb00e8
:10049000472bde00f507b200a6018800602ce100c2
:1004a00008003a000049eb000201e80002003900b0
:1004b0003420ec0002f0a0008301e900f9ff3e00c7
:1004c000040037006128e100010032000082eb00e7
:1004d000040007001101ba000200e000e3ff3a0047
:1004e0000000060004d0a300e20f49001c00390000
:1004f000810278003549ba000201e80002003900a3
:100500003420ec0002f0a0008301e9000f0032006b
:100510002549ba000201e800020039003420ec004d
:1005200002f0a0008301e900080032000400e000ae
:100530000600320015c9ba000201e80002003900c5
:100540003420ec0002f0a0008301e9008180e80083
:1005500054a0b4000300e000e2ff3a0000000600ef
:100560009102ba00055978008301e900f7ff3200d3
:10057000c82ade00055978008301e900f3ff320044
:100580000400e000f1ff320011d9ba00eeff37009d
:100590000040da000000fe0003f0a200889fbe00c9
:1005a0008a9fbe008c1f7800ac000700b3003300a8
:1005b0006450e1004f0032006420e100520032003c
:1005c00003826c0007003b000905d0000306d00041
:1005d000820f54000c065d00020039000200320058
:1005e00089017800030678008582550004003d00eb
:1005f0000003fd008103fd008502ea008b854200b7
:10060000840f720002003b0060001000e0801800c0
:100610006011b8000005eb007a28e1000a003900fb
:1006200006007800c75ddd00f707b200878075001f
:100630002d003700828171000a0178006105600099
:100640008180d1000080d3008502e900f9ff3b00e2
:10065000060440008784480002003b006004140048
:10066000e0841c000988a300070032008a81710021
:1006700082817100610164008904d1000884d30083
:100680008b05e800170037000978a30013003a0033
:100690000b00e000130034008b05e900080444005f
:1006a00089844c000a4474000978a3000d003a00c4
:1006b0000b00e000070034008b05e900080444004b
:1006c00089844c0001003a000b0020000978a30047
:1006d000f7ff32000001eb00020037008281710059
:1006e0000a017800370007000cf0a70001f0a00015
:1006f0006b0037006420e10002003a00838f6c0039
:100700006b0033000801be000200be006400370029
:10071000f4ff2f0069003700889fbe008a9fbe004b
:10072000010578000100e0000400350008003c00ed
:100730000000e000200032000500370060001000db
:10074000e080180002003b0001f02c001a00370086
:100750000004be006011b8006b0920000982cf00c0
:10076000020039000882cf000441b0006942520003
:100770000e00320008003b008281710061016400bc
:100780008904d1000884d3008b05e8000442e80006
:10079000f9ff3a00050037000804440089844c0042
:1007a0008b05e9000442e900fbff3a000500070061
:1007b0000af0a70001f0a0004f05be004f04be00e4
:1007c0000000060081002000618055000b003d0004
:1007d0000b00200061fe2f000100e1001d0034002d
:1007e00082817100610164008904d1000884d30012
:1007f0000000e800faff3a00710020006100640088
:10080000030070000200600009003200610444002f
:10081000e0844c000988a500050032008b05e80043
:100820006808e10002003a008904d1000884d3007e
:10083000f20f20000258e10005003d00c75ddd0019
:10084000f907b200898075000800780000000600f2
:100850000bf827008b007800000005000004be00a4
:10086000310007000003be000405be000200be0008
:100870002d000700844f7500000006000200be0036
:100880006450e100050036006420e10002003600fb
:100890000968a30001003a000800be000160a00042
:1008a0004f0678004f05be004f04be000000060052
:1008b000f0ff2f00f1ff2700f9ff3700889fbe00ef
:1008c0008a9fbe00841f7800e4ff07004f00780075
:1008d00011003300f0ff2f00838f6c0006003b00f7
:1008e000040565000a00a7000800370009f0a6000b
:1008f0001000200008003700820f5400838f5c0036
:10090000030039001000200001003e00000020001c
:1009100009f0a7000000ea004f05be004f04be002a
:100920000000e00000000600c70ade00f107b20088
:10093000f50fb20008003200e1cf420002003200a1
:100940000170a00024000500810f7000010032003a
:100950000408050044000500810f700002003a0001
:10096000140005008502e9000000400081c0480035
:10097000fcff3b000170a000240005000400fa0009
:10098000e0bf9f00e4815700812978000002eb005e
:100990000f0037006fb89700904078007fb897003d
:1009a000104078000402e80080cf500004003200bc
:1009b0008180fb000080fb000080500007003700b2
:1009c0006fb897000000e800e0bf9f009309e800bf
:1009d000820f5200efff3a000000eb000080fa00a7
:1009e000000006008001eb000200370061f0790092
:1009f0008301e800828f5100fcff3a0000000600ee
:100a0000889fbe008a9fbe008c9fbe0000017800b8
:100a1000619221001100e0000b003a00a092210039
:100a200030c9880010c9880051c9880021c98800d0
:100a3000214090000004a000a04098006140900078
:100a40000004a000e0409800e7004100c208de007a
:100a5000c20cdd0024c980000d93210080d121004b
:100a60000d05500022002000811f780011000900b0
:100a70000205d80000067800cf007800c308dd002a
:100a8000e48540008001eb0006932100659221007f
:100a90000100370001027800244090000008a30004
:100aa000020032000a003700110a78009400780032
:100ab000214090000008a300fbff32000901420022
:100ac000828f500002003900840f5100460031002f
:100ad00094007800848f5000eeff3e00868f500017
:100ae00002003900858f5000eaff390010c98000ec
:100af000800f52004f003a00858f50004d003a00a1
:100b00008301e800e18f5100e2ff36008c8f540032
:100b1000040036008a8f5400020031000b04780074
:100b200012003700614ab8006151b900b0ff2f00d0
:100b3000010020000200500083805800800f520006
:100b4000818f5a0002003500090478000700370041
:100b50000d805400b2d121000200400011000900b4
:100b60000a80d8000a80b9000004780008007800e4
:100b70006800070080017800e10f40002d0032007e
:100b800010c980000308780012c980006400410089
:100b9000a2409000808f5100020032000104a000aa
:100ba000010037000104a1002141980008804100a4
:100bb000640050008009780010c98800629221000a
:100bc0000208780011c98000214090000004a000b4
:100bd000a0409800234090000004a100a04198008c
:100be00002027800a7ff370022c98800828f5000d8
:100bf000090036009200780000922100a241900086
:100c000003487800f1c88800140978008040eb00a0
:100c100020c980002140980020c98000000a780087
:100c2000244090000004a00020429800640042008c
:100c3000010037000000eb004f06be004f05be006c
:100c40004f04be00000006006400500020c9880068
:100c5000a04090000104a10021409800000006007f
:100c6000889fbe008a9fbe0000057800e401500006
:100c700013001000c285de00234090000008a3008e
:100c80000400320023c98800234090000004a10022
:100c9000a04198000100780059ff07000004780087
:100ca0000000e000170032008a0f500015003200eb
:100cb00060b8970008005000c284de00898f55009c
:100cc00001003600890578004259dd008a0078006d
:100cd0000800780043ff07008a0f54000900310024
:100ce0004248dd00000044008a0f50000500360035
:100cf0000a00500000004400f2c8800003c98000d0
:100d00000288be00080078004f05be004f04be00f8
:100d100000000600889fbe008004780070c9800033
:100d20000000e00003003a00100007000000e000af
:100d30000a00350070c980000900e00002003a0096
:100d40000004780006003700000478000900400025
:100d5000060007000000e00001003d000084eb00f9
:100d6000080078004f04be000000060080007800f4
:100d70000000e00004003a000093210070c98800e0
:100d800001017800060037000081eb0080d12100ce
:100d9000808f500002003e0071c988000001eb0006
:080da0000200780000000600cb
:020000040000fa
:020000040002f8
:04aff400ffff00005b
:020000040000fa
:020000040002f8
:04aff8002ef800002f
:020000040000fa
:020000040002f8
:04affc00d93f000039
:020000040000fa
:10000800c8020000c8020000c8020000c8020000c0
:10001800c8020000c8020000c8020000c8020000b0
:10002800c8020000c8020000c8020000c8020000a0
:10003800c8020000c8020000c8020000c802000090
:10004800c8020000c8020000c8020000c802000080
:10005800c8020000c8020000c8020000c802000070
:10006800c8020000c8020000c8020000c802000060
:100078007ea10000c8020000c8020000c8020000fb
:10008800c8020000c8020000c8020000c802000040
:10009800c8020000c802000082950000c8020000e3
:1000a800c8020000c8020000c8020000c802000020
:1000b800c8020000c8020000c8020000c802000010
:1000c800c8020000c8020000c8020000c802000000
:1000d800c8020000c8020000c8020000c8020000f0
:1000e800c8020000c8020000c8020000c8020000e0
:1000f800c8020000c8020000c8020000c8020000d0
:10010800c8020000c8020000c8020000c8020000bf
:10011800c8020000c8020000c8020000c8020000af
:10012800c8020000c8020000c8020000c80200009f
:10013800c8020000c8020000c8020000c80200008f
:10014800c8020000c8020000c8020000c80200007f
:10015800c8020000c8020000c8020000c80200006f
:10016800c8020000c8020000c8020000c80200005f
:10017800c8020000c8020000c8020000c80200004f
:10018800c8020000c8020000c8020000c80200003f
:10019800c8020000c8020000c8020000c80200002f
:1001a800c8020000c8020000c8020000c80200001f
:1001b800c8020000c8020000c8020000c80200000f
:1001c800c8020000c8020000c8020000c8020000ff
:1001d800c8020000c8020000c8020000c8020000ef
:1001e800c8020000c8020000c8020000c8020000df
:0801f800c8020000c80200006b
:020000040000fa
:10020800c8020000c8020000c8020000c8020000be
:10021800c8020000c8020000c8020000c8020000ae
:10022800c8020000c8020000c8020000c80200009e
:10023800c8020000c8020000c8020000c80200008e
:10024800c8020000c8020000c8020000c80200007e
:10025800c8020000c8020000c8020000c80200006e
:10026800c8020000c8020000c8020000c80200005e
:100278007ea10000c8020000c8020000c8020000f9
:10028800c8020000c8020000c8020000c80200003e
:10029800c8020000c802000082950000c8020000e1
:1002a800c8020000c8020000c8020000c80200001e
:1002b800c8020000c8020000c8020000c80200000e
:1002c800c8020000c8020000c8020000c8020000fe
:1002d800c8020000c8020000c8020000c8020000ee
:1002e800c8020000c8020000c8020000c8020000de
:1002f800c8020000c8020000c8020000c8020000ce
:10030800c8020000c8020000c8020000c8020000bd
:10031800c8020000c8020000c8020000c8020000ad
:10032800c8020000c8020000c8020000c80200009d
:10033800c8020000c8020000c8020000c80200008d
:10034800c8020000c8020000c8020000c80200007d
:10035800c8020000c8020000c8020000c80200006d
:10036800c8020000c8020000c8020000c80200005d
:10037800c8020000c8020000c8020000c80200004d
:10038800c8020000c8020000c8020000c80200003d
:10039800c8020000c8020000c8020000c80200002d
:1003a800c8020000c8020000c8020000c80200001d
:1003b800c8020000c8020000c8020000c80200000d
:1003c800c8020000c8020000c8020000c8020000fd
:1003d800c8020000c8020000c8020000c8020000ed
:1003e800c8020000c8020000c8020000c8020000dd
:0803f800c8020000c802000069
:020000040000fa
:100da800526f000075740000652000005265000055
:100db800706c0000792000004f4b00000d0a000005
:100dc80000200000526f00007574000065200000cc
:100dd80052650000706c0000792000004661000038
:100de800696c0000656400000d0a0000004e0000f8
:100df800756d000062650000722000006f660000db
:100e0800205a000069670000626500006520000044
:100e18006e650000747700006f7200006b200000a0
:100e280068610000766500002062000065650000ca
:100e38006e200000666900006e6400003a20000021
:100e4800000d00000a0000005072000065700000ec
:100e580061720000652000006a6f0000696e000082
:100e6800207400006f2000006e6500007477000099
:100e78006f7200006b3a000020300000780000001c
:100e88004e6f000074200000666f0000756e000051
:100e9800642000006465000073690000726500004a
:100ea800206e000065740000776f0000726b000010
:100eb800203000007831000041410000410d000061
:100ec8000a000000466f0000756e000064200000f4
:100ed800646500007369000072650000206e000000
:100ee80065740000776f0000726b0000203000000e
:100ef8007831000041410000410d00000a00000067
:100f08004e650000747700006f7200006b280000c7
:100f180073290000206600006f7500006e640000f1
:100f28002e20000054720000796900006e670000ee
:100f3800207400006f2000006a6f0000696e0000d6
:100f480020000000207c0000200000004e6f000000
:100f5800206e000065740000776f0000726b00005f
:100f680073200000666f0000756e0000642e00009c
:100f78002054000072790000696e000067200000ac
:100f880061670000616900006e2100000d0a000021
:100f98000020000045720000726f000072200000ff
:100fa800666900006e640000696e0000672000003a
:100fb8006e650000747700006f7200006b2e0000f1
:100fc8002054000072790000696e0000672000005c
:100fd80061670000616900006e2e00002e2e00007f
:100fe8000d0a0000004a00006f6900006e20000032
:100ff800746f00002074000068690000732000000e
:101008006e650000747700006f7200006b200000ae
:101018004f4b0000210d00000a000000537400002f
:101028006174000075730000200000002e2000008d
:10103800436f0000756c0000642000006e6f0000b4
:10104800742000006a6f0000696e000020610000d3
:10105800732000006f72000070680000616e00006d
:101068002e2000000054000072790000696e000014
:10107800672000006a6f0000696e000020610000b0
:10108800732000006f72000070680000616e00003d
:101098002061000067610000696e0000210d0000fa
:1010a8000a0000004d75000073740000206e0000f7
:1010b8006f77000020740000727900002061000042
:1010c80073200000612000006e650000772000009a
:1010d8006e6f0000646500002e2e00002e0d0000cb
:1010e8000a0000002e200000436f0000756c00000d
:1010f800642000006e6f0000742000006a6f00001a
:10110800696e000020730000656c000065630000d4
:1011180074650000642000006e65000074770000ac
:101128006f7200006b3a0000200000002e200000c3
:1011380054720000796900006e670000206e00009c
:101148006578000074200000646900007363000083
:101158006f7600006572000065640000206e000074
:1011680065740000776f0000726b00003a20000081
:10117800002e0000204300006c650000616e000036
:10118800696e000067200000757000002061000093
:101198006e6400002072000065740000727900001f
:1011a800696e000067200000646900007363000036
:1011b8006f76000065720000792100000d0a0000ba
:1011c800005200006f750000746500007220000076
:1011d800537400006172000074650000642100000f
:1011e800204500006e610000626c0000696e00001e
:1011f800672000006a6f0000696e0000732e00000f
:101208002e2e00000d0a0000005200006f7500002d
:1012180074650000722000007374000061720000a1
:101228007420000046610000696c000065640000dd
:101238003a0000002e2000005765000020630000df
:10124800616e00006e6f000074200000726f000075
:10125800757400006520000066720000616d000072
:10126800657300000d0a000000430000757200005d
:10127800726500006e740000204e00006574000066
:10128800776f0000726b000020410000646400006a
:10129800726500007373000020690000733a000053
:1012a800200000004e650000747700006f72000097
:1012b8006b20000041640000647200006573000048
:1012c8007320000068610000732000006a75000048
:1012d8007374000020720000652d00006173000027
:1012e80073690000676e00006564000020690000f3
:1012f80073200000307800003030000030310000ea
:101308000d0a0000004a00006f6900006e2000000e
:1013180070650000726d0000697300007369000059
:101328006f6e000020460000616900006c650000d7
:10133800643a0000200000002e20000057650000dd
:1013480020630000616e00006e6f000074200000d2
:10135800616c00006c6f0000772000006a6f00006d
:10136800696e0000730d00000a0000004e6f000057
:101378006465000020000000205700006974000028
:10138800682000004d410000432000004164000037
:1013980064720000657300007320000000200000e4
:1013a8006a75000073740000206a00006f6900000d
:1013b8006e650000642e00000d0a00000057000052
:1013c800652000006861000076650000206c000060
:1013d8006566000074200000746800006520000045
:1013e8006e650000747700006f7200006b0d0000de
:1013f8000a000000416e00006f740000686500007c
:10140800722000006e6f0000646500002068000014
:1014180061730000206c0000656600007420000005
:1014280074680000652000006e6500007477000095
:101438006f7200006b0d00000a0000005a6900007e
:1014480067420000656500002053000074610000d9
:10145800636b0000206800006173000020620000d8
:10146800656500006e20000072650000736500006d
:10147800740d00000a000000204c000065610000a7
:10148800766900006e67000020740000686500003f
:10149800205a0000696700006265000065200000ae
:1014a8006e650000747700006f7200006b0d00001d
:1014b8000a000000235600004c3a000000230000f8
:1014c800574300003a000000235300004e3a000042
:1014d800002300004a4e00003a000000235200009a
:1014e800443a000000230000414400003a00000094
:1014f80023520000433a0000000a00005061000037
:10150800636b0000657400002065000072720000c3
:101518006f7200003a0000000a000000234f00002c
:101528004b3a000000230000545200003a0000002b
:1015380023530000433a0000004e00006f6e000085
:101548006520000073750000707000006f72000065
:10155800742100000d0a0000002000004572000000
:10156800726f000072200000736500006e64000056
:10157800696e0000672000006d650000737300004d
:1015880061670000650d00000a0000005365000057
:101598006e640000696e0000672000006d65000041
:1015a8007373000061670000652000004f4b000066
:1015b800210d00000a00000050650000726600005e
:1015c8006f7200006d200000477200006f75000008
:1015d800702000004f700000657200006174000008
:1015e800696f00006e0d00000a00000054720000d0
:1015f800796900006e670000207400006f20000009
:101608006a6f0000696e0000206e000065740000bb
:10161800776f0000726b00002061000073200000eb
:10162800616e0000206f00007270000068610000a9
:101638006e2e00002e2e00000d0a0000005400003f
:1016480072790000696e000067200000746f000066
:10165800206a00006f6900006e2000006e650000bf
:10166800747700006f7200006b2000006173000047
:1016780020610000206e00006577000020640000f3
:101688006576000069630000652100000d0a00000e
:1016980000420000726f0000616400006361000096
:1016a80073740000206d000065730000736500000e
:1016b8006167000065210000212100000a00000088
:1016c800205500006e680000616e0000646c000028
:1016d8006564000020700000726900006d690000f8
:1016e80074690000766500000d0a000000520000d1
:1016f80026440000205a0000696700004265000087
:10170800652d0000526f00007574000065720000be
:10171800204500004d4200002062000079200000b2
:1017280057530000414e00002d4c0000616200003c
:1017380034310000310d00000a000000547200002e
:10174800616e000073630000656900007665000043
:10175800722d00004d52000046320000344a00004d
:10176800343000000d0a00000000000002010000f3
:101778000f0f0000000500000080000010060000a8
:10178800000000000000000000000000000a000047
:10179800000000000100000002000000030000003b
:1017a8000400000005000000060000002000000002
:1017b80021000000220000000a0000000080000054
:1017c8000180000002800000038000000480000007
:1017d80005800000068000002080000021800000b5
:1017e80022800000f000000003010000ffff00005d
:1017f80000040000220000000900000007000000ab
:101808001900000020000000000000000000000097
:1018180000000000000000000000000006000000ba
:1018280005000000060000000a0000001a00000081
:101838000800000021000000000000000000000077
:101848000000000000000000000000000000000090
:101858000000000000000000000000000000000080
:101868000000000000000000000000000000000070
:101878000000000000000000000000000000000060
:101888000000000000000000000000000000000050
:101898000000000000000000000000000000000040
:1018a80000000000000000000000000010c100005f
:1018b80000400000ce000000000000007f00000093
:1018c8000000000000000000780000000000000098
:1018d800b4000000000000002c010000000000001f
:1018e8001c02000000000000fc03000000000000d3
:1018f800bc070000000000003c0f000000000000d2
:101908003c1e0000000000003c3c000000000000fd
:101918003c780000000000003cf0000000000000df
:101928003ce00000010000003cc000000300000093
:101938003c800000070000003c0000000f00000091
:101948004e4c00004d4500005f4a00004f49000022
:101958004e5f0000696e000064690000636100006a
:10196800746900006f6e00005f31000021210000e3
:10197800210a0000004e00004c4d0000455f0000a9
:101988004a4f0000494e00005f6900006e64000085
:101998006963000061740000696f00006e5f0000f9
:1019a80032210000212100000a000000303100002f
:1019b8003233000034350000363700003839000073
:1019c8004142000043440000454600003100000049
:0c19d8000002000000a30000040000005a
:020000040000fa
:1019e4008000eb0020b88000f007b2000100320054
:1019f400110020000100780000000600881f780014
:101a04002eb5a9009638ef009838ef00c0c38000c7
:101a1400a0c388000044eb00a0c3800022c1b3002f
:101a2400a18821008d4b07000844e8002001200014
:101a34007438b400f94f5400f7ff3a007c78ef0093
:101a4400080078007df8b7008678ef008778ef000b
:101a54008818a900c0532a00d0c38800b0c38000ee
:101a640002c1b300a18721007c4b07004f0478001a
:101a740000000600889fbe008a9fbe008c1f78006d
:101a840000057800010678008205780060c38000b4
:101a940050c388008044eb000944780051c380009f
:101aa40062c0b300e08621002e4b070070c38000a3
:101ab4008a0f5000100032000844e8006000200043
:101ac4006a38b400ef4f54000e003e000904e000f1
:101ad400f2ff320090c38000000e780070d8bf007f
:101ae400804d78000980fb004f0678004f05be004a
:101af4004f04be000000060019c0b300ef4f5400ad
:101b0400f2ff36000904e000f2ff3a0030c0b300ef
:101b1400804d78000000eb004f0678004f05be00b2
:101b24004f04be0000000600f3ff37006657ec00c8
:101b340066f7b70002003a0010c0b30066f7b700ba
:101b44000080fb0000000600b2d5bf008000eb005f
:101b5400050032000040e900b2f5b700a0ad8000f6
:101b6400b080fb00a0ad88000100780000000600f2
:101b7400889fbe008a1f78000004eb000080fb00f1
:101b840000004000640540007240b9007818b400b9
:101b9400a0c3880022c1b30080007800a08821007f
:101ba400f04a070091c48000d0ad8000808f5000bf
:101bb400060032000804e800f90f5400f2ff3a006e
:101bc4004f0578004f04be0000000600407021005d
:101bd4006a0078008880fb00f68040008080400026
:101be400114090000004a100904098004f05780037
:101bf4004f04be0000000600f4ff3700889fbe00bb
:101c04008a9fbe0000437800830578000044eb00ff
:101c1400856e2100076f2100950178000300e00024
:101c2400190032000604e00003003200634890000b
:101c3400814f5000110032008582e800858f5300e7
:101c4400f5ff3a0009c1b3000404e00001003500c7
:101c540089c0b3000804e0000400320060c38000bf
:101c640050c388000904e0000c003a000000eb00b7
:101c74004f05be004f04be00000006004300900064
:101c8400820f5000ecff3a0018c0b3008582e800d0
:101c9400858f5300e0ff3a00eaff37000045eb0070
:101ca4000a44780051c3800062c0b300e08621007a
:101cb400ac4a070070c380008b0f50000d00320047
:101cc40080c38000e30f50000a0032000844e8009b
:101cd400600020006a38b40088cf5400f1ff3a0055
:101ce4000a80fb004f05be004f04be000000060042
:101cf400e2ff37001ac0b3000844e8006000200087
:101d04006a38b40088cf5400e6ff3a00f4ff370085
:101d1400889fbe008a1f780000057800c0c3800039
:101d2400a0c388000004eb00a1c3800022c1b3005b
:101d3400a08821008b4a07009938ab0009003a00bb
:101d4400200120007438b4000804e800f90f54009e
:101d5400f5ff3a00080078004f0578004f04be00f4
:101d64000000060090c480008a0f5000f4ff3a007f
:101d74000880fb004f0578004f04be0000000600f9
:101d8400f8ff3700800178002e15a80022c0b300a8
:101d940002007800b8f5b70080c28000b0ad8800ba
:101da40094c28000d4ad88000001fd00b9f5b700ed
:101db4000001fd0050ae880013ae88004cd8bf006f
:101dc40080487800ccf5b700b575ef00e18f41008d
:101dd40008003200b515a80003007800ccff070006
:101de400f94f5000030032009918ab0001003a008b
:101df400b555a80010c0b300b4f5b7000000060044
:101e04000200fa00889fbe008a9fbe008005780009
:101e140002047800e4cf5000120032000180fb007d
:101e240000004000816e2100608078002050900006
:101e340062c0b3000440bc0061c380008100410063
:101e440051c3880062c0b300e0862100454a070000
:101e54007038ef0050c3800062c0b300e1862100f7
:101e64007e4a070011532100914078000181fb0054
:101e74002953210020c0b30000f17c000140e80098
:101e840031f5b7000080fb001841900002f07c009f
:101e940001c0e80031f5b7000080fb002841900044
:101ea40002f07c0063c040000080fb000bf07c006b
:101eb40064c04000485dde000080fb000af07c0046
:101ec40065c0400031f5b7000080fb004841900038
:101ed40002f07c0066c0400031f5b7000080fb00d2
:101ee4005841900002f07c0067c0400031f5b70013
:101ef4000080fb006844900008f07c00e8c04000cb
:101f04008000fd0031f5b7008000fd00085321007a
:101f14001844780005ff07008880fb0080f07c00ef
:101f24000840e9000080fb00a1c0b30001f07c0080
:101f340008c0e9000080fb003185210011f07c001d
:101f4400634054000080fb002185210011f07c00d7
:101f5400644054000080fb000af07c00654054009b
:101f64000080fb000bf07c00664054000080fb0006
:101f74008040eb0001f07c00674054000080fb00cf
:101f840091c0b30001f07c0068445400080078005c
:101f940030f5b700d0ad8000ea80570079ff070024
:101fa4004f05be004f04be000080fa00000006008a
:101fb4000400fa00889fbe008a9fbe008c1f780030
:101fc40080057800010578000206780061c380006e
:101fd40051c3880062c0b300e0862100e1490700d4
:101fe4000044eb0070c380008b0f50001b003200d4
:101ff4000844e80051c38000e680400051c38800d3
:1020040062c0b300e0862100d6490700f04f5400b7
:10201400f4ff3a0061c3800051c3880062c0b3007a
:10202400e0862100cf4907000044eb0080c3800014
:10203400e30f5000090032000844e80051c3800057
:10204400e680400051c3880062c0b300e0862100ee
:10205400c4490700f04f5400f4ff3a00084e7800da
:102064000000eb00886e21000801780080407800b1
:10207400800478001200e000060032008140e8008d
:102084000900e8000281e800e40f5000f7ff3a007d
:102094008184fb00014d780040c1b3001c4d070052
:1020a400800078000980440008054000010d780094
:1020b4000100e0001d0032007bc3880019002000ed
:1020c40089c3880050c3800062c0b300e186210048
:1020d400e24907009a00780000c0eb0080509800a5
:1020e4001a0478006e805700fa4c07001fb8970056
:1020f400afb89700008cbe001a0078001c46780028
:102104002c5098009a0078000000eb00e000980042
:102114000437a800090078004f0678004f05be0078
:102124004f04be000080fa000000060001007800a1
:102134004f0678004f05be004f04be000080fa0031
:1021440000000600f9ff37000400fa00889fbe0073
:102154008a9fbe008c1f7800000678000000eb0008
:102164008170210080447800000478001100e000b0
:10217400080032008944e8000800e8008180e80093
:10218400e70f5000f7ff3a00e7cf54002f0032006a
:102194000984fb0000c3b300dd4c07008800440041
:1021a400e48540004a70210080357d000000e00095
:1021b40026003200094e7800eb007d0000c0eb00e1
:1021c400c04898006b047d006e805700c14c070026
:1021d4001fb89700afb8970070049800010c9800de
:1021e400100c9800210c9800eb007d003108900041
:1021f4000050a100b00898006b017d0032089000e7
:1022040001ff2f00010060000010a00030099800b9
:102214000001eb008b00780033c0b30061007d0047
:1022240002004000735098000201e800f90f5100c9
:10223400faff3a00100020004f0678004f05be0058
:102244004f04be000080fa00000006000000eb000e
:102254004f0678004f05be004f04be000080fa0010
:1022640000000600f9ff37001d59e20005003a009e
:102274003818ab0019003a000040eb000080fb0066
:10228400000006006088210031c1b30090cf100027
:10229400030036000040eb000080fb000000060055
:1022a400b235ab0018003200e087210041c0b30012
:1022b40090cf1000f7ff3e007088210051c0b3009a
:1022c40090cf1000f3ff3e000597ab00f1ff3a00fa
:1022d40010c0b3000080fb000000060060882100ed
:1022e40031c1b30090cf1000e3ff3e00b235ab0024
:1022f40009003a000577ab0007003a0010c0b300ac
:102304000080fb00000006000577ab00e6ff3a0002
:1023140010c0b300efff3700e087210041c0b300d5
:1023240090cf1000d4ff3e007088210051c0b3004c
:1023340090cf1000d0ff3e000597ab00efff3200b6
:102344000040eb00cdff3700889fbe00c0c3800073
:10235400a0c388000004eb00a1c3800022c1b30025
:10236400a0882100ff4807009938ab00080032001c
:10237400200120007438b4000804e800f90f540068
:10238400f5ff3a00080078004f04be000000060084
:102394000880fb004f04be0000000600fcff37006d
:1023a400d1082000e24f5000080032000900360036
:1023b40051012000e34f50000400320011002000be
:1023c400e44f5000010032008000eb00010078006f
:1023d40000000600d14321000004e000fbff3200ae
:1023e400e14f5000f8ff3a00d0352000000006000d
:1023f400f8ff3700889fbe000004be000204e0001e
:102404000a003200810f5000030039000000eb0085
:102414004f04be00000006000240e900e0ff070090
:1024240000004400808f5400f8ff310010002000a9
:102434004f04be0000000600f7ff3700889fbe006f
:102444008a9fbe000005be00c0c38000a0c38800f0
:102454008044eb00a1c3800022c1b300a088210006
:10246400c0480700c0c48000002cb2000124200032
:10247400810f500012003200200120007438b40093
:102484008944e800f9cf5400f2ff3a00e2872100c2
:102494001241780090c280008a007800d5ff0700be
:1024a4000004e00016003a0050c28000800d78005d
:1024b400100020004f05be004f04be0000000600bf
:1024c40098c48000880f5500070032007e58ec0045
:1024d400004178008a00780008007800c5ff0700f2
:1024e4000004e000e4ff3200880d780010002000b2
:1024f4004f05be004f04be0000000600f0ff370089
:102504000000eb004f05be004f04be0000000600b3
:10251400ebff37000004e0001f0032003978ef00c1
:1025240010c2b3003af8b700e18721009140780067
:102534004309dd00020078003bf8b7006088210001
:1025440033c1b30090cf110013003e00c0872100b7
:1025540083c1b30090cf11000f003e0023b8800068
:1025640003b8a3000d003a00e4cf50000a003e0077
:102574000274a000020078003bf8b70070882100c4
:1025840051c0b30090cf100003003e0003c8a30065
:1025940001003a003b58a80000000600e4cf5000b8
:1025a400f6ff360000000600c1c480000101780077
:1025b400020cb20000042000800f51001000320011
:1025c4000200e00002003a0090c1b3007df8b700b9
:1025d4009938a9009638ef009838ef00a0c380001e
:1025e40022c1b300a18821009c4807007c78ed003b
:1025f400b0c3800002c1b300a1872100974837000f
:102604008678ed000103b200f08f50000f00320015
:1026140010c0b300bfff07009938a9009638ef0037
:102624009838ef00a0c3800022c1b300a188210024
:102634008a4807007c78ed00b0c3800002c1b30073
:10264400a187210085483700edff37008778ed002a
:1026540010c0b300afff0700efff3700a0882100d0
:10266400a15b2100070009003158780084c2800072
:10267400a4c488009af8ef0091ad80000118a3006b
:102684001d003a009898a90098b8a80010c48000ca
:1026940090c488000000e80010c48800e20f4000e5
:1026a40039003200c508dd000110b200c0c480004a
:1026b4000080a10001007000c0c4880098d8a80060
:1026c40098f8a9009938a800a0c3800022c1b300db
:1026d400a1882100614807008678ec007c78ec0032
:1026e400b0c3800002c1b300a18721005b4807008a
:1026f40010c0b30087ff37009898a80098b8a900c5
:1027040020c4800090c488008778ec0002c4800054
:102714000200400020c488006611b90094c2800001
:1027240004014100820f5000deff36000597a80027
:10273400c508dd000110b200c0c480000080a10003
:1027440001007000c0c4880098d8a80098f8a900b7
:102754009938a800a0c3800022c1b300a188210039
:102764003e4807008678ec007c78ec00b0c380001b
:1027740002c1b300a18721003848070010c0b3008c
:1027840064ff3700dcff37000577a800c508dd00cb
:102794000110b200c0c480000080a10001007000dc
:1027a400c0c4880098d8a80098f8a9009938a8004f
:1027b400a0c3800022c1b300a188210027480700dc
:1027c4008678ec007c78ec00b0c3800002c1b300d2
:1027d400a18721002148070010c0b3004dff370036
:1027e400c5ff3700889fbe008a9fbe000005be005b
:1027f400c0c38000a0c388000004eb00a1c3800014
:1028040022c1b300a0882100d64707009938ab0045
:1028140009003a00200120007438b4000804e800dc
:10282400f90f5400f5ff3a00080078004f05be0088
:102834004f04be000000060090c480008a0f5000c0
:10284400f4ff3a00a0c480008b0f5000f1ff3a005f
:102854000880fb004f05be004f04be0000000600c8
:10286400f5ff3700ec874700889fbe008a9fbe00b3
:102874008c9fbe008e1f78008044780081457800cc
:102884000000eb00c2712100804078000004780051
:102894001200e000080032008140e8000800e8006f
:1028a4000281e800e60f5000f7ff3a00e6cf50003f
:1028b400920032000184fb00c0c0b300144b070037
:1028c4008000780008064400780446004a7021001d
:1028d40000347d000000e000880032000904e000bc
:1028e40024003a00c0ff2f00b435b400d2ad8000fc
:1028f400a2009800e8007d00b415ed00a0ad8800aa
:1029040010407800f0409800e8007d00b415ed0018
:10291400a0ad880010407800e0409800b4b5ed0008
:10292400b2d5bf0068404000b2f5b700e8007d00b2
:10293400a040980068007d0020409000f44a070001
:10294400800478000000e00074003a0068007d0014
:10295400f14a070009347d00400020004f07780049
:102964004f06be004f05be004f04be00cf00b100ad
:102974000000060090c28000a000980068007d005e
:1029840011ae80003100980068017d0030d5bf0091
:102994003155b50071c8b300014040002041980092
:1029a40068007d0020409000d94a07008004780028
:1029b4000000e000e5ff320068007d0009087800af
:1029c4004658dd000034a000804c7800b3d5bf0029
:1029d4000040400090449800225c2100124178009d
:1029e400a2449800c3d5bf00b044980021852100bb
:1029f40091407800c144980032852100124178004a
:102a0400d2449800ab5b21009b457800eb449800ce
:102a1400ccd5bf00f04498006881440030d5bf0095
:102a2400e1c7b300814f500008003e00235321004a
:102a34000040e80030f5b7000080fb0060d9790061
:102a440030d5bf00814f5000f9ff36003155ed00fd
:102a540031f5b700e14f40000900320082007800f0
:102a64002353210002c050000080fb00e0d879000d
:102a74003155ed0031f5b700e14f4000f9ff3a0060
:102a8400f80446004c70210069047d0076805700ec
:102a9400904a07005fb09700efb097004004980099
:102aa4005104980069007d0030009000788157003f
:102ab400f78057003efd07000004e00038003a00ac
:102ac40069007d0010007800934a070069007d00ca
:102ad400914a07000000eb0080347d004000200094
:102ae4004f0778004f06be004f05be004f04be00de
:102af400cf00b100000006009eff37004000200018
:102b04004f0778004f06be004f05be004f04be00bd
:102b1400cf00b1000000060096ff370068007d007a
:102b24000908780008fc0700f043b200c658dd002d
:102b340080cc700004fc07009044980002fc07005d
:102b4400a044980000fc0700b0449800fefb070076
:102b5400c0449800fcfb0700d0449800fafb07002f
:102b64008045e900eb449800f7fb0700f044980027
:102b740068844400b255e200c1ff3200f2fb070052
:102b8400005c7800b255e200bdff3200eefb0700a6
:102b9400005c7800b255e200f8ff3a00b8ff370055
:102ba4002e15a900f0c7b30030f5b7000047eb00bd
:102bb4000e00780031f5b7001fe897000080fb0095
:102bc400000040008d6e210060847e00e0c0b300f0
:102bd4004f4a070000057800600498000000e000f8
:102be4001d003a001000200080c3880050c38000fc
:102bf40062c0b300e1862100184707001fe8970070
:102c04000080fb000000400060807e00424a070014
:102c14001fe897000080fb00000040000ab07e001f
:102c240069007e00100078003b4a070069007e00be
:102c3400394a07008a347e00400020004f0778009c
:102c44004f06be004f05be004f04be00cf00b100ca
:102c54000000060047ff37001fe897000080fb00d4
:102c64000000400060807e00b17121009140780036
:102c7400614898001fe897000080fb0000004000b6
:102c84000d0040009000780092c28000c2009800bd
:102c9400100078007e4898001fe897000080fb0031
:102ca400000040000d00400090017800930890005f
:102cb400f28f2f008280600001a0a000910998008b
:102cc400900078001108900000b0a10090089800ce
:102cd40010c0b300004d780000c8b3001045980040
:102ce4001bd7bf00204598000040e8001bf7b70041
:102cf40069007e00604090003045980069007e00c5
:102d040070409000404598005e45980087fb07009e
:102d1400604598007b45980053d8bf00004d98004b
:102d24002185210091407800114d980000c0eb00ee
:102d3400204d9800c0cfb300304d98004e4d980000
:102d440090c0b300504d980072805700e1490700cd
:102d54001fe897000080fb000000400060827e00b6
:102d64007fb097008fb89700d21f2c00f3ff2f007d
:102d7400000041008180490020029800310298003f
:102d8400100020004f0778004f06be004f05be001c
:102d94004f04be00cf00b10000000600f5fe37006e
:102da4000200fa00889fbe008a9fbe00804578001a
:102db400010478000245780083047800010078005b
:102dc400d3fb0700f94f500007003200c1c4800054
:102dd400010cb20000042000808f50001e0032005d
:102de4000100e0001c00320092c2800004c8b3005d
:102df400880178008040eb00014078007ffb0700e9
:102e04000004e00009003200e24f550022003200c5
:102e14006a8157000800be0016fb07000004e000aa
:102e240014003a00e14f5500230032000800be00b0
:102e340082fd07000004e00011003a0010cdb30049
:102e4400b2f5b700200020004f05be004f04be00bd
:102e54000080fa0000000600880c78000000eb00f7
:102e64004f05be004f04be000080fa0000000600bb
:102e7400f9ff37006ff097000004e000ebff3a0021
:102e84000000eb004f05be004f04be000080fa00b6
:102e940000000600f0ff370011c0b3000b407800bb
:102ea40070fe07004f05be004f04be000080fa000c
:102eb40000000600e8ff37008a4078000b407800e5
:102ec40068fe07004f05be004f04be000080fa00f4
:102ed40000000600e0ff3700881f78003000200063
:102ee40080c388006eb8ef0060c3800050c38800c0
:102ef4000044eb0050c3800062c0b300e1862100af
:102f0400564607000844e800600020006a38b40010
:102f1400f04f5400f7ff3a004f0478000000060019
:102f2400889fbe008a9fbe0000457800300880005c
:102f340066f7b7002e75ef0021b880000437ef0064
:102f44000637ef00000022008080600020b8800077
:102f540000d0a1000100700020b888008076210014
:102f6400417b21000048eb000080e800808f500086
:102f7400fcff3a000a04e00004003a0010ba8000a2
:102f84000000e00001003200634907004237ef000f
:102f94008004eb0088702100880578000a04e000b2
:102fa40007003a00180078000000e0000400320036
:102fb40010007800584907001800780056490700a7
:102fc400801deb008904e8000884e800e78f5400c2
:102fd400f2ff3a008004eb00c871210088057800f4
:102fe4000a04e00007003a00180078000000e0003e
:102ff40004003200100078004749070018007800e8
:1030040045490700801deb008904e8000884e800b6
:10301400e68f5400f2ff3a000004eb00896e2100b1
:10302400890578000a04e00004003a0019007800d9
:103034000000e0000100320037490700801deb006a
:103044000804e8008984e800e40f5400f5ff3a001e
:10305400a1ff07004f05be004f04be00000006009c
:1030640010c0b300aeff0700b1c3800002c1b300bb
:10307400a0872100bb450700d1c38000c0532a00ac
:10308400808f50000e0032005cfa0700206f210090
:10309400617021000048eb0064004000810f500083
:1030a400fcff3a00a0722100217421000088eb008b
:1030b40064004000808f5000fcff3a0000000600ce
:1030c400d087210091c1b30090cf1000efff3200f0
:1030d4002eb5a800206f210061702100edff37009c
:1030e4000800fa00881f7800ea805700a2ce280062
:1030f40007000900b25878008100b1000004eb0019
:10310400820020001cf607000000e00001003a00e5
:1031140018002000080078004f0478000080fa00ae
:1031240000000600889fbe008a1f78000005780012
:10313400c0c38000a0c388000004eb00a1c38000ca
:1031440022c1b300a0882100864507009938ab004e
:1031540009003a00200120007438b4000804e80093
:10316400f90f5400f5ff3a00080078004f05780085
:103174004f04be000000060082002000a188210048
:103184000a007800fcf507000000e000f1ff3a00b7
:103194000880fb004f0578004f04be0000000600c5
:1031a400f5ff37004f05b000889fbe008a9fbe0020
:1031b4008c9fbe008e1f78000047eb00000478004f
:1031c40000fc2f0000804700c24807000fa69700ac
:1031d4009fa697000457ab000d003200b4b88000de
:1031e400c5b880000402560085825e00a2712100e9
:1031f400124178000281fb000300200040422f00ae
:103204000010b800800f5200818f5a0037003e0032
:103214000800e00025003a002ed5bf000008a300f6
:1032240029003a0022b880000208a30095003a0061
:103234000218a300bb003a000200e0003001350090
:103244000278a3002707320004f7a900b4d7bf000f
:10325400b2f5b700b5d7bf00b3f5b700e1bd800044
:10326400d1ad880022be800033be800012ae88003b
:1032740023ae880044be800055be800034ae880072
:1032840045ae880040ca28003d480700c30420001a
:10329400030078004f0778004f06be004f05be00bc
:1032a4004f04be004f05b100000006006140b800a5
:1032b40071005000e080580014062000840f500074
:1032c400e08f58000c0036008001eb00030078000a
:1032d4004f0778004f06be004f05be004f04be00e6
:1032e4004f05b10000000600f0ff37003818a900b0
:1032f4000457a900c6ff370000600100ee02370042
:1033040064033700f0ff3700efff3700eeff3700ac
:10331400b2033700ecff3700e7033700eaff37005a
:10332400e9ff370032033700d5033700e6ff3700e3
:10333400e5ff3700e4ff3700e3ff3700e2ff370023
:103344006c023700e0ff3700dfff3700bf043700af
:10335400ddff3700dcff3700dbff370037043700c1
:1033640073043700d8ff3700d7ff3700d6ff370084
:103374003c033700d4ff3700d3ff3700d2ff3700b8
:1033840012043700b9023700cfff3700ceff3700f1
:10339400cdff3700ccff3700cbff3700caff370023
:1033a400c9ff3700c8ff3700c7ff3700c6ff370023
:1033b400c5ff3700c4ff3700c3ff3700680237007a
:1033c4005d023700910437000f0437006e043700a4
:1033d400f9023700a90437009f0337004804370077
:1033e400b9ff3700b8ff3700b7ff3700b6ff370023
:1033f400b5ff3700b4ff3700b3ff3700b2ff370023
:10340400b1ff3700b0ff3700afff3700aeff370022
:10341400adff3700acff3700abff3700aaff370022
:10342400a9ff3700a8ff3700a7ff3700a6ff370022
:10343400a5ff3700a4ff3700a3ff3700a2ff370022
:10344400a1ff3700a0ff37009fff37009eff370022
:103454009dff37009cff37009bff37009aff370022
:1034640099ff370098ff370097ff370096ff370022
:1034740095ff370094ff370093ff370092ff370022
:103484000f02370088b79f008b7021001b0478005f
:103494000800e0001100320018089000a80890000d
:1034a4000001560081815e00770133000200be00f6
:1034b40098f4070002a02b00b375240093f40700ce
:1034c4000000e000e800340018007800124807000b
:1034d4001b00780010480700800deb000fb2970026
:1034e4000402e80084b79f008b85e800e70f5200d0
:1034f400e6ff3a008040eb00807021001000e000fd
:1035040005003a008140e8000080e800e7cf500061
:10351400faff3a000417a90022b880000218a30099
:1035240045ff32000002eb00896e2100090178009a
:1035340009047800920078000100e0000e003200d7
:10354400e10190000300e0000b003200110890003c
:1035540000b8a3007d003a0021009000b100900063
:103564000000560081805e0025e02300850f500096
:10357400e08f58007d003e000402e8000884e80063
:103584000281e800e40f5200eaff3a00886e21004d
:10359400096f2100180278000400e00007003200df
:1035a40034015600a4815e0080962800910020001a
:1035b400800f5100818f59003c003e000884e800d0
:1035c400888f5400f3ff3a008041eb0083679f002b
:1035d400034078004a7021000007eb0029532100c2
:1035e4000080fb000000400078004000447021008f
:1035f40060007a000000e0000d003200300090000e
:1036040005fa2f008f8242000581e800e480420021
:1036140018f907000004e000ab0532002f619700a1
:103624000204e000cf053200e24f510032013200c3
:103634000f6297000440e80080679f00e54f500048
:10364400e7ff36008042eb0085679f0060c380007f
:1036540050c3880051c3800062c0b300e0862100db
:103664004044070088c38000e20f5400480532003c
:103674008f6097008140e80081679f006000200010
:103684006a38b400efcf5000f2ff36008041eb00ff
:1036940083679f001c17e2007f01320022b880007c
:1036a4000200e000e6fe3d001500370024509000c3
:1036b40062c0b3000440bc0061c3800081004100cb
:1036c40051c3880062c0b300e0862100254407008e
:1036d40080c38000e10f5000f5003200180078002c
:1036e400600090000000e000010032008a470700fb
:1036f4001800780088470700000ceb00afff370084
:10370400d0ba8000e1ba80000000560081805e00db
:1037140005802700850f5000e08f5800c8fe360052
:10372400a0ccb300b2f5b700b8b5ef00a0032000f9
:103734004f0778004f06be004f05be004f04be0081
:103744004f05b10000000600d8fe370021009000ac
:10375400b10090000000560081805e0015122a001e
:10376400850f5000e08f580083ff36000040eb00c7
:1037740080679f002553210031d5bf008080fb0066
:103784003341780082f07a000040e80031f5b70058
:103794000f6297000440e80080679f00e54f5000e7
:1037a400f5ff36000040eb0080679f000b532100bb
:1037b4009b4578000b80fb0033f07a008b45e900d1
:1037c4000b00780030f5b7000f6197000240e80065
:1037d40080679f00e74f5000f6ff3600980078009e
:1037e4001108900000b0a10090089800980178009a
:1037f400130990004810de00674040006700600035
:103804004800dd00f18f2f0001016100000171000b
:1038140092099800180078002c0098003d00980048
:1038240018017800920890000070200080846000e5
:10383400a503320001fa2f008f8040000080eb00c6
:1038440050f9070003012000030078004f077800b7
:103854004f06be004f05be004f04be004f05b10029
:103864000000060091fe3700b80c90000902b20077
:103874001aff3a000e10a100484d9000f94f550070
:10388400d4043200e14f45009000320089417800b1
:103894008a84fb000a40780022c1b3000440bc00c3
:1038a400c1c3800081004100a1c3880022c1b300cc
:1038b400a0882100f3b79f00aa430700c2c4800078
:1038c400820078000120b200ffb1970096043a000c
:1038d400768044001b004000114098000a45e8002f
:1038e400e1c061004208dd000e24a100004777001a
:1038f4000e28a30002003a00f84f5500e4ff3600fa
:103904001b0478004a4c98004208dd000e24a100f4
:10391400004777000e28a300f0fe32000e18a30023
:10392400230b3a008fb097000184400069c2b300b2
:1039340001532100914078000181fb0025532100af
:103944006400440044702100e0017a003340900098
:1039540000f17a008145e9000b00780030f5b700ea
:103964000b80fb004341900002f07a0081c5e9001e
:103974000b00780030f5b7000b80fb007342900019
:1039840004f07a00e3c550000b00780030f5b7006e
:103994000b80fb006341900002f07a00e4c5500004
:1039a4000b00780030f5b7000b80fb00134a900041
:1039b40004f07a00e5c550000b00780030f5b7003c
:1039c4000b80fb000349900002f07a00e6c550002a
:1039d4000b00780030f5b7000b80fb00234a900001
:1039e40004f07a00e7c550000b00780030f5b7000a
:1039f4000b80fb003349900002f07a00e8c55000c8
:103a04000b00780030f5b7000042eb0084679f009c
:103a140013017800234090000004e000d1033a0031
:103a24002f90970001fa2f008f804000d5f80700ef
:103a340060c2b30080cf54003f0e32008980fb0087
:103a440081804000707621000f61970082707800b9
:103a54006400440043702100608179008076210075
:103a64003241900082707800000120004f077800f6
:103a74004f06be004f05be004f04be004f05b10007
:103a84000000060009fe370061006100010020000b
:103a94008301d1000281d300020070008380700092
:103aa4001cf307000001be00bbf2070081fe3700d3
:103ab4002000200080c3880050c3800062c0b3008f
:103ac400e18621006543070004ff37007800900079
:103ad400880890000000560081805e0002092500dd
:103ae400820f5000e08f58000d053e008940780099
:103af4004a4c980084ff37000f6197008281fb00d5
:103b0400038041007800400060007d00a000900028
:103b140090c28000808f50006d0432000853210051
:103b24001844780001f807008880fb0080f07c00ce
:103b34008845e9008b80fb00a0c0b30080f07c00c6
:103b440088c5e9000b80fb003185210011f07c0061
:103b5400e34554000b80fb002185210011f07c001b
:103b6400e44554000b00780030f5b7000b81fb00ee
:103b740001fa2f008f8040003180fb0000004000dc
:103b84007800400060027d00d442900005f17c0082
:103b9400e54554000b00780030f5b7000b80fb00be
:103ba4004441900002f07c00e64554000b80fb0089
:103bb4000ef07c00e74554000b81fb0090c0b3007d
:103bc40000f17c00e84554000b00780030f5b700a4
:103bd40012532100124178008281fb0030c0b300ef
:103be40080f17c000240e8000080fb000ef07c00c5
:103bf40002c0e80031f5b7000080fb00e44190000a
:103c040003f07c006340410031f5b7000080fb0005
:103c1400f442900005f07c00644141000200780009
:103c240031f5b7002400900056f807008f60970024
:103c34000180fb00000040007800400060007d002f
:103c440010007800344607000f6197000280fb00e3
:103c5400000040007800400060007d000008eb0098
:103c64002d4607008f6197000380fb000000400091
:103c7400780040000e307d00000120004f077800de
:103c84004f06be004f05be004f04be004f05b100f5
:103c94000000060085fd370003407800e171210033
:103ca4000040e80080679f00e64f5000cc043200db
:103cb4003100e000faff320022b8800078fe3700bd
:103cc4002ed5bf000038a3006f083a0020ccb30003
:103cd400b2f5b700300720004f0778004f06be004a
:103ce4004f05be004f04be004f05b10000000600a2
:103cf4006efd3700a05b21000afd070080679f006e
:103d0400f94f500070fd320091c4800011ae88005c
:103d140010c0b300b2f5b700300220004f0778009e
:103d24004f06be004f05be004f04be004f05b10054
:103d3400000006005dfd370020ccb300b2f5b700eb
:103d4400700320004f0778004f06be004f05be00e9
:103d54004f04be004f05b1000000060053fd3700bc
:103d640021b88000000022000084600056fd3a0063
:103d74007dd8bf00f94f50001500320022c1b300b6
:103d84000440bc00c1c3800081004100a1c388007d
:103d940022c1b300a08821007242070098d8a8006d
:103da40098f8a800a0c3800022c1b300a188210014
:103db400aa42070090c1b3007df8b700b0c38000e9
:103dc40002c1b300a1872100a44207002eb5a900b7
:103dd40088679f000840780022c1b3000440bc00fb
:103de400c1c3800081004100a1c3880022c1b30087
:103df400a08821005b4207009938ab002c023a00ee
:103e04008f6197000340e80080679f00f84f5000df
:103e1400f1ff36002e95a80010ba80000000e000e3
:103e240002003200bc4507004237ef00d4ad8000e9
:103e3400e5ad800034ba880045ba8800b9d5bf0022
:103e44004af7b70010c0b300b8f5b70080022000ed
:103e54004f0778004f06be004f05be004f04be005a
:103e64004f05b1000000060010fd37002ed5bf003d
:103e7400e840600014083a0020ccb300b2f5b70063
:103e84002e15a900fbc7b3000b00780030f5b7006e
:103e94000100780031f5b700400320004f07780097
:103ea4004f06be004f05be004f04be004f05b100d3
:103eb40000000600fdfc37008042eb0085679f0090
:103ec40005407800437021000082eb000080fb0075
:103ed400c200dd00620220000101410045702100a2
:103ee40062807a00e10f4000040032000180420049
:103ef40050609000cc55e3002b0032008f60970097
:103f04000140e80080679f00e54f5000efff360056
:103f14000041eb0082679f0067d7bf00cc55e300e8
:103f24000a0532001200200093762100640220006a
:103f340082679f00840f5100e3fc32008200780006
:103f4400134078000201e8008381e800cc55e300c7
:103f5400f7ff3a000180400082762100604079003a
:103f64008001eb000004e00002003200ccf5b70051
:103f7400430320000f6297000480fb000000400010
:103f84008040eb0001707900030078004f0778004f
:103f94004f06be004f05be004f04be004f05b100e2
:103fa40000000600c1fc3700b255e2002f073a00ba
:103fb40004b17900d1ff3700a05b210059fc070050
:103fc400f94f50004c09320050ccb300b2f5b700a1
:103fd400b00320004f0778004f06be004f05be0017
:103fe4004f04be004f05b10000000600affc3700cf
:103ff40004b7a90004d7a80050c2800044f7070002
:1040040080679f00f94f50000100320066f90700f5
:10401400225c2100a3ce2800070009003359780050
:104024000075210024c0b300904f12001309320020
:1040340020b880004d00de000000a2006140600056
:10404400b2f5b700d00420004f0778004f06be0039
:104054004f05be004f04be004f05b100000006002e
:1040640092fc370093032000b255e20088fc3a002a
:104074000517a800030078004f0778004f06be001c
:104084004f05be004f04be004f05b10000000600fe
:1040940086fc3700acf60700c0ef9f00aaf60700c5
:1040a400a0ef9f00a8f607000080fb0008f02f0097
:1040b4000806660000067600a3f6070080ef9f005e
:1040c4004800dd00fc0fb200000676009ef60700f3
:1040d4000080fb0008056500000575009af60700de
:1040e400f0e79f008086fb004868dd00fa0fb2000d
:1040f4000005750094f60700b0e79f0092f60700ec
:1041040000477800afea97000538a3000c0032009e
:104114000040eb0080679f0000447800096e210096
:1041240089f607008880fb0080f07c008f60970090
:104134000144e80088679f00e74f5400f8ff360009
:104144002fe997000248a3000c0032008041eb00e5
:1041540083679f0003447800896d21007af6070085
:104164008880fb0080f07c000f6297000444e80024
:1041740088679f00e74f5400f8ff360010ae8000b8
:10418400e10f40005a013200e50f460058013e009d
:104194004fe9970063446100e14f5400f006320098
:1041a40090c28000800f560055083a00daad8800ae
:1041b400bcad880020c0b300b8f5b70050032000a0
:1041c4004f0778004f06be004f05be004f04be00e7
:1041d4004f05b1000000060034fc37008041eb00bd
:1041e40083679f0003407800235b2100004178002f
:1041f4000080fb00f000400068004000e0f079001f
:104204000241e80002407800e74f5100f8ff360011
:1042140080c0b30080679f00a05b2100c1fb070042
:1042240080679f00f94f5000c408320094c4800096
:10423400c4ad8800b275ef00700120004f0778000c
:104244004f06be004f05be004f04be004f05b1002f
:104254000000060015fc370010c0b300b2f5b7002b
:10426400400220004f0778004f06be004f05be00f5
:104274004f04be004f05b100000006000bfc3700e0
:10428400805b210025c0b30090cf1200ce01320024
:10429400b32807008001eb00030078004f07780083
:1042a4004f06be004f05be004f04be004f05b100cf
:1042b40000000600fdfb37002e95a900b255e20070
:1042c400cc033a00c3ad800093c288002e75a800c9
:1042d400ad2807007dd8bf0022c1b3000440bc0054
:1042e400c1c3800081004100a1c3880022c1b30082
:1042f400a08821001b41070098d8a90098f8a900bc
:10430400a48821001584210007000900355a78008b
:10431400a0c3800022c1b300a18821004f4107003f
:1043240090c4800050c288002eb5a800b0c480009c
:104334004800de006f4060000040e8007ef8b700ef
:1043440017f807008000780000c4880040c480008b
:10435400e10160000c003a006608b90092c28000d6
:10436400000041000000e80010c488000201e800d9
:1043740022c488008001fd0086f8b70087f8b700e2
:104384008001fd008818a80010c0b30061f8070080
:10439400b0c3800002c1b300a18721002f410700f0
:1043a4000517a80081c2800051ae8800a003200038
:1043b4004f0778004f06be004f05be004f04be00f5
:1043c4004f05b10000000600b8fb3700b2d5bf00ae
:1043d400e3032000aefb3200f54f4000dd03320062
:1043e40060ccb300b2f5b700030078004f07780043
:1043f4004f06be004f05be004f04be004f05b1007e
:1044040000000600a9fb37002ed5bf000038a3002a
:1044140057033a0020ccb300b2f5b7009003200054
:104424004f0778004f06be004f05be004f04be0084
:104434004f05b100000006009cfb37008040eb00f4
:1044440030c3b3008f3e07008040eb0040c3b3008d
:104454008c3e0700f1c0b300f0222000ac3e070000
:10446400805b210013c0b30090cf1100ac03320075
:104474002e95a900b255e2000f0732007dd8bf0087
:1044840022c1b3000440bc00c1c3800081004100cc
:10449400a1c3880022c1b300a0882100b140070055
:1044a40098d8a80098f8a800a0c3800022c1b3003f
:1044b400a1882100e940070090c1b3007df8b7004e
:1044c400b0c3800002c1b300a1872100e34007000c
:1044d4002eb5a900b8b5ef00a0ccb300b2f5b70073
:1044e400a00320004f0778004f06be004f05be0012
:1044f4004f04be004f05b100000006006bfb3700ff
:10450400b255e2009502320010ccb300b2f5b70008
:10451400e00320004f0778004f06be004f05be00a1
:104524004f04be004f05b100000006005ffb3700da
:10453400205c2100fbfa070080679f00b255e2006f
:1045440061fb3a00f94f50005ffb320090c48000d9
:10455400d0ad880044d7bf00b2f5b700b375ef0003
:10456400f0cb280086430700c00420004f077800e2
:104574004f06be004f05be004f04be004f05b100fc
:104584000000060049fb370005b7ab004efb3a00bc
:104594002ed5bf000038a3009f023200205b21000b
:1045a40022c0b300904f11009b023a001375210002
:1045b400c45c210007000900b459780005d7a8009d
:1045c40010c0b300b8f5b700d0c0b300b9f5b70058
:1045d400a0aa210080c28800e5752100c05c2100ea
:1045e40007000900b05a7800ef2707008002200076
:1045f4004f0778004f06be004f05be004f04be00b3
:104604004f05b1000000060028fb37000457a9003d
:10461400b255e20060023a003818a900b3d5bf00d1
:10462400bcf70700b275ef00830320000300780095
:104634004f0778004f06be004f05be004f04be0072
:104644004f05b1000000060018fb370021b88000b8
:104654006880600050043a0031fa0700d00320005b
:104664004f0778004f06be004f05be004f04be0042
:104674004f05b100000006000cfb37002ed5bf002b
:104684000038a30046063a0020ccb300b2f5b700c8
:10469400c00320004f0778004f06be004f05be0040
:1046a4004f04be004f05b10000000600fffa3700ba
:1046b4009978a900a0c3800022c1b300a188210079
:1046c40066400700cefd3700620090009243070069
:1046d400180078006900980001fa2f008f804000cc
:1046e4000080eb00a7f507000301200056fc37000b
:1046f4008042eb0085679f000541780083702100ac
:10470400930078000100e0000300320031009000c3
:10471400800f5500660032000241e80082679f0066
:104724008381e800e74f5100f5ff3a00cfe8970096
:1047340063c06000e14f50003a043200bfe29700ca
:10474400e1cf52004e00360031fa2f0001804700bd
:104754007df607000004e0002c0332003f60970060
:104764008080fb0081804000e48040004370210091
:1047740061817900b20890000140a10031099800dc
:10478400fbf407003f6097000080fb00000040003e
:10479400640040004470210060007a00255b210021
:1047a40095427800254098003f6097000080fb0008
:1047b400000040006400400060007a00cfe89700e9
:1047c400314898003f6097000080fb0000004000e3
:1047d4006400400060007a002fe9970022489800a6
:1047e4003f6097000080fb00000040006400400030
:1047f400e0007a00cc009800e0007a00ba0098004b
:10480400e0007a00bfe197000340e900c04098004f
:104814003f6097000080fb000000400064004000ff
:1048240060007a003e4098003f6097000080fb00e3
:10483400000040006400400060047a00b2d5bf006c
:104844003343070080047800000c78000000e00087
:10485400650832000040eb0080679f00abad80002c
:104864002c5b21001c4678000c04e0001e003a007a
:10487400abad88000c007800b2f5b7000417a800af
:1048840090c280008a0f5000f90b3200daad880024
:10489400500320004f0778004f06be004f05be00ae
:1048a4004f04be004f05b100000006007ffa370038
:1048b40031409000804f570097ff3a000240780043
:1048c400abf4070026270700000020004f077800fc
:1048d4004f06be004f05be004f04be004f05b10099
:1048e4000000060071fa37008f6497003f6097005c
:1048f4000080fb0000004000640040004170210083
:10490400608078000984fb00100444008ef40700e2
:10491400004c78008944e80089679f00b255e200a2
:10492400d3ff32008f6497003f6097000080fb0044
:104934000000400064004000417021006080780065
:104944000984fb00100444007ff40700004c780045
:104954008944e80089679f00b255e200e2ff3a000b
:10496400c3ff370031d5bf008080fb00324278009e
:1049740084f07a000040e80031f5b7000f6097003a
:104984008040e80081679f0023409000814f5000e1
:1049940023fc360031d5bf008080fb003242780012
:1049a40084f07a000040e80031f5b7000f6097000a
:1049b4008040e80081679f0023409000814f5000b1
:1049c400e8ff3e0016fc3700a0ad80001004e000b4
:1049d4002ffe3a00b1ad8000d0ad800081f7070012
:1049e400f94f50003700320054ae800004e8a300b1
:1049f400f30432009898a90098b8a9009918a8005f
:104a0400a3ad8000a34090008107b200c508dd007b
:104a1400b0c48000f20f2f0002006000010070009b
:104a2400b0c4880093409000cc08dd00f2ff200061
:104a34000200600001007000b0c4880013409000c0
:104a4400000fb2004400de00c1c4800002ff2f004a
:104a54008280600080807000cdd5bf0096f8b700da
:104a64004f20de004a00dd0001a0a100808070001c
:104a7400c1c48800234090004200de006100600051
:104a84004b00dd0001b0a10080807000c1c488002b
:104a9400b1ad8000a1c48800d2ad800092c488006a
:104aa400b9d5bf009af8b700a0c3800022c1b300f3
:104ab400a1882100693f0700a92607008001eb00b7
:104ac400f5fd370020f60700f94f5000f0fd3200e5
:104ad4009938a80098d8a80098f8a8000040eb00de
:104ae40080679f00ae882100804078000080fb0032
:104af4000e0040000048eb008140e80001407800cf
:104b0400e7cf5000f9ff360080c0b30080679f00f4
:104b14007c78ec00b0c3800002c1b300a1872100ff
:104b24004e3f0700b0ff37001b0478004800900098
:104b3400e40f400012003200e30f40000e00320088
:104b440091c4800038009000808f50000c00320027
:104b54000288a30061fb3a00a1979f00f6804400fd
:104b640088804000114090000004a100904098000b
:104b740013c0b30059fb37000288a300f0ff3a00ca
:104b8400890044000040eb00f050980053fb3700cc
:104b94003000200080c388006eb8ef0050c380004e
:104ba40062c0b300e18621002c3f070008007800b2
:104bb400b2f5b700300720004f0778004f06be005b
:104bc4004f05be004f04be004f05b10000000600b3
:104bd400b6f937000e00a00009007800b2f5b7005e
:104be40009017800f70044009141780061c0610038
:104bf40007003a00024078000201e8008100e80062
:104c0400f90f5100f8ff3a00f84f50002c00320021
:104c140000cfb300b2f5b700380890006f00600011
:104c24002700320018089000a808900000005600e1
:104c340081805e0034422f00840f5000e08f5800c2
:104c440016013e000e00a1008041eb00e1c06100ae
:104c54004208dd000e24a100004777000e08a300df
:104c640029fb32008fb197000384410064014400a2
:104c740044702100e2007a0031409000ccf5b70086
:104c8400310890000050a000b008980062007a003b
:104c940030089000430320000048a3008af9320042
:104ca400030078004f0778004f06be004f05be0092
:104cb4004f04be004f05b100000006007bf9370029
:104cc4008041eb00e1ff37000f6297008481fb0015
:104cd400038041007800400045702100e0807a00a4
:104ce4001100780070409000ccf5b700b275ef0069
:104cf40011007800084207008f6097000180fb00d4
:104d040000004000780040004270210060007900fb
:104d1400014207008f6197000380fb000000400000
:104d240078004000447021000e307a002e15a9004e
:104d3400fbc7b3000b00780030f5b7000e00780015
:104d440031f5b700400320004f0778004f06be003e
:104d54004f05be004f04be004f05b1000000060021
:104d640052f937000f6097008081fb0003804100f7
:104d7400780040004170210060827800a400900017
:104d840090c28000808f50006e053200824478000b
:104d9400140178009e679f00038041007800400062
:104da40043702100e0807900214090000004e0007d
:104db4000e003200255321008101780031d5bf0057
:104dc4008080fb003242780084f07a000040e800e2
:104dd40031f5b7001f6097000040e80090679f001e
:104de400a340900080cf5000f4ff3e002f90970026
:104df40015fa2f0085804700e2f307000f60970043
:104e04008081fb0003804100f801400048702100cc
:104e140063017c00a200900090c28000808f50004b
:104e24001700320063007c0010007800ba410700cc
:104e34008f6297000580fb0000004000780040006e
:104e440060007c00b44107008f6097000180fb0084
:104e540000004000780040000e307c000301200078
:104e6400030078004f0778004f06be004f05be00d0
:104e74004f04be004f05b100000006000bf93700d7
:104e84000980fb0000004000717621001f6297003a
:104e940004f07800120178008176210072419000bc
:104ea40002f0780063007c00100078009a4107004b
:104eb4008f6297000580fb000000400078004000ee
:104ec40060007c00944107008f6097000180fb0024
:104ed40000004000780040000e307c0003012000f8
:104ee400dfff37000238a300f7f832000268a3009e
:104ef4007904320004d7a90010c0b300b2f5b7009a
:104f0400400220004f0778004f06be004f05be0048
:104f14004f04be004f05b10000000600e3f837005f
:104f24000080eb00a0979f000e10a00040fc2f0013
:104f340000804700674107002fa29700bfa2970097
:104f4400140c9800250c9800094578001b0478007f
:104f540011c0b3004a4c98006bfa3700b375ef00e8
:104f640082c2800052ae880020c0b300b9f5b700f9
:104f740053c2800013ae8800100320004f0778004e
:104f84004f06be004f05be004f04be004f05b100e2
:104f940000000600c5f837003818a800b2d5bf00d5
:104fa400e14f40009dfd32001af7b70080fd2f004d
:104fb40000804700474107004fa99700dfa99700e9
:104fc400b2b88800c3b888000457a800b3d5bf009e
:104fd40050f50700b275ef008303200093fd3700fe
:104fe4000042eb0084679f00e816e200abf93a0048
:104ff40004407800a16e21000040e80080679f0013
:10500400e44f5000fe0432003100e000faff3200a9
:1050140022b88000a2f937002e95a800b255e2000c
:105024005405320015752100c05c210007000900f9
:10503400b05a78002ed5bf000058a3002b003200d0
:1050440005d7ab002900320005d7a90010c0b30072
:10505400b8f5b70080c0b300b9f5b70052ae800010
:1050640082c28800e3752100c45c210007000900a6
:10507400b45978004c25070083022000030078000f
:105084004f0778004f06be004f05be004f04be0018
:105094004f05b1000000060084f837000e00a1009f
:1050a4000080eb00a0979f0038089000ef4040007c
:1050b400ef80600002ff2f0002006000010070001a
:1050c400300c98001b04780080fc2f0000804700ff
:1050d400004107004fa09700dfa09700100c980034
:1050e400210c980013c0b300d8fe37002ed5bf00a2
:1050f4000058a30004003200205b210011c0b3005b
:1051040090cf10000d00320010c0b300b8f5b70006
:1051140080c0b300b9f5b70052ae800082c28800e7
:10512400e3752100c45c210007000900b45978002c
:105134001d25070083022000d0ff370030c0b300d4
:10514400b8f5b70080c0b300b9f5b70052ae80001f
:1051540082c28800e3752100c45c210007000900b5
:10516400b45978001025070083022000c3ff3700dc
:10517400b8d5bf0080679f007dd8bf0022c1b300af
:105184000440bc00c1c3800081004100a1c3880069
:1051940022c1b300a0882100723d07000517a900b1
:1051a400a3c48000b3ad88009ad8bf00b8f5b70097
:1051b400f0c0b300bef5b700bff5b700b275ef009d
:1051c400d30220008f6097000104e00030f8320021
:1051d400b235a800030078004f0778004f06be00e0
:1051e4004f05be004f04be004f05b100000006008d
:1051f4002ef837002e75a90050b8ef00ea240700f6
:105204002eb5a9007dd8bf0022c1b3000440bc0064
:10521400c1c3800081004100a1c3880022c1b30042
:10522400a08821004f3d07009978a90090c1b300e0
:105234007df8b700a0c3800022c1b300a18821007b
:10524400863d070090c1b3007df8b7008041eb00b4
:1052540083679f0080c4eb000340780008e02000cf
:1052640022c1b3000440bc00c1c3800081004100de
:10527400a1c3880022c1b300a0882100393d0700e2
:10528400c0c4800008006000880f50001400320081
:105294000f6297000440e80080679f00f84f5000b9
:1052a400efff36007dd8bf00f94f500032003a00be
:1052b4002e95a900b8b5ef0030ccb300b2f5b70015
:1052c400a00320004f0778004f06be004f05be0024
:1052d4004f04be004f05b10000000600f3f737008d
:1052e400a1c4800050ae8000808f5000e8ff3a00d7
:1052f400f0c2b3009658e300e5ff3600b0c4800066
:105304004800de006f406000894f5000e0ff31002c
:10531400804478000f6097007df8b700dcff370009
:10532400b255e200420032002e95a900600320002d
:105334004f0778004f06be004f05be004f04be0065
:105344004f05b10000000600d8f737008000eb00dd
:1053540000fb3700b275ef00e00320004f07780030
:105364004f06be004f05be004f04be004f05b100fe
:1053740000000600cdf7370022c1b3000440bc0092
:10538400c1c3800081004100a1c3880022c1b300d1
:10539400a0882100f33c070051ae800081c2880040
:1053a400e2752100c35c210007000900335978002d
:1053b4007d240700d1c280008180e80012c0b300c0
:1053c40000fa2f000f004000e63c07009ad8bf0007
:1053d400b8f5b70020c0b300b9f5b70091c4800098
:1053e40011ae88000f609700b2f5b700500120009d
:1053f4004f0778004f06be004f05be004f04be00a5
:105404004f05b10000000600a8f737005424070038
:10541400000020004f0778004f06be004f05be0075
:105424004f04be004f05b100000006009ff737008f
:10543400b375ef00b435ef00b2ad80000200e000b8
:1054440013003200a0ad80000000e00079003200bb
:1054540092009000908f5000050032007000900080
:105464000000e00073003200908f5000feff3a000d
:10547400b2ad8000620c9000020078002640070064
:1054840008017800b8ad88000800e000edff3a009c
:10549400b355e20001003a002e95a90063032000f1
:1054a40005d7ab007af7320005d7a90012532100c3
:1054b400124178008280fb002553210060c0b300b4
:1054c40080f07a000240e8000080fb00e1ccb300e9
:1054d40001f07a0002c1e8000200780031f5b7005b
:1054e400c07c2100a1ce28000700090031587800b3
:1054f4000041eb0082679f00024078000b532100bb
:105504009b457800c37c21008b44e9000b4578005f
:105514008b80fb000080fb006700100060c07900f6
:1055240080f07a00894578008944e9000241e80066
:1055340002407800e74f5100f4ff360080c0b3000a
:1055440080679f008005fd0030f5b7008005fd00f1
:1055540085bf9f0075f107008b80fb008fba970011
:1055640080f07a008980fb0010c0b30080f07a00dc
:10557400e34555000b80fb003185210011f07a00d2
:10558400e44555000b80fb002185210011f07a00d1
:10559400e54555000b80fb003189210011f07a00ac
:1055a400e64555000b80fb002189210011f07a00ab
:1055b400e74555008b80fb0000c1b30080f07a0002
:1055c400e84555008b80fb0090c0b30080f07a0062
:1055d400e94555000b00780030f5b70090c4800011
:1055e40001fa2f008f804000e6f1070005f7a800bc
:1055f40040fd2f0000804700b63f07002faa970008
:10560400bfaa9700d4ba8800e5ba880095c4800080
:1056140055c28800000120004f0778004f06be00e5
:105624004f05be004f04be004f05b1000000060048
:105634001ef7370012027800610062005200320047
:1056440064004100b7f6070080679f008f629700ef
:10565400f9cf520086ff320005d7ab0005003200b7
:10566400b2ad8000a2589000f0c8b30080cf5000c3
:1056740080ff360000c1b300a53f07008001780019
:105684000000e0007aff3200b0ad8000100090000e
:1056940080097800b0ad800010409000a0419800cf
:1056a400b1c48000cc08de00c808dd0013009000ff
:1056b400f20f2f00020060000100700090019800ba
:1056c400c1c48000cc08dd00f2ff200002006000ad
:1056d4000100700090019800b0ad80002009900096
:1056e4006f0161002300900001ff2f0001006000a2
:1056f40002007000a0019800b1ad8000a1089000e4
:10570400010fb200f2f02f000200600001007000ef
:10571400a0019800b1ad8000a1089000cf08de0080
:10572400c808dd000080a10001007000a0019800fd
:10573400e6804100b0ad80006c0040001002be0065
:105744008488be0020029000b0029000a40098005b
:10575400b5009800a5ad8000f5019800a3ad8800c0
:10576400b375ec00b2ad8000620c900002007800ca
:10577400693f070008017800b8ad88000800e00020
:1057840030ff3a0042ff37002200900060f107002a
:1057940080679f00adff37000075210022c0b30071
:1057a400904f11001b0332004e0cde006144640074
:1057b400e4fa2f0004804700a5ce28000700090062
:1057c400355878008000b1001001be0012ae880088
:1057d40023ae88001f9a9700af9a970034ae8800d2
:1057e40045ae8800b275ef000040eb00ccf5070031
:1057f4000804e000340232002eb5a8002e75a9007a
:10580400c3032000030078004f0778004f06be0052
:105814004f05be004f04be004f05b1000000060056
:10582400a2f63700c8f0070080679f00e14f5000e0
:10583400980032000f609700e44f500009003200d6
:1058440047230700000020004f0778004f06be00e2
:105854004f05be004f04be004f05b1000000060016
:1058640092f63700b8f007008045780090c28000b7
:10587400800f55006a083200bfe09700e1cf500066
:105884005300360032fa2f00028047002ef2070040
:105894000004e000a00432003f6097008080fb0019
:1058a40081804000e48040004370210061817900e0
:1058b400b20890000140a10031099800acf0070043
:1058c4003f6097000080fb0000004000640040003f
:1058d4004470210060007a00255b21009542780025
:1058e400254098003f6097000080fb0000004000c6
:1058f4006400400060007a00cfe8970031489800c7
:105904003f6097000080fb000000400064004000fe
:1059140060007a002fe99700224898003f609700c2
:105924000080fb000000400064004000e0007a00ba
:10593400cc009800e0007a00ba009800e0007a00f9
:10594400bfe197000340e900c04098003f60970022
:105954000080fb00000040006400400060007a000a
:105964003e4098003f6097000080fb00000040002c
:105974006400400060047a00b2d5bf00e43e070032
:1059840080047800000c78000000e000c1073200b9
:105994000040eb0080679f003f6097000080fb00a1
:1059a40000004000640040004170210060807800e5
:1059b4009000780040c0b3008048780010c0b30065
:1059c40080679f00b255e20089003a000417a800de
:1059d4000a007800cef0070080679f00f94f50005e
:1059e40097ff3200f0f20700dd220700b275ef00e6
:1059f400245c2100a588210007000900355a78009d
:105a0400a05b2100a188210007000900315878001b
:105a14000041eb0082679f0002407800a2c0b300ff
:105a24000440bc00e1c2800081004100a2c0b30078
:105a3400008621004b3b070040c38000800f5500c7
:105a4400000832008f6197000340e80080679f00e0
:105a5400e74f5000f1ff3600c30320000b68a3009a
:105a64000bf63a0004c2b30004c06500b2f5b700f7
:105a7400f1814100030078004f0778004f06be0013
