:020000040000FA
:0600000004EF02F0120003
:020006000000F8
:0800080007EF00F01200DACF4F
:10001000E4FFE2CFDAFFE9CFE4FFEACFE4FFF6CF77
:10002000E4FFF7CFE4FFF5CFE4FFF3CFE4FFF4CF35
:10003000E4FFFACFE4FF00EE00F0020EE80403E371
:10004000EECFE4FFFBD700EE02F0020EE80403E37C
:10005000EECFE4FFFBD7E65237D89E9AE55200EE8A
:1000600003F0020EE80403E3E5CFEDFFFBD700EE5B
:1000700001F0020EE80403E3E5CFEDFFFBD7E5CF87
:10008000FAFFE5CFF4FFE5CFF3FFE5CFF5FFE5CFCE
:10009000F7FFE5CFF6FFE5CFEAFFE5CFE9FFE5CFD4
:1000A000DAFF1100B8860C0EAF6EAC98AC84AB8E44
:1000B000949C948E1200B898AC8AAD6A12009D8A06
:1000C000F28EF28CAB881200D9CFE6FFE1CFD9FFD8
:1000D000E652AE50DF6EDF50850A4AE0010A39E091
:1000E000070A28E0010A17E0030A06E0AA0EE66EF6
:1000F000CDEC00F0E5524CD00F01010E0A6F0C6BF5
:100100000D6B7D0E0B6F810EE66ECDEC00F0E552AF
:100110009EA8FED73DD00F01020E0A6F0C6B0D6B2F
:10012000700E0B6F820EE66ECDEC00F0E5529EA8CD
:10013000FED72ED00F01030E0A6F0C6B0D6B600EF5
:100140000B6F830EE66ECDEC00F0E5529EA8FED755
:100150001FD00F01040E0A6F0C6B0D6B500E0B6F4E
:10016000840EE66ECDEC00F0E5529EA8FED710D0CE
:100170000F01050E0A6F010E0C6F0D6B440E0B6F15
:10018000850EE66ECDEC00F0E5529EA8FED700D0BD
:0A019000E552E552E7CFD9FF120057
:06019A00D9CFE6FFE1CF22
:1001A000D9FFACA2FED7FE0EDB50AD6EE552E7CF15
:1001B000D9FF1200D39CD38AD3881200D08E9F8A95
:1001C000F28E060EE66EE9EC01F0E552E6687FEC91
:1001D00001F0E5521200936A926A959E0F010C6B32
:1001E0000D6B030E0A6F52EC00F05BEC00F05FEC5D
:1001F00000F0E0DFE3DF0F01600E0B6F0F010A512B
:10020000E8B08980E8A089900A417F0BE8B08A8233
:10021000E8A08A920A51E840E8403F0BE8B08A849F
:10022000E8A08A940A51E840E840E8401F0BE8B093
:100230008A86E8A08A960C51E8B08C8EE8A08C9E45
:100240000BCF02F0036A02BE036802C0E6FF03C0E0
:10025000E6FFBAEC01F0E552E552D0D7FFD7120025
:10026000060EF66E000EF76E000EF86E0F01090016
:10027000F550056F0900F550066F03E1056701D0E1
:100280003DD00900F550006F0900F550016F0900DD
:10029000F550026F09000900F550E96E0900F550AC
:1002A000EA6E090009000900F550036F0900F550D6
:1002B000046F09000900F6CF07FFF7CF08FFF8CF5A
:1002C00009FF00CFF6FF01CFF7FF02CFF8FF0F01C4
:1002D000035302E1045307E00900F550EE6E0307F3
:1002E000F8E20407F9D707CFF6FF08CFF7FF09CFE9
:0E02F000F8FF0F010507000E065BBFD71200D6
:0202FE00D9CF56
:10030000E6FFDACFE6FFE1CFD9FFE2CFDAFFE65230
:10031000E652E652E652F8CF02F0F6CF03F00C0EAA
:10032000BA6E050EF66EF76A300EF86E0800F550DC
:10033000010B03E0010EDB6802D0010EDB6A010E47
:10034000DB5002E0949201D09396CA94FD0EDB50EC
:10035000CB6ECA8402C0F8FF03C0F6FF040EE15C56
:1003600002E2E16AE552E16EE552E5CFDAFFE7CF5E
:04037000D9FF12009F
:0C037400D9CFE6FFDACFE6FFE1CFD9FFDA
:10038000E2CFDAFFE652E652FC0EDBCF02F0FD0EC2
:10039000DBCF03F0060ED89002360336E804FBE10B
:1003A00002C0DEFF03C0DDFF010EDB50BB6EDF507D
:1003B000E840E8403F0B300B026ECF0EBA1402103B
:1003C000BA6EE552E552E552E5CFDAFFE7CFD9FF45
:0203D000120019
:0E03D200D9CFE6FFDACFE6FFE1CFD9FFE2CFC9
:1003E000DAFFFD0EDB50FB0BCA6ECC6A9E92FD0E4F
:1003F000DBAE02D09D8201D09D92CA84E552E5CF4A
:08040000DAFFE7CFD9FF12007B
:080408001EEE00F02EEE00F0E4
:10041000F86A019C30EC01F019EC02F0EBEC00F012
:04042000FBD71200F4
:0C04240000EE00F00F0EEE6AEA62FDD759
:020430001200B8
:020432001200B6
:020000040030CA
:0100010008F6
:010003001EDE
:010005008971
:010006008178
:00000001FF
