:020000040000fa
:080000000002040000000000f2
:020000040000fa
:100400002f1a21000e7f22000e018800000000003c
:100410000c00070060f52900010020000f00070014
:10042000000020000000e000020032000000020096
:1004300000000000ea8d0200000000000040da0029
:100440000000fe00201320000000e0000200320047
:10045000002020009001880000000600a102880012
:10046000800078000000eb001a003700e2804000b6
:1004700054a0b4009101ba00e280400054a0b4003e
:100480009102ba00e280400054a0b4000002eb00e8
:10049000472bde00f507b200a6018800602ce100c2
:1004a00008003a000049eb000201e80002003900b0
:1004b0003420ec0002f0a0008301e900f9ff3e00c7
:1004c000040037006128e100010032000082eb00e7
:1004d000040007001101ba000200e000e3ff3a0047
:1004e0000000060004d0a300e20f49001c00390000
:1004f000810278003549ba000201e80002003900a3
:100500003420ec0002f0a0008301e9000f0032006b
:100510002549ba000201e800020039003420ec004d
:1005200002f0a0008301e900080032000400e000ae
:100530000600320015c9ba000201e80002003900c5
:100540003420ec0002f0a0008301e9008180e80083
:1005500054a0b4000300e000e2ff3a0000000600ef
:100560009102ba00055978008301e900f7ff3200d3
:10057000c82ade00055978008301e900f3ff320044
:100580000400e000f1ff320011d9ba00eeff37009d
:100590000040da000000fe0003f0a200889fbe00c9
:1005a0008a9fbe008c1f7800ac000700b3003300a8
:1005b0006450e1004f0032006420e100520032003c
:1005c00003826c0007003b000905d0000306d00041
:1005d000820f54000c065d00020039000200320058
:1005e00089017800030678008582550004003d00eb
:1005f0000003fd008103fd008502ea008b854200b7
:10060000840f720002003b0060001000e0801800c0
:100610006011b8000005eb007a28e1000a003900fb
:1006200006007800c75ddd00f707b200878075001f
:100630002d003700828171000a0178006105600099
:100640008180d1000080d3008502e900f9ff3b00e2
:10065000060440008784480002003b006004140048
:10066000e0841c000988a300070032008a81710021
:1006700082817100610164008904d1000884d30083
:100680008b05e800170037000978a30013003a0033
:100690000b00e000130034008b05e900080444005f
:1006a00089844c000a4474000978a3000d003a00c4
:1006b0000b00e000070034008b05e900080444004b
:1006c00089844c0001003a000b0020000978a30047
:1006d000f7ff32000001eb00020037008281710059
:1006e0000a017800370007000cf0a70001f0a00015
:1006f0006b0037006420e10002003a00838f6c0039
:100700006b0033000801be000200be006400370029
:10071000f4ff2f009d003700889fbe008a9fbe0017
:10072000010578000100e0000400350008003c00ed
:100730000000e000200032000500370060001000db
:10074000e080180002003b0001f02c001a00370086
:100750000004be006011b8006b0920000982cf00c0
:10076000020039000882cf000441b0006942520003
:100770000e00320008003b008281710061016400bc
:100780008904d1000884d3008b05e8000442e80006
:10079000f9ff3a00050037000804440089844c0042
:1007a0008b05e9000442e900fbff3a000500070061
:1007b0000af0a70001f0a0004f05be004f04be00e4
:1007c0000000060081002000618055000b003d0004
:1007d0000b00200061fe2f000100e1001d0034002d
:1007e00082817100610164008904d1000884d30012
:1007f0000000e800faff3a00710020006100640088
:10080000030070000200600009003200610444002f
:10081000e0844c000988a500050032008b05e80043
:100820006808e10002003a008904d1000884d3007e
:10083000f20f20000258e10005003d00c75ddd0019
:10084000f907b200898075000800780000000600f2
:100850000bf827008b007800000005000004be00a4
:10086000650007000003be000405be000200be00d4
:1008700061000700844f7500000006000200be0002
:100880006450e100050036006420e10002003600fb
:100890000968a30001003a000800be000160a00042
:1008a0004f0678004f05be004f04be000000060052
:1008b000f0ff2f00f1ff2700f9ff3700889fbe00ef
:1008c0008a9fbe008c1f7800e4ff0700ebff330017
:1008d00003866c006450e100240032006420e100d3
:1008e000270032006150e100220032006120e10067
:1008f000210032008b854200eb07b1000134b800c3
:10090000003ab8000804420089844a00013ab8005d
:100910000030b8008880400009014a00040033001c
:100920000000400081804800020149008b05e90079
:10093000c909dd00830170000100320013002000ae
:10094000c814de004814dd004709de001200b200c2
:10095000c808de00088470009aff070001f0a100bb
:100960000cf0a70001f0a000cdff37006120e100ee
:10097000cfff32000801be000200be00f7ff3700c3
:100980006150e100fcff3a00c9ff3700889fbe00bc
:100990008a9fbe00841f7800b0ff07004f007800d8
:1009a00011003300f0ff2f00838f6c0006003b0026
:1009b000040565000a00a7000800370009f0a6003a
:1009c0001000200008003700820f5400838f5c0065
:1009d000030039001000200001003e00000020004c
:1009e00009f0a7000000ea004f05be004f04be005a
:1009f0000000e00000000600c70ade00f107b200b8
:100a0000f50fb20008003200e1cf420002003200d0
:100a10000170a00024000500810f70000100320069
:100a20000408050044000500810f700002003a0030
:100a3000140005008502e9000000400081c0480064
:100a4000fcff3b000170a000240005000400fa0038
:100a5000e0bf9f00e4815700812978000002eb008d
:100a60000f0037006fb89700904078007fb897006c
:100a7000104078000402e80080cf500004003200eb
:100a80008180fb000080fb000080500007003700e1
:100a90006fb897000000e800e0bf9f009309e800ee
:100aa000820f5200efff3a000000eb000080fa00d6
:100ab000000006008001eb000200370061f07900c1
:100ac0008301e800828f5100fcff3a00000006001d
:100ad000889fbe008a9fbe008c9fbe0000017800e8
:100ae00001db20001100e0000b003a0040db200099
:100af000806d8800606d8800a16d8800716d880030
:100b0000214090000004a000a040980061409000a7
:100b10000004a000e0409800e7004100c208de00a9
:100b2000c20cdd00746d8000addb2000201a2100b6
:100b30000d05500022002000811f780011000900df
:100b40000205d80000067800cf007800c308dd0059
:100b5000e48540008001eb00a6db200005db2000df
:100b60000100370001027800244090000008a30033
:100b7000020032000a003700110a78009400780061
:100b8000214090000008a300fbff32000901420051
:100b9000828f500002003900840f5100460031005e
:100ba00094007800848f5000eeff3e00868f500046
:100bb00002003900858f5000eaff3900606d800027
:100bc000800f52004f003a00858f50004d003a00d0
:100bd0008301e800e18f5100e2ff36008c8f540062
:100be000040036008a8f5400020031000b047800a4
:100bf00012003700614ab8006151b900b0ff2f0000
:100c0000010020000200500083805800800f520035
:100c1000818f5a0002003500090478000700370070
:100c20000d805400521a21000200400011000900fa
:100c30000a80d8000a80b900000478000800780013
:100c40006800070080017800e10f40002d003200ad
:100c5000606d800003087800626d800064004100d0
:100c6000a2409000808f5100020032000104a000d9
:100c7000010037000104a1002141980008804100d3
:100c80006400500080097800606d880002db20005d
:100c900002087800616d8000214090000004a000ef
:100ca000a0409800234090000004a100a0419800bb
:100cb00002027800a7ff3700726d8800828f500013
:100cc0000900360092007800a0da2000a2419000ce
:100cd00003487800416d8800140978008040eb00db
:100ce000706d800021409800706d8000000a7800cf
:100cf000244090000004a0002042980064004200bc
:100d0000010037000000eb004f06be004f05be009b
:100d10004f04be000000060064005000706d8800a3
:100d2000a04090000104a1002140980000000600ae
:100d3000889fbe008a9fbe0000057800e401500035
:100d400013001000c285de00234090000008a300bd
:100d500004003200736d8800234090000004a1005d
:100d6000a04198000100780059ff070000047800b6
:100d70000000e000170032008a0f5000150032001a
:100d800060b8970008005000c284de00898f5500cb
:100d900001003600890578004259dd008a0078009c
:100da0000800780043ff07008a0f54000900310053
:100db0004248dd00000044008a0f50000500360064
:100dc0000a00500000004400426d8000536d800016
:100dd0000288be00080078004f05be004f04be0028
:100de00000000600889fbe0080047800c06d80006f
:100df0000000e00003003a00100007000000e000df
:100e00000a003500c06d80000900e00002003a00d1
:100e10000004780006003700000478000900400054
:100e2000060007000000e00001003d000084eb0028
:100e3000080078004f04be00000006008000780023
:100e40000000e00004003a00a0db2000c06d880034
:100e500001017800060037000081eb00201a210014
:100e6000808f500002003e00c16d88000001eb0041
:080e70000200780000000600fa
:020000040000fa
:020000040002f8
:04aff400ffff00005b
:020000040000fa
:020000040002f8
:04aff8002ef800002f
:020000040000fa
:020000040002f8
:04affc00d93f000039
:020000040000fa
:10000800c8020000c8020000c8020000c8020000c0
:10001800c8020000c8020000c8020000c8020000b0
:1000280052870000c8020000c8020000c802000091
:10003800c8020000c8020000c8020000c802000090
:100048004a860000c8020000c8020000c80200007a
:10005800c8020000dc860000c8020000c8020000d8
:10006800c8020000c8020000c8020000c802000060
:1000780052920000c8020000c8020000c802000036
:10008800c8020000c8020000c8020000c802000040
:10009800c8020000c8020000c8020000c802000030
:1000a800c8020000c8020000c8020000c802000020
:1000b800c8020000c8020000c8020000c802000010
:1000c800c8020000c8020000c8020000c802000000
:1000d800c8020000c8020000c8020000c8020000f0
:1000e800c8020000c8020000c8020000c8020000e0
:1000f800c8020000c8020000c8020000c8020000d0
:10010800c8020000c8020000c8020000c8020000bf
:10011800c8020000c8020000c8020000c8020000af
:10012800c8020000c8020000c8020000c80200009f
:10013800c8020000c8020000c8020000c80200008f
:10014800c8020000c8020000c8020000c80200007f
:10015800c8020000c8020000c8020000c80200006f
:10016800c8020000c8020000c8020000c80200005f
:10017800c8020000c8020000c8020000c80200004f
:10018800c8020000c8020000c8020000c80200003f
:10019800c8020000c8020000c8020000c80200002f
:1001a800c8020000c8020000c8020000c80200001f
:1001b800c8020000c8020000c8020000c80200000f
:1001c800c8020000c8020000c8020000c8020000ff
:1001d800c8020000c8020000c8020000c8020000ef
:1001e800c8020000c8020000c8020000c8020000df
:0801f800c8020000c80200006b
:020000040000fa
:10020800c8020000c8020000c8020000c8020000be
:10021800c8020000c8020000c8020000c8020000ae
:1002280052870000c8020000c8020000c80200008f
:10023800c8020000c8020000c8020000c80200008e
:100248004a860000c8020000c8020000c802000078
:10025800c8020000dc860000c8020000c8020000d6
:10026800c8020000c8020000c8020000c80200005e
:1002780052920000c8020000c8020000c802000034
:10028800c8020000c8020000c8020000c80200003e
:10029800c8020000c8020000c8020000c80200002e
:1002a800c8020000c8020000c8020000c80200001e
:1002b800c8020000c8020000c8020000c80200000e
:1002c800c8020000c8020000c8020000c8020000fe
:1002d800c8020000c8020000c8020000c8020000ee
:1002e800c8020000c8020000c8020000c8020000de
:1002f800c8020000c8020000c8020000c8020000ce
:10030800c8020000c8020000c8020000c8020000bd
:10031800c8020000c8020000c8020000c8020000ad
:10032800c8020000c8020000c8020000c80200009d
:10033800c8020000c8020000c8020000c80200008d
:10034800c8020000c8020000c8020000c80200007d
:10035800c8020000c8020000c8020000c80200006d
:10036800c8020000c8020000c8020000c80200005d
:10037800c8020000c8020000c8020000c80200004d
:10038800c8020000c8020000c8020000c80200003d
:10039800c8020000c8020000c8020000c80200002d
:1003a800c8020000c8020000c8020000c80200001d
:1003b800c8020000c8020000c8020000c80200000d
:1003c800c8020000c8020000c8020000c8020000fd
:1003d800c8020000c8020000c8020000c8020000ed
:1003e800c8020000c8020000c8020000c8020000dd
:0803f800c8020000c802000069
:020000040000fa
:100e7800020100000f0f00000005000000800000c4
:100e88001006000000000000000000000000000044
:100e9800000a00000000000001000000020000003d
:100ea8000300000004000000050000000600000028
:100eb8002000000021000000220000000a000000bd
:100ec8000080000001800000028000000380000014
:100ed80004800000058000000680000020800000db
:100ee8002180000022800000f000000003010000c3
:100ef800ffff0000000300002200000009000000be
:100f080019000000070000000000000000000000b9
:100f180000000000000000000000000000000000c9
:100f28000600000005000000060000000a0000009e
:100f38001a00000008000000010000000000000086
:100f48000000000000000000000000000000000099
:100f58000000000000000000000000000000000089
:100f68000000000000000000000000000000000079
:100f78000000000000000000000000000000000069
:100f88000000000000000000000000000000000059
:100f98000000000000000000000000000000000049
:100fa8000000000000000000000000000000000039
:100fb80010c1000000400000ce000000000000004a
:100fc8007f00000000000000000000007800000022
:100fd80000000000b4000000000000002c01000028
:100fe800000000001c02000000000000fc030000dc
:100ff80000000000bc070000000000003c0f0000db
:10100800000000003c1e0000000000003c3c000006
:10101800000000003c780000000000003cf00000e8
:10102800000000003ce00000010000003cc000009f
:10103800030000003c800000070000003c000000a6
:101048000f000000536500006e640000696e000028
:101058006720000077610000726e0000696e000072
:101068006720000066690000726500002d660000b8
:101078006f7200006573000074200000746f000038
:1010880020520000450d00000a0000003031000029
:10109800323300003435000036370000383900009c
:1010a80041420000434400004546000073740000bc
:1010b80061720000740a0000006500006e640000a0
:1010c80000000000350000000004000000a300003c
:0410d8000400000010
:020000040000fa
:1010dc008000eb00d0568000f007b2000100320017
:1010ec00110020000100780000000600881f780025
:1010fc0004a9a900e42cef00e62cef003066800078
:10110c00106688000044eb001066800022c1b3001a
:10111c0081cd2000304807000844e8002001200061
:10112c00c22cb400f94f5400f7ff3a00ca6cef0020
:10113c0008007800cbecb700d46cef00d56cef0056
:10114c00d60ca900c0532a00406688002066800097
:10115c0002c1b30081cc20001f4807004f04780067
:10116c0000000600889fbe008a9fbe008c1f78007e
:10117c00000578000106780082057800d0658000b3
:10118c00c06588008044eb0009447800c16580008c
:10119c0062c0b300c0cb2000d1470700e0658000df
:1011ac008a0f5000100032000844e8006000200054
:1011bc00b82cb400ef4f54000e003e000904e000c0
:1011cc00f2ff320000668000000e7800beccbf003b
:1011dc00804d78000980fb004f0678004f05be005b
:1011ec004f04be000000060019c0b300ef4f5400be
:1011fc00f2ff36000904e000f2ff3a0030c0b30001
:10120c00804d78000000eb004f0678004f05be00c3
:10121c004f04be0000000600f3ff37003c4bec000f
:10122c003cebb70002003a0010c0b3003cebb70037
:10123c000080fb000000060088c9bf008000eb00a6
:10124c00050032000040e90088e9b700504c8000ee
:10125c00b080fb00504c88000100780000000600b4
:10126c00889fbe008a1f78000004eb000080fb0002
:10127c0000004000640540007240b900c60cb40088
:10128c001066880022c1b3008000780080cd200059
:10129c009347070001678000804c8000808f5000ce
:1012ac00060032000804e800f90f5400f2ff3a007f
:1012bc004f0578004f04be0000000600a0ad2000d2
:1012cc006a0078008880fb00f68040008080400037
:1012dc00114090000004a100904098004f05780048
:1012ec004f04be0000000600f4ff3700889fbe00cc
:1012fc008a9fbe0000437800830578000044eb0011
:10130c00e5ab200067ac2000950178000300e000fd
:10131c00190032000604e00003003200634890001c
:10132c00814f5000110032008582e800858f5300f8
:10133c00f5ff3a0009c1b3000404e00001003500d8
:10134c0089c0b3000804e00004003200d0658000be
:10135c00c06588000904e0000c003a000000eb00b6
:10136c004f05be004f04be00000006004300900075
:10137c00820f5000ecff3a0018c0b3008582e800e1
:10138c00858f5300e0ff3a00eaff37000045eb0081
:10139c000a447800c165800062c0b300c0cb200055
:1013ac004f470700e06580008b0f50000d003200a6
:1013bc00f0658000e30f50000a0032000844e8009a
:1013cc0060002000b82cb40088cf5400f1ff3a0024
:1013dc000a80fb004f05be004f04be000000060053
:1013ec00e2ff37001ac0b3000844e8006000200098
:1013fc00b82cb40088cf5400e6ff3a00f4ff370055
:10140c00889fbe008a1f7800000578003066800037
:10141c00106688000004eb001166800022c1b30046
:10142c0080cd20002e470700e72cab0009003a00c6
:10143c0020012000c22cb4000804e800f90f54006d
:10144c00f5ff3a00080078004f0578004f04be0005
:10145c0000000600006780008a0f5000f4ff3a007d
:10146c000880fb004f0578004f04be00000006000a
:10147c00f8ff3700800178000409a80022c0b300ef
:10148c00020078008ee9b70030618000604c880063
:10149c0044618000844c88000001fd008fe9b70096
:1014ac000001fd00004d8800c34c880022ccbf0019
:1014bc0080487800a2e9b7008b69ef00e18f41000a
:1014cc00080032008b09a80003007800ccff07004d
:1014dc00f94f500003003200e70cab0001003a005a
:1014ec008b49a80010c0b3008ae9b70000000600c1
:1014fc000200fa00889fbe008a9fbe00800578001b
:10150c0002047800e4cf5000120032000180fb008e
:10151c0000004000e1ab200060807800205090007b
:10152c0062c0b3000440bc00d16580008100410062
:10153c00c165880062c0b300c0cb2000e84607003c
:10154c00be2cef00c065800062c0b300c1cb200090
:10155c002147070071902000914078000181fb0029
:10156c008990200020c0b30000f17c000140e8000d
:10157c0007e9b7000080fb001841900002f07c00e6
:10158c0001c0e80007e9b7000080fb00284190008b
:10159c0002f07c0063c040000080fb000bf07c007c
:1015ac0064c04000485dde000080fb000af07c0057
:1015bc0065c0400007e9b7000080fb00484190007f
:1015cc0002f07c0066c0400007e9b7000080fb0019
:1015dc005841900002f07c0067c0400007e9b7005a
:1015ec000080fb006844900008f07c00e8c04000dc
:1015fc008000fd0007e9b7008000fd006890200026
:10160c001844780005ff07008880fb0080f07c0000
:10161c000840e9000080fb00a1c0b30001f07c0091
:10162c0008c0e9000080fb0091c2200011f07c0092
:10163c00634054000080fb0081c2200011f07c004c
:10164c00644054000080fb000af07c0065405400ac
:10165c000080fb000bf07c00664054000080fb0017
:10166c008040eb0001f07c00674054000080fb00e0
:10167c0091c0b30001f07c0068445400080078006d
:10168c0006e9b700804c8000ea80570079ff07001c
:10169c004f05be004f04be000080fa00000006009b
:1016ac000400fa00889fbe008a9fbe008c1f780041
:1016bc00800578000105780002067800d16580006d
:1016cc00c165880062c0b300c0cb2000844607000f
:1016dc000044eb00e06580008b0f50001b003200d3
:1016ec000844e800c1658000e6804000c1658800c0
:1016fc0062c0b300c0cb200079460700f04f540005
:10170c00f4ff3a00d1658000c165880062c0b30067
:10171c00c0cb2000724607000044eb00f06580004f
:10172c00e30f5000090032000844e800c165800056
:10173c00e6804000c165880062c0b300c0cb2000c9
:10174c0067460700f04f5400f4ff3a00084e78004b
:10175c000000eb00e8ab2000080178008040780026
:10176c00800478001200e000060032008140e8009e
:10177c000900e8000281e800e40f5000f7ff3a008e
:10178c008184fb00014d780040c1b300634a07001f
:10179c00800078000980440008054000010d7800a5
:1017ac000100e0001d003200eb65880019002000ec
:1017bc00f9658800c065800062c0b300c1cb200011
:1017cc00854607009a00780000c0eb008050980016
:1017dc001a0478006e805700414a07001fb8970022
:1017ec00afb89700008cbe001a0078001c46780039
:1017fc002c5098009a0078000000eb00e000980054
:10180c00da2aa800090078004f0678004f05be00c0
:10181c004f04be000080fa000000060001007800b2
:10182c004f0678004f05be004f04be000080fa0042
:10183c0000000600f9ff37000400fa00889fbe0084
:10184c008a9fbe008c1f7800000678000000eb0019
:10185c00e1ad200080447800000478001100e00025
:10186c00080032008944e8000800e8008180e800a4
:10187c00e70f5000f7ff3a00e7cf54002f0032007b
:10188c000984fb0000c3b300244a0700880044000d
:10189c00e4854000aaad200080357d000000e0000a
:1018ac0026003200094e7800eb007d0000c0eb00f2
:1018bc00c04898006b047d006e805700084a0700f2
:1018cc001fb89700afb8970070049800010c9800ef
:1018dc00100c9800210c9800eb007d003108900052
:1018ec000050a100b00898006b017d0032089000f8
:1018fc0001ff2f00010060000010a00030099800cb
:10190c000001eb008b00780033c0b30061007d0058
:10191c0002004000735098000201e800f90f5100da
:10192c00faff3a00100020004f0678004f05be0069
:10193c004f04be000080fa00000006000000eb001f
:10194c004f0678004f05be004f04be000080fa0021
:10195c0000000600f9ff3700a74de20005003a0031
:10196c000e0cab0019003a000040eb000080fb00ad
:10197c000000060040cd200031c1b30090cf100014
:10198c00030036000040eb000080fb000000060066
:10199c008829ab0018003200c0cc200041c0b30035
:1019ac0090cf1000f7ff3e0050cd200051c0b30087
:1019bc0090cf1000f3ff3e00db8aab00f1ff3a0042
:1019cc0010c0b3000080fb000000060040cd2000da
:1019dc0031c1b30090cf1000e3ff3e008829ab006b
:1019ec0009003a00db6aab0007003a0010c0b300f4
:1019fc000080fb0000000600db6aab00e6ff3a004b
:101a0c0010c0b300efff3700c0cc200041c0b300c2
:101a1c0090cf1000d4ff3e0050cd200051c0b30039
:101a2c0090cf1000d0ff3e00db8aab00efff3200fe
:101a3c000040eb00cdff3700889fbe003066800071
:101a4c00106688000004eb001166800022c1b30010
:101a5c0080cd2000a2450700e72cab000800320027
:101a6c0020012000c22cb4000804e800f90f540037
:101a7c00f5ff3a00080078004f04be000000060095
:101a8c000880fb004f04be0000000600fcff37007e
:101a9c00d1082000e24f5000080032000900360047
:101aac0051012000e34f50000400320011002000cf
:101abc00e44f5000010032008000eb000100780080
:101acc0000000600d14321000004e000fbff3200bf
:101adc00e14f5000f8ff3a00d0352000000006001e
:101aec00f8ff3700889fbe000004be000204e0002f
:101afc000a003200810f5000030039000000eb0097
:101b0c004f04be00000006000240e900e0ff0700a1
:101b1c0000004400808f5400f8ff310010002000ba
:101b2c004f04be0000000600f7ff3700889fbe0080
:101b3c008a9fbe000005be003066800010668800db
:101b4c008044eb001166800022c1b30080cd2000e0
:101b5c006345070030678000002cb2000124200090
:101b6c00810f50001200320020012000c22cb40062
:101b7c008944e800f9cf5400f2ff3a00c2cc2000af
:101b8c0012417800406180008a007800d5ff070080
:101b9c000004e00016003a0000618000800d78001f
:101bac00100020004f05be004f04be0000000600d0
:101bbc0008678000880f550007003200cc4cec0001
:101bcc00004178008a00780008007800c5ff070003
:101bdc000004e000e4ff3200880d780010002000c3
:101bec004f05be004f04be0000000600f0ff37009a
:101bfc000000eb004f05be004f04be0000000600c5
:101c0c00ebff37000004e0001f0032000f6cef0008
:101c1c0010c2b30010ecb700c1cc2000914078008a
:101c2c004309dd000200780011ecb70040cd200024
:101c3c0033c1b30090cf110013003e00a0cc2000a4
:101c4c0083c1b30090cf11000f003e00d35680002b
:101c5c0003b8a3000d003a00e4cf50000a003e0088
:101c6c000274a0000200780011ecb70050cd2000e7
:101c7c0051c0b30090cf100003003e0003c8a30076
:101c8c0001003a00114ca80000000600e4cf5000ff
:101c9c00f6ff360000000600316780000101780075
:101cac00020cb20000042000800f51001000320022
:101cbc000200e00002003a0090c1b300cbecb70088
:101ccc00e72ca900e42cef00e62cef001066800056
:101cdc0022c1b30081cd20003f450700ca6ced0046
:101cec002066800002c1b30081cc20003a45370049
:101cfc00d46ced000103b200f08f50000f003200e5
:101d0c0010c0b300bfff0700e72ca900e42cef00c4
:101d1c00e62cef001066800022c1b30081cd2000bc
:101d2c002d450700ca6ced002066800002c1b3008f
:101d3c0081cc200028453700edff3700d56ced0035
:101d4c0010c0b300afff0700efff370080cd2000bd
:101d5c000199200007000900315878003461800097
:101d6c0014678800e8ecef00414c80000118a300d8
:101d7c001d003a00e68ca900e6aca8008066800045
:101d8c00006788000000e80080668800e20f4000d1
:101d9c0039003200c508dd000110b2003067800048
:101dac000080a1000100700030678800e6cca8001c
:101dbc00e6eca900e72ca8001066800022c1b30055
:101dcc0081cd200004450700d46cec00ca6cec00fb
:101ddc002066800002c1b30081cc2000fe440700c5
:101dec0010c0b30087ff3700e68ca800e6aca90052
:101dfc009066800000678800d56cec0072668000ed
:101e0c0002004000906688006611b90044618000b1
:101e1c0004014100820f5000deff3600db8aa8006f
:101e2c00c508dd000110b200306780000080a10001
:101e3c000100700030678800e6cca800e6eca90031
:101e4c00e72ca8001066800022c1b30081cd2000d1
:101e5c00e1440700d46cec00ca6cec0020668000f6
:101e6c0002c1b30081cc2000db44070010c0b300da
:101e7c0064ff3700dcff3700db6aa800c508dd0013
:101e8c000110b200306780000080a10001007000da
:101e9c0030678800e6cca800e6eca900e72ca80087
:101eac001066800022c1b30081cd2000ca44070017
:101ebc00d46cec00ca6cec002066800002c1b3004c
:101ecc0081cc2000c444070010c0b3004dff370084
:101edc00c5ff3700889fbe008a9fbe000005be006c
:101eec0030668000106688000004eb0011668000ec
:101efc0022c1b30080cd200079440700e72cab0051
:101f0c0009003a0020012000c22cb4000804e800ab
:101f1c00f90f5400f5ff3a00080078004f05be0099
:101f2c004f04be0000000600006780008a0f5000be
:101f3c00f4ff3a00106780008b0f5000f1ff3a005d
:101f4c000880fb004f05be004f04be0000000600d9
:101f5c00f5ff3700ec874700889fbe008a9fbe00c4
:101f6c008c9fbe008e1f78008044780081457800dd
:101f7c000000eb0022af20008040780000047800c5
:101f8c001200e000080032008140e8000800e80080
:101f9c000281e800e60f5000f7ff3a00e6cf500050
:101fac00920032000184fb00c0c0b3005b48070004
:101fbc00800078000806440078044600aaad200092
:101fcc0000347d000000e000880032000904e000cd
:101fdc0024003a00c0ff2f008a29b400824c8000f4
:101fec00a2009800e8007d008a09ed00504c8800a2
:101ffc0010407800f0409800e8007d008a09ed0060
:10200c00504c880010407800e04098008aa9ed0000
:10201c0088c9bf006840400088e9b700e8007d002f
:10202c00a040980068007d00204090003b480700cd
:10203c00800478000000e00074003a0068007d0025
:10204c003848070009347d00400020004f07780015
:10205c004f06be004f05be004f04be00cf00b100be
:10206c000000060040618000a000980068007d0020
:10207c00c14c80003100980068017d0006c9bf008a
:10208c000749b50071c8b3000140400020419800d9
:10209c0068007d00204090002048070080047800f4
:1020ac000000e000e5ff320068007d0009087800c0
:1020bc004658dd000034a000804c780089c9bf0070
:1020cc000040400090449800829920001241780012
:1020dc00a244980099c9bf00b044980081c2200066
:1020ec0091407800c144980092c2200012417800bf
:1020fc00d24498000b9920009b457800eb44980043
:10210c00a2c9bf00f04498006881440006c9bf0012
:10211c00e1c7b300814f500008003e0083902000bf
:10212c000040e80006e9b7000080fb0060d97900a8
:10213c0006c9bf00814f5000f9ff36000749ed007a
:10214c0007e9b700e14f4000090032008200780037
:10215c008390200002c050000080fb00e0d8790082
:10216c000749ed0007e9b700e14f4000f9ff3a00dd
:10217c00f8044600acad200069047d007680570061
:10218c00d74707005fb09700efb097004004980066
:10219c005104980069007d00300090007881570050
:1021ac00f78057003efd07000004e00038003a00bd
:1021bc0069007d0010007800da47070069007d0097
:1021cc00d84707000000eb0080347d004000200061
:1021dc004f0778004f06be004f05be004f04be00ef
:1021ec00cf00b100000006009eff37004000200029
:1021fc004f0778004f06be004f05be004f04be00cf
:10220c00cf00b1000000060096ff370068007d008b
:10221c000908780008fc0700f043b200c658dd003e
:10222c0080cc700004fc07009044980002fc07006e
:10223c00a044980000fc0700b0449800fefb070087
:10224c00c0449800fcfb0700d0449800fafb070040
:10225c008045e900eb449800f7fb0700f044980038
:10226c00688444008849e200c1ff3200f2fb070099
:10227c00005c78008849e200bdff3200eefb0700ed
:10228c00005c78008849e200f8ff3a00b8ff37009c
:10229c000409a900f0c7b30006e9b7000047eb003a
:1022ac000e00780007e9b7001fe897000080fb00dc
:1022bc0000004000edab200060847e00e0c0b30065
:1022cc009647070000057800600498000000e000c5
:1022dc001d003a0010002000f0658800c0658000e9
:1022ec0062c0b300c1cb2000bb4307001fe89700be
:1022fc000080fb000000400060807e0089470700e2
:10230c001fe897000080fb00000040000ab07e0030
:10231c0069007e00100078008247070069007e008b
:10232c00804707008a347e00400020004f07780069
:10233c004f06be004f05be004f04be00cf00b100db
:10234c000000060047ff37001fe897000080fb00e5
:10235c000000400060807e0011af200091407800aa
:10236c00614898001fe897000080fb0000004000c7
:10237c000d0040009000780042618000c20098007f
:10238c00100078007e4898001fe897000080fb0042
:10239c00000040000d004000900178009308900070
:1023ac00f28f2f008280600001a0a000910998009c
:1023bc00900078001108900000b0a10090089800df
:1023cc0010c0b300004d780000c8b3001045980051
:1023dc00f1cabf00204598000040e800f1eab700c0
:1023ec0069007e00604090003045980069007e00d6
:1023fc0070409000404598005e45980087fb0700b0
:10240c00604598007b45980029ccbf00004d980092
:10241c0081c2200091407800114d980000c0eb0063
:10242c00204d9800c0cfb300304d98004e4d980011
:10243c0090c0b300504d9800728057002847070099
:10244c001fe897000080fb000000400060827e00c7
:10245c007fb097008fb89700d21f2c00f3ff2f008e
:10246c000000410081804900200298003102980050
:10247c00100020004f0778004f06be004f05be002d
:10248c004f04be00cf00b10000000600f5fe37007f
:10249c000200fa00889fbe008a9fbe00804578002b
:1024ac00010478000245780083047800010078006c
:1024bc00d3fb0700f94f5000070032003167800052
:1024cc00010cb20000042000808f50001e0032006e
:1024dc000100e0001c0032004261800004c8b3001f
:1024ec00880178008040eb00014078007ffb0700fa
:1024fc000004e00009003200e24f550022003200d7
:10250c006a8157000800be0016fb07000004e000bb
:10251c0014003a00e14f5500230032000800be00c1
:10252c0082fd07000004e00011003a0010cdb3005a
:10253c0088e9b700200020004f05be004f04be0004
:10254c000080fa0000000600880c78000000eb0008
:10255c004f05be004f04be000080fa0000000600cc
:10256c00f9ff37006ff097000004e000ebff3a0032
:10257c000000eb004f05be004f04be000080fa00c7
:10258c0000000600f0ff370011c0b3000b407800cc
:10259c0070fe07004f05be004f04be000080fa001d
:1025ac0000000600e8ff37008a4078000b407800f6
:1025bc0068fe07004f05be004f04be000080fa0005
:1025cc0000000600e0ff3700881f78003000200074
:1025dc00f0658800bcacef00d0658000c065880059
:1025ec000044eb00c065800062c0b300c1cb20008a
:1025fc00f94207000844e80060002000b82cb40041
:10260c00f04f5400f7ff3a004f047800000006002a
:10261c00889fbe008a9fbe0000457800300880006d
:10262c003cebb7000469ef00d1568000da2aef00ca
:10263c00dc2aef000000220080806000d056800071
:10264c0000d0a10001007000d0568800e0b320003b
:10265c00a1b820000048eb000080e800808f5000fb
:10266c00fcff3a000a04e00004003a00c058800065
:10267c000000e00001003200aa460700182bef0012
:10268c008004eb00e8ad2000880578000a04e00027
:10269c0007003a00180078000000e0000400320047
:1026ac00100078009f460700180078009d46070030
:1026bc00801deb008904e8000884e800e78f5400d3
:1026cc00f2ff3a008004eb0028af20008805780068
:1026dc000a04e00007003a00180078000000e0004f
:1026ec0004003200100078008e46070018007800b5
:1026fc008c460700801deb008904e8000884e80084
:10270c00e68f5400f2ff3a000004eb00e9ab200026
:10271c00890578000a04e00004003a0019007800ea
:10272c000000e000010032007e460700801deb0037
:10273c000804e8008984e800e40f5400f5ff3a002f
:10274c00a1ff07004f05be004f04be0000000600ad
:10275c0010c0b300aeff07002166800002c1b300b9
:10276c0080cc20005e42070041668000c0532a00e6
:10277c00808f50000e0032005cfa070080ac200005
:10278c00c1ad20000048eb0064004000810f5000f8
:10279c00fcff3a0000b0200081b120000088eb0063
:1027ac0064004000808f5000fcff3a0000000600df
:1027bc00b0cc200091c1b30090cf1000efff3200dd
:1027cc0004a9a80080ac2000c1ad2000edff3700ab
:1027dc000800fa00881f7800ea80570062862800fb
:1027ec0007000900b25878008100b1000004eb002a
:1027fc008200200092f807000000e00001003a007f
:10280c0018002000080078004f0478000080fa00bf
:10281c0000000600889fbe008a1f78000005780023
:10282c0030668000106688000004eb0011668000a2
:10283c0022c1b30080cd200029420700e72cab0059
:10284c0009003a0020012000c22cb4000804e80062
:10285c00f90f5400f5ff3a00080078004f05780096
:10286c004f04be00000006008200200081cd200035
:10287c000a00780072f807000000e000f1ff3a004f
:10288c000880fb004f0578004f04be0000000600d6
:10289c00f5ff37004f05b000889fbe008a9fbe0031
:1028ac008c9fbe008e1f78000047eb000004780060
:1028bc0000fc2f0000804700094607000fa6970078
:1028cc009fa69700da4aab000d00320064578000d7
:1028dc00755780000402560085825e0002af20000e
:1028ec00124178000281fb000300200040422f00bf
:1028fc000010b800800f5200818f5a0035003e0046
:10290c000800e00023003a0004c9bf000008a3003f
:10291c0027003a00d25680000208a30093003a0028
:10292c000218a300b9003a000200e0002e013500a5
:10293c000278a30053073200daeaa9008acbbf0061
:10294c0088e9b7008bcbbf0089e9b700915c8000a8
:10295c00814c8800d25c8000e35c8000c24c880013
:10296c00d34c8800f45c8000055d8000e44c88004a
:10297c00f54c8800c3042000030078004f07780052
:10298c004f06be004f05be004f04be004f05b10000
:10299c00000006006140b80071005000e080580053
:1029ac0014062000840f5000e08f58000c003600f5
:1029bc008001eb00030078004f0778004f06be0043
:1029cc004f05be004f04be004f05b10000000600cd
:1029dc00f0ff37000e0ca900da4aa900c8ff370037
:1029ec0000600100ee02370064033700f0ff37008f
:1029fc00efff3700eeff3700b2033700ecff370074
:102a0c00e7033700eaff3700e9ff370032033700ee
:102a1c00d5033700e6ff3700e5ff3700e4ff37004a
:102a2c00e3ff3700e2ff37006c023700e0ff3700ae
:102a3c00dfff3700bd043700ddff3700dcff370058
:102a4c00dbff37003704370073043700d8ff37003b
:102a5c00d7ff3700d6ff37003c033700d4ff3700d1
:102a6c00d3ff3700d2ff370012043700b90237000a
:102a7c00cfff3700ceff3700cdff3700ccff37003c
:102a8c00cbff3700caff3700c9ff3700c8ff37003c
:102a9c00c7ff3700c6ff3700c5ff3700c4ff37003c
:102aac00c3ff3700680237005d0237008f04370020
:102abc000f0437006c043700f9023700a704370005
:102acc009f03370048043700b9ff3700b8ff3700c1
:102adc00b7ff3700b6ff3700b5ff3700b4ff37003c
:102aec00b3ff3700b2ff3700b1ff3700b0ff37003c
:102afc00afff3700aeff3700adff3700acff37003c
:102b0c00abff3700aaff3700a9ff3700a8ff37003b
:102b1c00a7ff3700a6ff3700a5ff3700a4ff37003b
:102b2c00a3ff3700a2ff3700a1ff3700a0ff37003b
:102b3c009fff37009eff37009dff37009cff37003b
:102b4c009bff37009aff370099ff370098ff37003b
:102b5c0097ff370096ff370095ff370094ff37003b
:102b6c0093ff370092ff37000f02370088b79f00a2
:102b7c00ebad20001b0478000800e00011003200cf
:102b8c0018089000a80890000001560081815e0092
:102b9c00770133000200be00dcf6070002a02b0018
:102bac00b3752400d7f607000000e000e8003400fd
:102bbc00180078005b4507001b007800594507009a
:102bcc00800deb000fb297000402e80084b79f0061
:102bdc008b85e800e70f5200e6ff3a008040eb00df
:102bec00e0ad20001000e00005003a008140e80054
:102bfc000080e800e7cf5000faff3a00da0aa9009b
:102c0c00d25680000218a30047ff32000002eb00ee
:102c1c00e9ab2000090178000904780092007800e3
:102c2c000100e0000e003200e10190000300e00022
:102c3c000b0032001108900000b8a3007d003a0090
:102c4c0021009000b10090000000560081805e00d1
:102c5c0025e02300850f5000e08f58007d003e00da
:102c6c000402e8000884e8000281e800e40f520046
:102c7c00eaff3a00e8ab200069ac200018027800ab
:102c8c000400e0000700320034015600a4815e000d
:102c9c008096280091002000800f5100818f5900f0
:102cac003c003e000884e800888f5400f3ff3a0093
:102cbc008041eb0083679f0003407800aaad2000a1
:102ccc000007eb00899020000080fb000000400012
:102cdc0078004000a4ad200060007a000000e00005
:102cec000d0032003000900005fa2f008f82420058
:102cfc000581e800e48042001af907000004e000b6
:102d0c00a90532002f6197000204e000cd053200c6
:102d1c00e24f5100320132000f6297000440e8008c
:102d2c0080679f00e54f5000e7ff36008042eb00c4
:102d3c0085679f00d0658000c0658800c1658000f4
:102d4c0062c0b300c0cb2000e5400700f8658000ee
:102d5c00e20f5400460532008f6097008140e80076
:102d6c0081679f0060002000b82cb400efcf5000aa
:102d7c00f2ff36008041eb0083679f00f20ae2000d
:102d8c007f013200d25680000200e000e8fe3d00d8
:102d9c00150037002450900062c0b3000440bc0002
:102dac00d165800081004100c165880062c0b3001c
:102dbc00c0cb2000ca400700f0658000e10f500036
:102dcc00f500320018007800600090000000e00070
:102ddc0001003200d344070018007800d1440700ea
:102dec00000ceb00afff3700805980009159800038
:102dfc000000560081805e0005802700850f500082
:102e0c00e08f5800cafe3600a0ccb30088e9b700aa
:102e1c008ea9ef00a00320004f0778004f06be00dc
:102e2c004f05be004f04be004f05b1000000060068
:102e3c00d8fe370021009000b10090000000560031
:102e4c0081805e00954a2b00850f5000e08f580062
:102e5c0083ff36000040eb0080679f0085902000c8
:102e6c0007c9bf008080fb003341780082f07a00f4
:102e7c000040e80007e9b7000f6297000440e80043
:102e8c0080679f00e54f5000f5ff36000040eb00d7
:102e9c0080679f006b9020009b4578000b80fb00a7
:102eac0033f07a008b45e9000b00780006e9b70097
:102ebc000f6197000240e80080679f00e74f5000c9
:102ecc00f6ff3600980078001108900000b0a100c1
:102edc009008980098017800130990004810de00c3
:102eec0067404000670060004800dd00f18f2f0054
:102efc00010161000001710092099800180078002e
:102f0c002c0098003d009800180178009208900061
:102f1c000070200080846000a303320001fa2f00af
:102f2c008f8040000080eb0052f907000301200065
:102f3c00030078004f0778004f06be004f05be0017
:102f4c004f04be004f05b1000000060091fe370093
:102f5c00b80c90000902b2001aff3a000e10a10042
:102f6c00484d9000f94f5500d2043200e14f450016
:102f7c0090003200894178008a84fb000a40780076
:102f8c0022c1b3000440bc003166800081004100c6
:102f9c001166880022c1b30080cd2000f3b79f00da
:102fac004f40070032678000820078000120b20099
:102fbc00ffb1970094043a00768044001b00400057
:102fcc00114098000a45e800e1c061004208dd00ac
:102fdc000e24a100004777000e28a30002003a003f
:102fec00f84f5500e4ff36001b0478004a4c98005b
:102ffc004208dd000e24a100004777000e28a30034
:10300c00f0fe32000e18a300920a3a008fb097001f
:10301c000184400069c2b3006190200091407800a7
:10302c000181fb008590200064004400a4ad2000c9
:10303c00e0017a003340900000f17a008145e9000c
:10304c000b00780006e9b7000b80fb0043419000b1
:10305c0002f07a0081c5e9000b00780006e9b700a0
:10306c000b80fb007342900004f07a00e3c5500023
:10307c000b00780006e9b7000b80fb006341900061
:10308c0002f07a00e4c550000b00780006e9b700a6
:10309c000b80fb00134a900004f07a00e5c5500049
:1030ac000b00780006e9b7000b80fb000349900089
:1030bc0002f07a00e6c550000b00780006e9b70074
:1030cc000b80fb00234a900004f07a00e7c5500007
:1030dc000b00780006e9b7000b80fb003349900029
:1030ec0002f07a00e8c550000b00780006e9b70042
:1030fc000042eb0084679f0013017800234090008e
:10310c000004e000cf033a002f90970001fa2f0043
:10311c008f804000d7f8070060c2b30080cf540006
:10312c00ab1032008980fb0081804000d0b32000be
:10313c000f6197008270780064004400a3ad2000fa
:10314c0060817900e0b320003241900082707800f9
:10315c00000120004f0778004f06be004f05be004f
:10316c004f04be004f05b1000000060009fe3700f9
:10317c0061006100010020008301d1000281d300b5
:10318c00020070008380700060f507000001be0033
:10319c00fff4070081fe370020002000f065880056
:1031ac00c065800062c0b300c1cb20000a4007009c
:1031bc0004ff37007800900088089000000056004b
:1031cc0081805e0042a52500820f5000e08f5800e0
:1031dc00fc043e00894078004a4c980084ff37007c
:1031ec000f6197008281fb00038041007800400052
:1031fc0060007d00a000900040618000808f500036
:10320c006b043200689020001844780003f8070023
:10321c008880fb0080f07c008845e9008b80fb00f7
:10322c00a0c0b30080f07c0088c5e9000b80fb00d7
:10323c0091c2200011f07c00e34554000b80fb0090
:10324c0081c2200011f07c00e44554000b00780092
:10325c0006e9b7000b81fb0001fa2f008f804000bc
:10326c003180fb00000040007800400060027d00cf
:10327c00d442900005f17c00e54554000b00780029
:10328c0006e9b7000b80fb004441900002f07c0083
:10329c00e64554000b80fb000ef07c00e745540023
:1032ac000b81fb0090c0b30000f17c00e84554009a
:1032bc000b00780006e9b7007290200012417800ec
:1032cc008281fb0030c0b30080f17c000240e8003a
:1032dc000080fb000ef07c0002c0e80007e9b7009c
:1032ec000080fb00e441900003f07c00634041004f
:1032fc0007e9b7000080fb00f442900005f07c0069
:10330c00644141000200780007e9b70024009000f6
:10331c0058f807008f6097000180fb000000400008
:10332c007800400060007d00100078007d430700ad
:10333c000f6197000280fb00000040007800400005
:10334c0060007d000008eb00764307008f6197005a
:10335c000380fb0000004000780040000e307d0030
:10336c00000120004f0778004f06be004f05be003d
:10337c004f04be004f05b1000000060085fd37006c
:10338c000340780041af20000040e80080679f00b8
:10339c00e64f5000ca0432003100e000faff320060
:1033ac00d256800078fe370004c9bf000038a30055
:1033bc00a4083a0020ccb30088e9b70030072000fd
:1033cc004f0778004f06be004f05be004f04be00ed
:1033dc004f05b100000006006efd3700009920007b
:1033ec000cfd070080679f00f94f500070fd320004
:1033fc0001678000c14c880010c0b30088e9b70099
:10340c00300220004f0778004f06be004f05be006b
:10341c004f04be004f05b100000006005dfd3700f3
:10342c0020ccb30088e9b700700320004f07780068
:10343c004f06be004f05be004f04be004f05b10045
:10344c000000060053fd3700d1568000000022001a
:10345c000084600056fd3a00cbccbf00f94f500001
:10346c001500320022c1b3000440bc00316680005c
:10347c00810041001166880022c1b30080cd20007c
:10348c00173f0700e6cca800e6eca8001066800009
:10349c0022c1b30081cd20004f3f070090c1b30083
:1034ac00cbecb7002066800002c1b30081cc2000b9
:1034bc00493f070004a9a90088679f0008407800cd
:1034cc0022c1b3000440bc00316680008100410081
:1034dc001166880022c1b30080cd2000003f070098
:1034ec00e72cab002a023a008f6197000340e800fa
:1034fc0080679f00f84f5000f1ff36000489a80048
:10350c00c05880000000e0000200320005430700b4
:10351c00182bef00844c8000954c8000e4588800f8
:10352c00f55888008fc9bf0020ebb70010c0b3005e
:10353c008ee9b700800220004f0778004f06be00ce
:10354c004f05be004f04be004f05b1000000060041
:10355c0010fd370004c9bf00e840600003083a00c2
:10356c0020ccb30088e9b7000409a900fbc7b3005d
:10357c000b00780006e9b7000100780007e9b700f6
:10358c00400320004f0778004f06be004f05be00d9
:10359c004f04be004f05b10000000600fdfc3700d3
:1035ac008042eb0085679f0005407800a3ad2000aa
:1035bc000082eb000080fb00c200dd0062022000f4
:1035cc0001014100a5ad200062807a00e10f4000ae
:1035dc00040032000180420050609000a249e300d8
:1035ec002b0032008f6097000140e80080679f003d
:1035fc00e54f5000efff36000041eb0082679f0063
:10360c003dcbbf00a249e3000805320012002000a8
:10361c00f3b320006402200082679f00840f5100e6
:10362c00e3fc320082007800134078000201e800cd
:10363c008381e800a249e300f7ff3a0001804000d3
:10364c00e2b32000604079008001eb000004e00050
:10365c0002003200a2e9b700430320000f6297007a
:10366c000480fb00000040008040eb0001707900fa
:10367c00030078004f0778004f06be004f05be00d0
:10368c004f04be004f05b10000000600c1fc37001e
:10369c008849e2002e073a0004b17900d1ff3700c7
:1036ac00009920005bfc0700f94f5000220a320001
:1036bc0050ccb30088e9b700b00320004f07780066
:1036cc004f06be004f05be004f04be004f05b100b3
:1036dc0000000600affc3700daaaa900dacaa8007d
:1036ec000061800046f7070080679f00f94f50008b
:1036fc000100320068f907008299200063862800d7
:10370c00070009003359780060b2200024c0b300d0
:10371c00904f120088083200d05680004d00de0019
:10372c000000a2006140600088e9b700d0042000ce
:10373c004f0778004f06be004f05be004f04be0079
:10374c004f05b1000000060092fc370093032000e7
:10375c008849e20088fc3a00db0aa80003007800e4
:10376c004f0778004f06be004f05be004f04be0049
:10377c004f05b1000000060086fc3700aef60700ce
:10378c00c0ef9f00acf60700a0ef9f00aaf6070061
:10379c000080fb0008f02f0008066600000676008b
:1037ac00a5f6070080ef9f004800dd00fc0fb2007b
:1037bc0000067600a0f607000080fb0008056500f7
:1037cc00000575009cf60700f0e79f008086fb0063
:1037dc004868dd00fa0fb2000005750096f6070088
:1037ec00b0e79f0094f6070000477800afea970017
:1037fc000538a3000c0032000040eb0080679f00ee
:10380c000044780069ab20008bf607008880fb0031
:10381c0080f07c008f6097000144e80088679f006f
:10382c00e74f5400f8ff36002fe997000248a30039
:10383c000c0032008041eb0083679f00034478004a
:10384c00e9aa20007cf607008880fb0080f07c0051
:10385c000f6297000444e80088679f00e74f54000c
:10386c00f8ff3600c04c8000e10f400058013200d8
:10387c00e50f460056013e004fe997006344610096
:10388c00e14f5400ef06320040618000800f56007b
:10389c00c2073a008a4c88006c4c880020c0b300e8
:1038ac008ee9b700500320004f0778004f06be008a
:1038bc004f05be004f04be004f05b10000000600ce
:1038cc0034fc37008041eb0083679f000340780095
:1038dc0083982000004178000080fb00f00040003d
:1038ec0068004000e0f079000241e80002407800f6
:1038fc00e74f5100f8ff360080c0b30080679f008f
:10390c0000992000c3fb070080679f00f94f50000f
:10391c001209320004678000744c88008869ef003b
:10392c00700120004f0778004f06be004f05be0007
:10393c004f04be004f05b1000000060015fc370017
:10394c0010c0b30088e9b700400220004f07780090
:10395c004f06be004f05be004f04be004f05b10020
:10396c00000006000bfc3700e098200025c0b300d7
:10397c0090cf1200cc013200b12807008001eb007f
:10398c00030078004f0778004f06be004f05be00bd
:10399c004f04be004f05b10000000600fdfb3700d0
:1039ac000489a9008849e200ca033a00734c8000dc
:1039bc00436188000469a800ab280700cbccbf008a
:1039cc0022c1b3000440bc0031668000810041007c
:1039dc001166880022c1b30080cd2000c03d0700d5
:1039ec00e6cca900e6eca90084cd200075c120002e
:1039fc0007000900355a78001066800022c1b30018
:103a0c0081cd2000f43d0700006780000061880034
:103a1c0004a9a800206780004800de006f40600009
:103a2c000040e800ccecb70019f8070080007800e3
:103a3c0070668800b0668000e10160000c003a00fe
:103a4c006608b90042618000000041000000e800f7
:103a5c00806688000201e800926688008001fd0003
:103a6c00d4ecb700d5ecb7008001fd00d60ca80053
:103a7c0010c0b30063f807002066800002c1b300d9
:103a8c0081cc2000d43d0700db0aa8003161800006
:103a9c00014d8800a00320004f0778004f06be00a0
:103aac004f05be004f04be004f05b10000000600dc
:103abc00b8fb370088c9bf00e3032000aefb32001f
:103acc00f54f4000db03320060ccb30088e9b7004f
:103adc00030078004f0778004f06be004f05be006c
:103aec004f04be004f05b10000000600a9fb3700d3
:103afc0004c9bf000038a30055033a0020ccb30022
:103b0c0088e9b700900320004f0778004f06be00ed
:103b1c004f05be004f04be004f05b100000006006b
:103b2c009cfb37008040eb0030c3b3000539070025
:103b3c008040eb0040c3b30002390700f1c0b30072
:103b4c00f02220002f390700e098200013c0b300aa
:103b5c0090cf1100aa0332000489a9008849e20021
:103b6c0023073200cbccbf0022c1b3000440bc0001
:103b7c0031668000810041001166880022c1b300cb
:103b8c0080cd2000563d0700e6cca800e6eca8004e
:103b9c001066800022c1b30081cd20008e3d07004d
:103bac0090c1b300cbecb7002066800002c1b3001b
:103bbc0081cc2000883d070004a9a9008ea9ef0044
:103bcc00a0ccb30088e9b700a00320004f07780011
:103bdc004f06be004f05be004f04be004f05b1009e
:103bec00000006006bfb37008849e20084023200bb
:103bfc0010ccb30088e9b700e00320004f07780031
:103c0c004f06be004f05be004f04be004f05b1006d
:103c1c00000006005ffb370080992000fdfa0700ca
:103c2c0080679f008849e20061fb3a00f94f500021
:103c3c005ffb320000678000804c88001acbbf000d
:103c4c0088e9b7008969ef00c00420004f077800ad
:103c5c004f06be004f05be004f04be004f05b1001d
:103c6c00000006004bfb3700dbaaab0050fb3a0010
:103c7c0004c9bf000038a3009f02320080982000c6
:103c8c0022c0b300904f11009b023a0073b2200087
:103c9c00249a200007000900b4597800dbcaa80058
:103cac0010c0b3008ee9b700d0c0b3008fe9b700e5
:103cbc00a0aa21003061880045b32000209a200082
:103ccc0007000900b05a7800ef2707008002200097
:103cdc004f0778004f06be004f05be004f04be00d4
:103cec004f05b100000006002afb3700da4aa90094
:103cfc008849e20051023a000e0ca90089c9bf00a4
:103d0c00c0f707008869ef008303200003007800e8
:103d1c004f0778004f06be004f05be004f04be0093
:103d2c004f05b100000006001afb3700d156800089
:103d3c006880600063053a0035fa0700d003200064
:103d4c004f0778004f06be004f05be004f04be0063
:103d5c004f05b100000006000efb370004c9bf0080
:103d6c000038a30047063a0020ccb30088e9b7001e
:103d7c00c00320004f0778004f06be004f05be0061
:103d8c004f04be004f05b1000000060001fb3700d8
:103d9c00e76ca9001066800022c1b30081cd200021
:103dac000d3d0700d0fd370062009000dd4007009c
:103dbc00180078006900980001fa2f008f804000ed
:103dcc000080eb00abf507000301200058fc370026
:103ddc008042eb0085679f0005417800e3ad200031
:103dec00930078000100e0000300320031009000e5
:103dfc00800f5500660032000241e80082679f0088
:103e0c008381e800e74f5100f5ff3a00cfe89700b7
:103e1c0063c06000e14f500017043200bfe297000e
:103e2c00e1cf52004e00360031fa2f0001804700de
:103e3c0081f607000004e000070332003f609700a2
:103e4c008080fb0081804000e4804000a3ad200016
:103e5c0061817900b20890000140a10031099800fd
:103e6c00fff407003f6097000080fb00000040005b
:103e7c0064004000a4ad200060007a00859820000a
:103e8c0095427800254098003f6097000080fb0029
:103e9c00000040006400400060007a00cfe897000a
:103eac00314898003f6097000080fb000000400004
:103ebc006400400060007a002fe9970022489800c7
:103ecc003f6097000080fb00000040006400400051
:103edc00e0007a00cc009800e0007a00ba0098006c
:103eec00e0007a00bfe197000340e900c040980071
:103efc003f6097000080fb00000040006400400021
:103f0c0060007a003e4098003f6097000080fb0004
:103f1c00000040006400400060047a0088c9bf00c3
:103f2c007e40070080047800000c78000000e00060
:103f3c00740732000040eb0080679f005b4c8000f0
:103f4c008c9820001c4678000c04e0001e003a00ff
:103f5c005b4c88000c00780088e9b700da0aa800ee
:103f6c00406180008a0f5000c30a32008a4c8800de
:103f7c00500320004f0778004f06be004f05be00cf
:103f8c004f04be004f05b1000000060081fa370057
:103f9c0031409000804f570097ff3a000240780064
:103fac00aff4070026270700000020004f07780019
:103fbc004f06be004f05be004f04be004f05b100ba
:103fcc000000060073fa37008f6497003f6097007b
:103fdc000080fb000000400064004000a1ad200008
:103fec00608078000984fb001004440092f4070000
:103ffc00004c78008944e80089679f008849e200fa
:10400c00d3ff32008f6497003f6097000080fb0065
:10401c000000400064004000a1ad200060807800ea
:10402c000984fb001004440083f40700004c780062
:10403c008944e80089679f008849e200e2ff3a0062
:10404c00c3ff370007c9bf008080fb0032427800f5
:10405c0084f07a000040e80007e9b7000f60970091
:10406c008040e80081679f0023409000814f500002
:10407c0025fc360007c9bf008080fb003242780067
:10408c0084f07a000040e80007e9b7000f60970061
:10409c008040e80081679f0023409000814f5000d2
:1040ac00e8ff3e0018fc3700504c80001004e00084
:1040bc0031fe3a00614c8000804c800085f707008f
:1040cc00f94f500037003200044d800004e8a30083
:1040dc00f4043200e68ca900e6aca900e70ca800b9
:1040ec00534c8000a34090008107b200c508dd004e
:1040fc0020678000f20f2f000200600001007000aa
:10410c002067880093409000cc08dd00f2ff20006f
:10411c0002006000010070002067880013409000ce
:10412c00000fb2004400de003167800002ff2f0058
:10413c008280600080807000a3c9bf00e4ecb700ef
:10414c004f20de004a00dd0001a0a100808070003d
:10415c0031678800234090004200de00610060005f
:10416c004b00dd0001b0a100808070003167880039
:10417c00614c800011678800824c800002678800c7
:10418c008fc9bf00e8ecb7001066800022c1b300f5
:10419c0081cd2000103c0700a92607008001eb0010
:1041ac00f7fd370024f60700f94f5000f2fd3200fe
:1041bc00e72ca800e6cca800e6eca8000040eb0039
:1041cc0080679f008ecd2000804078000080fb002f
:1041dc000e0040000048eb008140e80001407800f0
:1041ec00e7cf5000f9ff360080c0b30080679f0016
:1041fc00ca6cec002066800002c1b30081cc2000a8
:10420c00f53b0700b0ff37001b0478004800900016
:10421c00e40f400012003200e30f40000e003200a9
:10422c000167800038009000808f50000c00320035
:10423c000288a30063fb3a00a1979f00f68044001c
:10424c0088804000114090000004a100904098002c
:10425c0013c0b3005bfb37000288a300f0ff3a00e9
:10426c00890044000040eb00f050980055fb3700eb
:10427c0030002000f0658800bcacef00c065800009
:10428c0062c0b300c1cb2000d33b0700080078000c
:10429c0088e9b700300720004f0778004f06be00b2
:1042ac004f05be004f04be004f05b10000000600d4
:1042bc00b8f937000e00a0000900780088e9b700b3
:1042cc0009017800f70044009141780061c0610059
:1042dc0007003a00024078000201e8008100e80083
:1042ec00f90f5100f8ff3a00f84f50002c00320043
:1042fc0000cfb30088e9b700380890006f00600069
:10430c002700320018089000a80890000000560002
:10431c0081805e0034422f00840f5000e08f5800e3
:10432c0016013e000e00a1008041eb00e1c06100cf
:10433c004208dd000e24a100004777000e08a30000
:10434c002bfb32008fb197000384410064014400c1
:10435c00a4ad2000e2007a0031409000a2e9b70041
:10436c00310890000050a000b008980062007a005c
:10437c0030089000430320000048a3008cf9320061
:10438c00030078004f0778004f06be004f05be00b3
:10439c004f04be004f05b100000006007df9370048
:1043ac008041eb00e1ff37000f6297008481fb0036
:1043bc000380410078004000a5ad2000e0807a0029
:1043cc001100780070409000a2e9b7008869ef00f6
:1043dc0011007800533f07008f6097000180fb00ad
:1043ec000000400078004000a2ad20006000790081
:1043fc004c3f07008f6197000380fb0000004000da
:10440c0078004000a4ad20000e307a000409a90009
:10441c00fbc7b3000b00780006e9b7000e0078006c
:10442c0007e9b700400320004f0778004f06be0095
:10443c004f05be004f04be004f05b1000000060042
:10444c0054f937000f6097008081fb000380410016
:10445c0078004000a1ad200060827800a40090009c
:10446c0040618000808f5000040532008244780047
:10447c00140178009e679f00038041007800400083
:10448c00a3ad2000e0807900214090000004e00002
:10449c000e003200859020008101780007c9bf0012
:1044ac008080fb003242780084f07a000040e80003
:1044bc0007e9b7001f6097000040e80090679f0075
:1044cc00a340900080cf5000f4ff3e002f90970047
:1044dc0015fa2f0085804700e6f307000f60970060
:1044ec008081fb0003804100f8014000a8ad200052
:1044fc0063017c00a200900040618000808f50001e
:10450c001700320063007c0010007800053f0700a4
:10451c008f6297000580fb0000004000780040008f
:10452c0060007c00ff3e07008f6097000180fb005d
:10453c0000004000780040000e307c000301200099
:10454c00030078004f0778004f06be004f05be00f1
:10455c004f04be004f05b100000006000df93700f6
:10456c000980fb0000004000d1b320001f629700bf
:10457c0004f0780012017800e1b320007241900041
:10458c0002f0780063007c0010007800e53e070024
:10459c008f6297000580fb0000004000780040000f
:1045ac0060007c00df3e07008f6097000180fb00fd
:1045bc0000004000780040000e307c000301200019
:1045cc00dfff37000080eb00a0979f000e10a000cb
:1045dc0040fc2f0000804700c13e07002fa297002f
:1045ec00bfa29700140c9800250c98000945780080
:1045fc001b04780011c0b3004a4c98007cfa3700b9
:10460c008969ef0032618000024d880020c0b30040
:10461c008fe9b70003618000c34c880010032000b1
:10462c004f0778004f06be004f05be004f04be007a
:10463c004f05b10000000600d6f837000e0ca8009c
:10464c0088c9bf00e14f4000acfd3200f0eab70072
:10465c0080fd2f0000804700a13e07004fa9970066
:10466c00dfa997006257880073578800da4aa800c0
:10467c0089c9bf0063f507008869ef008303200038
:10468c00a2fd37000238a300c9f832000268a3006b
:10469c0012053200dacaa90010c0b30088e9b700cd
:1046ac00400220004f0778004f06be004f05be00a9
:1046bc004f04be004f05b10000000600b5f83700ee
:1046cc000042eb0084679f00be0ae200adf93a009d
:1046dc000440780001ac20000040e80080679f0097
:1046ec00e44f5000460432003100e000faff320083
:1046fc00d2568000a4f937000489a8008849e2004a
:10470c001a06320075b22000209a2000070009001a
:10471c00b05a780004c9bf000058a3002b00320027
:10472c00dbcaab0029003200dbcaa90010c0b30001
:10473c008ee9b70080c0b3008fe9b700024d80004e
:10474c003261880043b32000249a2000070009003e
:10475c00b45978004c250700830220000300780030
:10476c004f0778004f06be004f05be004f04be0039
:10477c004f05b1000000060086f837000e00a100be
:10478c000080eb00a0979f0038089000ef4040009d
:10479c00ef80600002ff2f0002006000010070003b
:1047ac00300c98001b04780080fc2f000080470020
:1047bc004b3e07004fa09700dfa09700100c98000d
:1047cc00210c980013c0b300d8fe370004c9bf00f9
:1047dc000058a300040032008098200011c0b300e0
:1047ec0090cf10000d00320010c0b3008ee9b7005e
:1047fc0080c0b3008fe9b700024d800032618800a1
:10480c0043b32000249a200007000900b459780013
:10481c001d25070083022000d0ff370030c0b300f5
:10482c008ee9b70080c0b3008fe9b700024d80005d
:10483c003261880043b32000249a2000070009004d
:10484c00b45978001025070083022000c3ff3700fd
:10485c008ec9bf0080679f00cbccbf0022c1b300c4
:10486c000440bc0031668000810041001166880064
:10487c0022c1b30080cd2000193a0700db0aa90041
:10488c0013678000634c8800e8ccbf008ee9b7004a
:10489c00f0c0b30094e9b70095e9b7008869ef0060
:1048ac00d30220008f6097000104e00032f8320040
:1048bc008829a800030078004f0778004f06be0037
:1048cc004f05be004f04be004f05b10000000600ae
:1048dc0030f837000469a90026acef00ea24070081
:1048ec0004a9a900cbccbf0022c1b3000440bc007a
:1048fc0031668000810041001166880022c1b3003e
:10490c0080cd2000f6390700e76ca90090c1b300f8
:10491c00cbecb7001066800022c1b30081cd200023
:10492c002d3a070090c1b300cbecb7008041eb00ef
:10493c0083679f0080c4eb000340780008e02000f0
:10494c0022c1b3000440bc003166800081004100ec
:10495c001166880022c1b30080cd2000e039070029
:10496c003067800008006000880f5000140032008f
:10497c000f6297000440e80080679f00f84f5000da
:10498c00efff3600cbccbf00f94f50003b003a0094
:10499c000489a9008ea9ef0030ccb30088e9b700d8
:1049ac00a00320004f0778004f06be004f05be0045
:1049bc004f04be004f05b10000000600f5f73700ac
:1049cc0011678000004d8000808f5000e8ff3a0096
:1049dc00f0c2b300e44ce300e5ff36002067800032
:1049ec004800de006f406000894f5000e0ff31004e
:1049fc00804478000f609700cbecb700dcff3700e9
:104a0c008849e200420032000489a90060032000ba
:104a1c004f0778004f06be004f05be004f04be0086
:104a2c004f05b10000000600daf737008000eb00fc
:104a3c0002fb37008869ef00e00320004f07780085
:104a4c004f06be004f05be004f04be004f05b1001f
:104a5c0000000600cff73700792407000000200083
:104a6c004f0778004f06be004f05be004f04be0036
:104a7c004f05b10000000600c6f7370022c1b30095
:104a8c000440bc0031668000810041001166880042
:104a9c0022c1b30080cd200091390700014d800068
:104aac003161880042b32000239a200007000900de
:104abc003359780074240700416580008180e80038
:104acc0012c0b30000fa2f000f0040008439070019
:104adc00e8ccbf008ee9b70020c0b3008fe9b70067
:104aec0001678000c14c88000f60970088e9b7000f
:104afc00500120004f0778004f06be004f05be0046
:104b0c004f04be004f05b10000000600a1f73700ae
:104b1c008969ef008a29ef00624c80000200e000f6
:104b2c0013003200504c80000000e000790032008d
:104b3c0092009000908f50000500320070009000a1
:104b4c000000e00073003200908f5000feff3a002e
:104b5c00624c8000620c900002007800713d0700ee
:104b6c0008017800684c88000800e000edff3a006e
:104b7c008949e20001003a000489a900630320007e
:104b8c00dbcaab007cf73200dbcaa90072902000b4
:104b9c00124178008280fb008590200060c0b30039
:104bac0080f07a000240e8000080fb00e1ccb3000a
:104bbc0001f07a0002c1e8000200780007e9b700b2
:104bcc0020ba2000618628000700090031587800bf
:104bdc000041eb0082679f00024078006b90200040
:104bec009b45780023ba20008b44e9000b457800e4
:104bfc008b80fb000080fb006700100060c0790018
:104c0c0080f07a00894578008944e9000241e80087
:104c1c0002407800e74f5100f4ff360080c0b3002b
:104c2c0080679f008005fd0006e9b7008005fd0048
:104c3c0085bf9f0079f107008b80fb008fba97002e
:104c4c0080f07a008980fb0010c0b30080f07a00fd
:104c5c00e34555000b80fb0091c2200011f07a0057
:104c6c00e44555000b80fb0081c2200011f07a0056
:104c7c00e54555000b80fb0011ce200011f07a00a9
:104c8c00e64555000b80fb0001ce200011f07a00a8
:104c9c00e74555008b80fb0000c1b30080f07a0023
:104cac00e84555008b80fb0090c0b30080f07a0083
:104cbc00e94555000b00780006e9b7000067800055
:104ccc0001fa2f008f804000eaf10700dbeaa80010
:104cdc0040fd2f0000804700013d07002faa9700e0
:104cec00bfaa9700845988009559880005678000f1
:104cfc0005618800000120004f0778004f06be00b8
:104d0c004f05be004f04be004f05b1000000060069
:104d1c0020f7370012027800610062005200320066
:104d2c0064004100bbf6070080679f008f6297000c
:104d3c00f9cf520086ff3200dbcaab00050032000f
:104d4c00624c8000a2589000f0c8b30080cf500095
:104d5c0080ff360000c1b300f03c070080017800f2
:104d6c000000e0007aff3200604c800010009000e0
:104d7c0080097800604c800010409000a0419800a1
:104d8c0021678000cc08de00c808dd00130090000d
:104d9c00f20f2f00020060000100700090019800db
:104dac0031678000cc08dd00f2ff200002006000bb
:104dbc000100700090019800604c80002009900068
:104dcc006f0161002300900001ff2f0001006000c3
:104ddc0002007000a0019800614c8000a1089000b6
:104dec00010fb200f2f02f00020060000100700011
:104dfc00a0019800614c8000a1089000cf08de0053
:104e0c00c808dd000080a10001007000a00198001e
:104e1c00e6804100604c80006c0040001002be0037
:104e2c008488be0020029000b0029000a40098007c
:104e3c00b5009800554c8000f5019800534c880043
:104e4c008969ec00624c8000620c900002007800d2
:104e5c00b43c070008017800684c88000800e000aa
:104e6c0030ff3a0042ff37002200900064f1070047
:104e7c0080679f00adff3700eff0070080679f0051
:104e8c00e14f50000c0032000f609700e44f5000cf
:104e9c00610032006a230700000020004f077800f1
:104eac004f06be004f05be004f04be004f05b100bb
:104ebc0000000600b7f63700db0aab00f2ff320049
:104ecc00406180008a0f5000240a320018c0b300e1
:104edc00e8679f00d8f00700f0679f00d6f0070046
:104eec00806f9f00d4f00700a06f9f00d2f00700e6
:104efc00b06f9f00d0f00700804578008040e8003c
:104f0c00c16f9f0070cdb300a349e30002003e00c7
:104f1c000140e800c06f9f0030cbb300a349e30011
:104f2c0003003e004f6897000040e800c06f9f00f0
:104f3c00f0c8b300a349e30003003e004f6897009c
:104f4c000040e800c06f9f00b0c6b300a349e30067
:104f5c0003003e004f6897000040e800c06f9f00c0
:104f6c0070c4b300a349e30003003e004f689700f0
:104f7c000040e800c06f9f0030c2b300a349e300bb
:104f8c0003003e004f6897000040e800c06f9f0090
:104f9c008f6897007f629700df9197000a01780075
:104fac0008407800d1f007000004e0000300320054
:104fbc00c04c8000e10f4000f1093200804c8000b1
:104fcc000ff10700f94f50000500320030678000e8
:104fdc00000cb20001042000810f5000e60a3200e0
:104fec00884c800000618000800f5400630b3200fd
:104ffc00132307008001eb00030078004f077800b3
:10500c004f06be004f05be004f04be004f05b10059
:10501c00000006005ff6370087f007008045780037
:10502c0040618000800f550099093200bfe0970065
:10503c00e1cf50005300360032fa2f0002804700b7
:10504c00fdf107000004e000b20332003f6097005e
:10505c008080fb0081804000e4804000a3ad2000f4
:10506c0061817900b20890000140a10031099800db
:10507c007bf007003f6097000080fb0000004000c1
:10508c0064004000a4ad200060007a0085982000e8
:10509c0095427800254098003f6097000080fb0007
:1050ac00000040006400400060007a00cfe89700e8
:1050bc00314898003f6097000080fb0000004000e2
:1050cc006400400060007a002fe9970022489800a5
:1050dc003f6097000080fb0000004000640040002f
:1050ec00e0007a00cc009800e0007a00ba0098004a
:1050fc00e0007a00bfe197000340e900c04098004f
:10510c003f6097000080fb000000400064004000fe
:10511c0060007a003e4098003f6097000080fb00e2
:10512c00000040006400400060047a0088c9bf00a1
:10513c00fa3b070080047800000c78000000e000c7
:10514c00b50832000040eb0080679f003f6097007d
:10515c000080fb000000400064004000a1ad200076
:10516c00608078009000780040c0b30080487800e0
:10517c0010c0b30080679f008849e20032003a00fb
:10518c00da0aa8000a0078009df0070080679f00eb
:10519c00f94f50003fff3200bff20700a822070072
:1051ac008869ef008499200085cd20000700090054
:1051bc00355a78000099200081cd200007000900a5
:1051cc00315878000041eb0082679f000240780064
:1051dc00a2c0b3000440bc005165800081004100b6
:1051ec00a2c0b300e0ca2000bd370700b065800044
:1051fc00800f55007e0832008f6197000340e80055
:10520c0080679f00e74f5000f1ff3600c30320007a
:10521c000b68a300d8f53a0004c2b30004c06500c3
:10522c0088e9b700f1814100030078004f0778004e
:10523c004f06be004f05be004f04be004f05b10027
:10524c0000000600d3f537008f6497003f6097008d
:10525c000080fb000000400064004000a2ad200074
:10526c00600079000984fb0010044400f2ef070091
:10527c00004c78008944e80089679f008849e20067
:10528c00bfff32008f6497003f6097000080fb00e7
:10529c000000400064004000a2ad200060007900d6
:1052ac000984fb0010044400e3ef0700004c780075
:1052bc008944e80089679f008849e200e2ff3a00d0
:1052cc00afff370060b2200022c0b300904f110036
:1052dc00500132004e0cde0061446400e4fa2f00f1
:1052ec0004804700658628000700090035587800bf
:1052fc008000b1001001be00c24c8800d34c880065
:10530c001f9a9700af9a9700e44c8800f54c8800e0
:10531c008869ef000040eb00bdf407000804e000d2
:10532c002f01320004a9a8000469a900c3032000be
:10533c00030078004f0778004f06be004f05be00f3
:10534c004f04be004f05b1000000060091f5370078
:10535c000409a8008f6297008580fb00c208dd005d
:10536c004002200001004000a2ad2000801f780008
:10537c006040790087e9b7004f007800a0c0b30007
:10538c0086e9b70029ccbf0085e9b70028ccbf005f
:10539c0084e9b7007202200001014100a3ad200096
:1053ac00030141001240780083e9b7006102b000ac
:1053bc00838040001140780082e9b7008169ef00da
:1053cc0090c0b30080e9b7007bc7b3000b00780036
:1053dc0006e9b70030c0b30008e9b7000969ef006f
:1053ec00114078000ae9b700124078000be9b700c9
:1053fc0040c0b30007e9b7001100780001fa2f0094
:10540c008f8040001bf007000f6297000480fb00a8
:10541c004200dd006002b0008080eb00a5ad2000f2
:10542c0001b07a00000120004f0778004f06be0043
:10543c004f05be004f04be004f05b1000000060032
:10544c0054f537007cef07008040780080679f00a0
:10545c00e64f5000d4023200e74f500043013200b7
:10546c00db0aab0006003200e14f500097fe320021
:10547c00e34f500010063200e24f50003e05320060
:10548c00ef210700000020004f0778004f06be00f8
:10549c004f05be004f04be004f05b10000000600d2
:1054ac003cf53700e68ca800e6aca900e70ca80098
:1054bc00534c8000a34090008107b200c508dd006a
:1054cc0020678000f20f2f000200600001007000c6
:1054dc002067880093409000cc08dd00f2ff20008c
:1054ec0002006000010070002067880013409000eb
:1054fc00000fb2004400de003167800002ff2f0075
:10550c008280600080807000a3c9bf00e4ecb7000b
:10551c004f20de004a00dd0001a0a1008080700059
:10552c0031678800234090004200de00610060007b
:10553c004b00dd0001b0a100808070003167880055
:10554c00614c800011678800824c800002678800e3
:10555c008fc9bf00e8ecb7001066800022c1b30011
:10556c0081cd20001c3707000bfb3700c14c80009d
:10557c00e18f40001d003200e38f40001b00320021
:10558c00e48f40001900320012992000124178007b
:10559c0044fa2f008481470010c0b300bcf307000d
:1055ac000004e000fb013200e14f500000f5320036
:1055bc0010cdb30088e9b7000409a900fbc7b300fc
:1055cc000b00780006e9b7000769ef0040032000e4
:1055dc004f0778004f06be004f05be004f04be00bb
:1055ec004f05b10000000600eaf4370021fa2f0045
:1055fc000180470090f00700804078000004e00034
:10560c00b1063a0010cfb30088e9b7000409a9002d
:10561c00fbc7b3000b00780006e9b7000100780067
:10562c0007e9b700400320004f0778004f06be0083
:10563c004f05be004f04be004f05b1000000060030
:10564c00d4f437008a49e20020023200c04c8000ba
:10565c00e10f400056073a0020ccb30088e9b700b0
:10566c0033072000030078004f0778004f06be0078
:10567c004f05be004f04be004f05b10000000600f0
:10568c00c4f437009809e20035003a009a09e200a8
:10569c0033003a009c09e20031003a009e09e20016
:1056ac002f003a000e0ca900da6aa800819820009d
:1056bc0091407800e1806000c908dd00d056800080
:1056cc000090a10001017000d2568800db4aa800ae
:1056dc00216bef00db2aab0002003a0090c1b30053
:1056ec0021ebb700c0fd2f00008047007c3a07007b
:1056fc006fa89700ffa897001059880021598800bf
:10570c0091982000914078008180fb000101e90014
:10571c004f11de004d11dd00d056800000d0a100ed
:10572c0002007000e1806000ce08dd0000e0a10006
:10573c0001007000d056880020c0b30026ebb700e3
:10574c00000020004f0778004f06be004f05be003a
:10575c004f04be004f05b100000006008df4370069
:10576c00809920002bf4070080679f00f94f5000b0
:10577c00ca043a0080ccb30088e9b700c00320000b
:10578c004f0778004f06be004f05be004f04be0009
:10579c004f05b100000006007ef43700db0aab00b9
:1057ac00060032003fe09700e14f50000300360046
:1057bc0004c9bf00e14660009902320020210700b5
:1057cc00000020004f0778004f06be004f05be00ba
:1057dc004f04be004f05b100000006006df4370009
:1057ec0004a9a9000469a900c3032000d0fe370056
:1057fc002521070042618000724c88006df837004b
:10580c00da2aa900d25680000200e00048f43d00dc
:10581c0075f537004e0cde00614464009869ef00aa
:10582c009969ef009a69ef009b69ef009c69ef00a2
:10583c009d69ef009e69ef009f69ef008869ef009a
:10584c000040eb0072f307000804e0007d0032001a
:10585c0004a9a8000469a900c30320000300780070
:10586c004f0778004f06be004f05be004f04be0028
:10587c004f05b1000000060046f437008244780062
:10588c00e0b3200061c2b3001004e000f8fa32006b
:10589c008944e8000080e80081cf5400faff3a0008
:1058ac001400780070409000a2e9b70010cfb3004c
:1058bc0088e9b7000380410078004000a2ad2000c9
:1058cc006000790010007800163a07008f6197008d
:1058dc000380fb000000400078004000a4ad2000d5
:1058ec0060007a000f3a07008f6297000580fb007a
:1058fc000000400078004000a1ad20000eb0780000
:10590c000409a900fbc7b3000b00780006e9b70037
:10591c000e00780007e9b700400320004f0778001d
:10592c004f06be004f05be004f04be004f05b10030
:10593c000000060017f437008849e200d403320057
:10594c00b0ccb30088e9b700c30320000300780093
:10595c004f0778004f06be004f05be004f04be0037
:10596c004f05b100000006000af43700dbeaa9007d
:10597c0031ee07000080fb0001f02f0081846400f1
:10598c00808474002cee07004800dd00f90fb20093
:10599c008084740028ee070000447800a8200700db
:1059ac0060ab20008af307000004e00000f4320032
:1059bc0070c1200097f30700f94f5000140032001b
:1059cc008041eb0083679f0034668000146688007a
:1059dc000b2020001166800022c1b30080cd200076
:1059ec00bf35070030678000002cb2008b0f5000d1
:1059fc00070032008f6297008542e80085679f00a0
:105a0c0020012000c22cb400f8cf5200f1ff360068
:105a1c000804e000a90332000469a900080078001a
:105a2c0088e9b700a00320004f0778004f06be009e
:105a3c004f05be004f04be004f05b100000006002c
:105a4c00d4f3370004a9a9000469a900c3032000fa
:105a5c0082ff37008fb0970001844000640044003f
:105a6c00a2ad200060007900b00090004061800081
